:100000000C94B2000C94DA000C94DA000C9498155D
:100010000C9441160C941D160C94DA000C944E0EA0
:100020000C94DA000C94DA000C94DA000C94DA00E8
:100030000C94DA000C94DA000C94DA000C94DA00D8
:100040000C94D2140C94DA000C940D0F0C94E70E5F
:100050000C94DA000C94DA000C94DA000C94DA00B8
:100060000C94DA000C94DA00000000002300260053
:10007000290000000000250028002B0004040404CF
:100080000404040402020202020203030303030342
:10009000010204081020408001020408102001021F
:1000A0000408102000C201000100110011000C0022
:1000B00000E100000A002500250021000096000054
:1000C0001900390039003600127A00001F0046007E
:1000D000460044008070000022004D004D004A00A0
:1000E000004B0000360075007500720040380000BB
:1000F0004A009C009C009900802500007200EC00E2
:10010000EC00E900C0120000E900DA01DA01D701D1
:1001100060090000D701B603B603B303B0040000C2
:10012000B3036E076E076B07580200006E07DC0E04
:10013000DC0ED80E2C010000DC0EC11DC11DBE1D41
:1001400000000000240027002A0000000008000230
:10015000010000030407000000000000000002008E
:10016000C21C3C2411241FBECFEFD8E0DEBFCDBFA0
:1001700014E0A0E0B1E0E6EBF3E502C005900D92DB
:10018000A03EB107D9F727E0A0EEB4E001C01D9270
:10019000AE3CB207E1F710E0C1EBD0E004C021971C
:1001A000FE010E94CC27C03BD107C9F70E9409215C
:1001B0000C94CE290C94000084E691E00E94831AEE
:1001C000109263070E943A088091630708954AE0FD
:1001D00050E060E070E088EC90E00E941118089513
:1001E0004AE050E060E070E088EC90E00C94111878
:1001F0000C94F0000C94F0000C94F0000C94F000BF
:100200000C94F0000C94F0000C94F0000C94F000AE
:100210000C94F0000C94F0000C94F0000C94F0009E
:100220000C94F0000C94F0000C94F0000C94F0008E
:100230000C94F000CF92DF92EF92FF921F93CF9336
:10024000DF93CDB7DEB762970FB6F894DEBF0FBE6F
:10025000CDBF86E0EBE8F1E0DE011D9601900D9246
:100260008A95E1F7E12CF12C41E050E0B7018DE0F7
:1002700090E08C0F9D1F8E0D9F1D0E94C8258FEF53
:10028000E81AF80A85E0E816F10471F71AE0198314
:1002900085E08A8389E791E09C838B831E821D829F
:1002A0001A8619861C861B8618861F82BE01635F0C
:1002B0007F4FCE0101960E947E1CCE010D960E94BA
:1002C000831A84E190E00E94D8256C01990FEE0812
:1002D000FF08198383E08A8380E891E09C838B8305
:1002E0001E821D821A8619861C861B8618861F820E
:1002F000B701A601CE0101960E94271CF7FE0EC091
:100300006DE287EE94E00E946E0D66277727CB01A1
:100310006C197D098E099F094AE003C04AE0C701B4
:10032000B6010E94321B68E871E087EE94E00E94FB
:10033000D00E62960FB6F894DEBF0FBECDBFDF9130
:10034000CF911F91FF90EF90DF90CF900895CF92C3
:10035000DF92EF92FF920F931F93CF93DF9300D022
:1003600000D0CDB7DEB78FE00E9475142FE4209344
:100370007C00EFE0F0E03197F1F72EE420937C0071
:10038000EBE1F3E03197F1F720917A0020682093B8
:100390007A0020917A00206420937A0020917A00DC
:1003A00026FDFCCF1091780000917900BC0180E01F
:1003B00090E00E94A9242DEC3CEC4CE85FE30E9405
:1003C0000A256B017C01612F70E0702B80E090E0CA
:1003D0000E94A9249B01AC01C701B6010E94F0262E
:1003E00020E030E040E450E40E940A256B017C01EB
:1003F0006093E1047093E2048093E3049093E40437
:1004000020E030E040E651E40E94982787FF1BC0BF
:1004100020E030E040E451E4C701B6010E94A4248A
:1004200087FD14C020E030E040E451E4C701B6018C
:100430000E9483262AE037ED43EA5CE30E94F0261F
:100440000E94692705C064E670E002C060E070E0C9
:1004500085E0898381E08A8381E991E09C838B83B5
:10046000AB0160E070E0CE0101960E94891668EE53
:1004700073E080E090E00E948C140F900F900F903A
:100480000F90DF91CF911F910F91FF90EF90DF9030
:10049000CF9008950F931F93CF93DF93CDB7DEB71F
:1004A0002C970FB6F894DEBF0FBECDBF0E94A701F8
:1004B00026E636E646E451E46091E1047091E204F8
:1004C0008091E3049091E4040E94A42487FF37C044
:1004D000ECE5F1E08491E2EAF0E00491EEE8F0E08E
:1004E0001491112371F081110E94E113E12FF0E0CA
:1004F000EE0FFF1FE859FF4FA591B491EC91E02357
:10050000D9F481E08093E0048091E004811117C068
:100510008EE089831A828DE991E09C838B831E8211
:100520001D821A8619861C861B8618861F82CE019C
:1005300001960E94E01603C01092E004E5CF2C96CD
:100540000FB6F894DEBF0FBECDBFDF91CF911F91E4
:100550000F9108950C94A7019F92AF92BF92CF92F2
:10056000DF92EF92FF920F931F93CF93DF93CDB75C
:10057000DEB72C970FB6F894DEBF0FBECDBF83EA6F
:1005800091E00E94831A0E944A0288E790E09093CB
:100590004A078093490790934807809347079093B1
:1005A000460780934507909344078093430780EE66
:1005B00091E0909353078093520712E0198382E1F0
:1005C000982E9A829AEBA92E91E0B92EBC82AB822A
:1005D0001E821D821A8619861C861B8618861F821B
:1005E00040E050E0BA01CE0101960E94271C8091A4
:1005F0005207909153072CE3C22ED12CB6010E94D2
:100600009D27AB01770F660B770B198301E10A83F6
:100610003DEBE32E31E0F32EFC82EB821E821D8245
:100620001A8619861C861B8618861F82CE010196A3
:100630000E94271C198384E08A8380EC91E09C83CC
:100640008B8340E050E0BA01CE0101960E948916EA
:10065000198385E08A838EEC91E09C838B8340E054
:1006600050E0BA01CE0101960E948916809152078E
:1006700090915307B6010E949D27AC01990F660B1C
:10068000770B19839A82BC82AB821E821D821A86E6
:1006900019861C861B8618861F82CE0101960E9431
:1006A000271C8091520790915307B6010E949D2705
:1006B000AB01770F660B770B19830A83FC82EB8201
:1006C0001E821D821A8619861C861B8618861F822A
:1006D000CE0101960E94271C0E9446089C011983A6
:1006E0001A838AED91E09C838B83C901330FAA0B97
:1006F000BB0B9C01AD0128513C4F4F4F5F4FA8ED04
:10070000B0E00E94102620EA3FE040E050E00E9466
:10071000F125BA01A901CE0101960E9489160E9415
:10072000460890935107809350074AE06CE477E0C5
:100730000E946F24198388E18A8386EE91E09C836E
:100740008B831E821D821A8619861C861B8618863C
:100750001F826CE477E0CE0101960E947E1C2C96ED
:100760000FB6F894DEBF0FBECDBFDF91CF911F91C2
:100770000F91FF90EF90DF90CF90BF90AF909F9040
:1007800008956F927F928F929F92AF92BF92CF9275
:10079000DF92EF92FF920F931F93CF93DF93CDB72A
:1007A000DEB72C970FB6F894DEBF0FBECDBF0E9408
:1007B0004A0228E730E030934A072093490784EB48
:1007C00090E0909348078093470730934607209323
:1007D0004507909344078093430788E592E0909300
:1007E00053078093520712E0198382E1682E6A82D0
:1007F0009AEB892E91E0992E9C828B821E821D821B
:100800001A8619861C861B8618861F8240E050E0D7
:10081000BA01CE0101960E94271C80915207909147
:1008200053072CE3E22EF12CB7010E949D27AB0168
:10083000770F660B770B198331E1732E7A82EDEB1C
:10084000AE2EE1E0BE2EBC82AB821E821D821A86D5
:1008500019861C861B8618861F82CE0101960E946F
:10086000271C198384E08A8380EC91E09C838B832E
:1008700040E050E0BA01CE0101960E94891619832A
:1008800085E08A838EEC91E09C838B8340E050E08E
:10089000BA01CE0101960E9489160E9446089093E3
:1008A0005107809350074AE06CE477E00E946F2480
:1008B000198308E10A83F6EECF2EF1E0DF2EDC8209
:1008C000CB821E821D821A8619861C861B8618867C
:1008D0001F826CE477E0CE0101960E947E1C0E948C
:1008E00046089C0119831A838AED91E09C838B83CF
:1008F000C901330FAA0BBB0B9C01AD0128513C4F22
:100900004F4F5F4FA8EDB0E00E94102620EA3FE075
:1009100040E050E00E94F125BA01A901CE01019604
:100920000E9489168091520790915307B7010E9447
:100930009D27AC01990F660B770B19836A829C8205
:100940008B821E821D821A8619861C861B8618863B
:100950001F82CE0101960E94271C80915207909120
:100960005307B7010E949D27AB01770F660B770BEA
:1009700019837A82BC82AB821E821D821A861986F6
:100980001C861B8618861F82CE0101960E94271C9A
:1009900019830A83DC82CB821E821D821A86198605
:1009A0001C861B8618861F826CE477E0CE010196B8
:1009B0000E947E1C2C960FB6F894DEBF0FBECDBFF2
:1009C000DF91CF911F910F91FF90EF90DF90CF902B
:1009D000BF90AF909F908F907F906F9008959F925F
:1009E000AF92BF92CF92DF92EF92FF920F931F933D
:1009F000CF93DF93CDB7DEB72C970FB6F894DEBF59
:100A00000FBECDBF83EF91E00E94831A0E944A027D
:100A10008CE3E82EF12CF0924A07E092490788E730
:100A200090E09093480780934707F0924607E09242
:100A30004507909344078093430788E691E090939D
:100A400053078093520712E0198390E1992E9A82FE
:100A50002DEBA22E21E0B22EBC82AB821E821D8223
:100A60001A8619861C861B8618861F8246E050E06F
:100A700060E070E0CE0101960E94271C8091520731
:100A800090915307B7010E949D27AC01990F660B07
:100A9000770B198301E10A833AEBC32E31E0D32EA1
:100AA000DC82CB821E821D821A8619861C861B86DA
:100AB00018861F82CE0101960E94271C198384E0AC
:100AC0008A8380EC91E09C838B8340E050E0BA0104
:100AD000CE0101960E948916198385E08A838EECE7
:100AE00091E09C838B8340E050E0BA01CE010196F7
:100AF0000E9489160E9446089093510780935007E0
:100B00004AE06CE477E00E946F240E9446089C0152
:100B100019831A838AED91E09C838B83C901330F7B
:100B2000AA0BBB0B9C01AD0128513C4F4F4F5F4FAF
:100B3000A8EDB0E00E94102620EA3FE040E050E03F
:100B40000E94F125BA01A901CE0101960E948916E1
:100B5000198388E18A8386EE91E09C838B831E82D1
:100B60001D821A8619861C861B8618861F826CE4D5
:100B700077E0CE0101960E947E1C809152079091F1
:100B80005307B7010E949D27AB01770F660B770BC8
:100B900019839A82BC82AB821E821D821A861986B4
:100BA0001C861B8618861F82CE0101960E94271C78
:100BB0008091520790915307B7010E949D27AC0185
:100BC000990F660B770B19830A83DC82CB821E8216
:100BD0001D821A8619861C861B8618861F82CE01E6
:100BE00001960E94271C2C960FB6F894DEBF0FBE0C
:100BF000CDBFDF91CF911F910F91FF90EF90DF90CC
:100C0000CF90BF90AF909F9008952F923F924F92B8
:100C10005F926F927F928F929F92AF92BF92CF928C
:100C2000DF92EF92FF920F931F93CF93DF93CDB795
:100C3000DEB72C970FB6F894DEBF0FBECDBF87E0AE
:100C400092E00E94831A109251071092500784E696
:100C5000C82ED12CE12CF12C17E090EA292E9FE030
:100C6000392E412C512C2AE3622E22E0722E3AE0DA
:100C7000832E912CA12CB12C8EE00E947514BC0106
:100C8000990F880B990B0E94AB242AE038E240EAC6
:100C90005BE30E940A252DEC3CEC4CE45EE30E94F1
:100CA00084260E94622748E55BE1469F9001479FAA
:100CB000300D569F300D1124B901330F880B990B5D
:100CC0000E94AB2420E030E040E950E40E94F0268E
:100CD0000E946227DC01CB019093E6048093E50437
:100CE00090935107809350074AE06CE477E00E94AC
:100CF0006F2407E0198356E05A838EE192E09C83CB
:100D00008B831E821D821A8619861C861B86188676
:100D10001F826CE477E0CE0101960E947E1C209138
:100D2000E5043091E604C901330FAA0BBB0B9C010B
:100D3000AD0128513C4F4F4F5F4FA8EDB0E00E94EE
:100D40001026A20191010E94F125BA01A90119837F
:100D500095E09A838BE292E09C838B83CE0101968F
:100D60000E948916198394E09A837C826B82C70162
:100D7000B601A50194010E94F125BA01A901CE0195
:100D800001960E94891668EE73E080E090E00E9470
:100D90008C1444E6C40ED11CE11CF11C5CE4C516A5
:100DA00054E0D506E104F10409F066CF098385E03B
:100DB0008A838BE292E09C838B8346E350E060E081
:100DC00070E0CE0101960E948916098386E08A832D
:100DD0008EE192E09C838B831E821D821A86198687
:100DE0001C861B8618861F8268EF73E0CE01019671
:100DF0000E947E1C2C960FB6F894DEBF0FBECDBFAE
:100E0000DF91CF911F910F91FF90EF90DF90CF90E6
:100E1000BF90AF909F908F907F906F905F904F901A
:100E20003F902F900895CF93DF93CDB7DEB72E97E5
:100E30000FB6F894DEBF0FBECDBF89E492E00E94EA
:100E4000831A6CE572E0CE0109960E940E0E609145
:100E5000B8057091B905CE0109960E94DD0D61E6D5
:100E600072E0CE0109960E94DD0D89859A850E9467
:100E70006516FE01319688E0DF011D928A95E9F73B
:100E800086E792E00E94831ACE0109960E94961A84
:100E900044EF51E060E070E080EB94E00E941118B4
:100EA00064EF71E080E090E00E948C1461E086E0E5
:100EB0000E940A142E960FB6F894DEBF0FBECDBF67
:100EC000DF91CF9108951092000160E087E00C94CB
:100ED0000A14EF92FF920F931F93CF93DF93CDB736
:100EE000DEB72C970FB6F894DEBF0FBECDBF809152
:100EF0005407909155078E3191050CF440C04E97E0
:100F0000909355078093540708E0098319E01A83EA
:100F100028E733E03C832B831E821D821A861986C4
:100F20001C861B8618861F822CE3E22EF12CB7014B
:100F30000E949D27AC01990F660B770BCE0101969D
:100F40000E94271C8091540790915507B7010E9479
:100F50009D27AB01770F660B770B09831A838BE70D
:100F600093E09C838B831E821D821A8619861C86C1
:100F70001B8618861F82CE0101960E94271C2C9684
:100F80000FB6F894DEBF0FBECDBFDF91CF911F919A
:100F90000F91FF90EF900895EF92FF920F931F93A0
:100FA000CF93DF93CDB7DEB72C970FB6F894DEBFA3
:100FB0000FBECDBF80915407909155074E969093E8
:100FC00055078093540708E0098319E01A8328E73E
:100FD00033E03C832B831E821D821A8619861C8671
:100FE0001B8618861F822CE3E22EF12CB7010E948B
:100FF0009D27AC01990F660B770BCE0101960E94DD
:10100000271C8091540790915507B7010E949D2796
:10101000AB01770F660B770B09831A838BE793E09D
:101020009C838B831E821D821A8619861C861B86D2
:1010300018861F82CE0101960E94271C2C960FB69F
:10104000F894DEBF0FBECDBFDF91CF911F910F91FE
:10105000FF90EF9008958EE793E00C94831A84E953
:1010600093E00E94831A0E944A0210925507109240
:101070005407089560E083E00E940A1460E082E073
:101080000E940A1460E084E00C940A148EE00E942E
:101090007514BC01990F880B990B0E94AB242AE0B0
:1010A00038E240EA5BE30E940A252DEC3CEC4CE47C
:1010B0005EE30E94842620E030EC4AED55E40E9475
:1010C0000A2520E030E040E950E40E94F0260E942A
:1010D0006227DC01CB0183519640A109B109089533
:1010E0000E94460890935107809350078E3C2FEF43
:1010F00092076CF461E083E00E940A1464EF71E0EF
:1011000080E090E00E948C1460E083E00EC0C39702
:1011100074F061E082E00E940A1464EF71E080E004
:1011200090E00E948C1460E082E00C940A14089510
:101130001092000160E087E00E940A1464EF71E001
:1011400080E090E00E948C140C94700888EA93E090
:101150000E94831A0C9470082F923F924F925F92D4
:101160006F927F928F929F92AF92BF92CF92DF92B7
:10117000EF92FF920F931F93CF93DF93CDB7DEB71C
:10118000AA970FB6F894DEBF0FBECDBF1C014B8BE4
:101190005C8B6D8B7E8B0F8B188F298F3A8FE09035
:1011A0005207F09053076AE871E0CE010D960E9455
:1011B0000E0E0E94C61460935A0770935B078093CB
:1011C0005C0790935D070E944608909351078093B7
:1011D00050074AE06CE477E00E946F2412E0198324
:1011E00088E18A8386EE91E09C838B831E821D8238
:1011F0001A8619861C861B8618861F826CE477E087
:10120000CE0101960E947E1C80916307882309F419
:1012100026C219838EE08A838CEB93E09C838B83B8
:101220001E821D821A8619861C861B8618861F82BE
:101230006B897C898D899E892CE330E040E050E009
:101240000E94F12529013A01AB01BC01CE010196B2
:101250000E94271C19838DE08A838FEB93E09C8387
:101260008B831E821D821A8619861C861B86188611
:101270001F82B301A201CE0101960E94271C80911A
:101280005207909153075CE3C52ED12CB6010E9402
:101290009D27AC01990F660B770B198382E18A8336
:1012A0008AEB91E09C838B831E821D821A861986AD
:1012B0001C861B8618861F82CE0101960E94271C61
:1012C0008091520790915307B6010E949D27AB0170
:1012D000770F660B770B198381E18A838DEB91E0A1
:1012E0009C838B831E821D821A8619861C861B8610
:1012F00018861F82CE0101960E94271C6AED862E59
:1013000061E0962E70EA472E7FE0572E612C712CFB
:10131000E8E1BE2EF6EECF2EF1E0DF2EC1010E94F5
:101320001317082F0E944608909351078093500787
:101330004AE06CE477E00E946F240E94460819831B
:101340001A839C828B82092E000CAA0BBB0B9C017A
:10135000AD0128513C4F4F4F5F4FA8EDB0E00E94C8
:101360001026A30192010E94F125BA01A901CE0124
:1013700001960E9489161983BA82DC82CB821E8272
:101380001D821A8619861C861B8618861F826CE4AD
:1013900077E0CE0101960E947E1C002309F4BECFA7
:1013A000AF89B88D24E630E00E94B1276B8F7C8F27
:1013B0008D8F9E8F412C512C320144E6842E912C2E
:1013C000A12CB12C1AA619A612E09701FF0C440B10
:1013D000550B29A33AA34BA35CA3CB88DC88ED88EB
:1013E000FE884C145D046E047F040CF038C10E942A
:1013F000C61460935A0770935B0780935C079093C1
:101400005D070E94751B80915A0790915B07A09120
:101410005C07B0915D0720915607309157074091C6
:101420005807509159076C017D01C21AD30AE40A8A
:10143000F50A28EEC21623E0D206E104F10468F2B0
:1014400020916307222309F40AC1809356079093E1
:101450005707A0935807B093590749A55AA54F5F5E
:101460005F4F5AA749A7EF88F88CE40EF51E198341
:101470008CE08A8382EC93E09C838B831E821D82A6
:101480001A8619861C861B8618861F82CA016CE381
:1014900070E00E949D276B01AC01990F660B770BE2
:1014A000CE0101960E94271C198380E18A83A5EC56
:1014B000B3E0BC83AB831E821D821A8619861C860C
:1014C0001B8618861F82C7016CE370E00E949D276F
:1014D0007B01AC01990F660B770BCE0101960E9440
:1014E000271C19838BE08A832BE733E03C832B8313
:1014F0001E821D821A8619861C861B8618861F82EC
:10150000A601DD0C660B770BCE0101960E94271C0D
:1015100019838FE08A8348EC53E05C834B831E82FF
:101520001D821A8619861C861B8618861F82A701B3
:10153000FF0C660B770BCE0101960E94271C1983C6
:1015400084E08A8380EC91E09C838B83C501B401A5
:101550002B893C894D895E890E94F125BA01A90138
:10156000CE0101960E948916198385E08A83AEEC2C
:10157000B1E0BC83AB836B8D7C8D8D8D9E8D680DB2
:10158000791D8A1D9B1D29A13AA14BA15CA10E9436
:10159000F125BA01A901CE0101960E9489160E9487
:1015A000460890935107809350074AE06CE477E037
:1015B0000E946F24809150079091510782199309DE
:1015C00097FF03C0919581959109853691055CF44B
:1015D00034E6830E911CA11CB11C4FEF441A540A2F
:1015E000640A740AFACE0E94460819831A832AED07
:1015F000C22E21E0D22EDC82CB82092E000CAA0B57
:10160000BB0B9C01AD0128513C4F4F4F5F4FA8EDE4
:10161000B0E00E94102620EA3FE040E050E00E9447
:10162000F125BA01A901CE0101960E9489161983FC
:1016300088E18A8336EEE32E31E0F32EFC82EB82E2
:101640001E821D821A8619861C861B8618861F829A
:101650006CE477E0CE0101960E947E1CB9CF0E9417
:101660003A08CE010D960E94961AAA960FB6F894E3
:10167000DEBF0FBECDBFDF91CF911F910F91FF90C5
:10168000EF90DF90CF90BF90AF909F908F907F9022
:101690006F905F904F903F902F9008950F931F93FE
:1016A0008BEC93E00E94831A81E080936307109291
:1016B0006507109264074091490750914A07052E2B
:1016C000000C660B770B00E010E09801809103019D
:1016D000909104010E94AC08109265071092640773
:1016E0000091490710914A07012E000C220B330B81
:1016F0004091470750914807052E000C660B770B69
:1017000080910101909102010E94AC08109265073E
:10171000109264070091490710914A07809147078A
:1017200090914807080F191F012E000C220B330B54
:101730004091450750914607052E000C660B770B2C
:1017400080EE9CEF0E94AC0810926507109264072F
:101750000091490710914A078091470790914807E7
:10176000080F191F8091450790914607080F191F10
:10177000012E000C220B330B40914307509144077C
:10178000052E000C660B770B8CE19CE00E94AC08E8
:1017900084E190E00E94D825BC016F5F7F4F84E117
:1017A00090E00E94EC254CED55E060E070E080EBAD
:1017B00094E00E94111860E083E00E940A1460E047
:1017C00082E00E940A1460E084E01F910F910C9463
:1017D0000A146F927F928F929F92AF92BF92CF9294
:1017E000DF92EF92FF920F931F93CF93DF93CDB7CA
:1017F000DEB762970FB6F894DEBF0FBECDBF81E0B3
:101800008093000161E087E00E940A1488E0A82E1E
:1018100099E0B92E28E7C22E23E0D22E0CE310E087
:101820003BE7E32E33E0F32E809154079091550768
:10183000181619060CF072C00E94C61460935A075D
:1018400070935B0780935C0790935D070E94751B04
:1018500080915A0790915B07A0915C07B0915D075A
:10186000409156075091570760915807709159075A
:101870003C014D01641A750A860A970A28EE621621
:1018800023E072068104910478F220910001222362
:1018900009F444C08093560790935707A0935807C4
:1018A000B0935907809154079091550701979093F1
:1018B000550780935407A982BA82DC82CB821E82AC
:1018C0001D821A8619861C861B8618861F82B801FF
:1018D0000E949D27AC01990F660B770BCE010196F4
:1018E0000E94271C8091540790915507B8010E94CF
:1018F0009D27AB01770F660B770BA982BA82FC821A
:10190000EB821E821D821A8619861C861B8618860B
:101910001F82CE0101960E94271C86CF8E010F5F89
:101920001F4F8AE0F80111928A95E9F76AE871E0A1
:10193000CE010D960E940E0E4AE0B80183E290E0BF
:101940000E947A2461EE73E0CE010D960E94DD0DB7
:1019500064EE73E0CE010D960E94DD0DB801CE015C
:101960000D960E94DD0D8D859E850E9465160E9454
:10197000EC1ACE010D960E94961A60E087E00E9454
:101980000A144CED55E060E070E080EB94E00E94BA
:1019900011180E94751B62960FB6F894DEBF0FBE39
:1019A000CDBFDF91CF911F910F91FF90EF90DF900E
:1019B000CF90BF90AF909F908F907F906F90089541
:1019C000CF92DF92EF92FF920F931F93CF93DF930B
:1019D0006C017A018B01C0E0D0E0CE15DF0581F00B
:1019E000D8016D918D01D601ED91FC910190F081AE
:1019F000E02DC6010995892B11F02196EECF7E01CD
:101A0000C701DF91CF911F910F91FF90EF90DF9071
:101A1000CF900895FC01538D448D252F30E0842F05
:101A200090E0821B930B541710F0CF960895019706
:101A30000895FC01918D828D981761F0828DDF01F0
:101A4000A80FB11D5D968C91928D9F5F9F73928FB1
:101A500090E008958FEF9FEF0895FC01918D828DA6
:101A6000981731F0828DE80FF11D858D90E0089573
:101A70008FEF9FEF08950E94B9290F931F93CF9383
:101A8000DF93EC0188819981009729F02A813B81BD
:101A90002617370788F48B016F5F7F4F0E94F3286A
:101AA000009761F0998388831B830A832C813D8191
:101AB000232B11F4FC01108281E001C080E0DF9152
:101AC000CF911F910F91089587EE94E00E941E130D
:101AD00021E0892B09F420E0822F0895EF92FF92F4
:101AE0000F931F93CF93DF93EC0181E0888F9B8D41
:101AF0008C8D981305C0E889F989808185FD26C001
:101B0000F62E0B8D10E00F5F1F4F0F731127E02E85
:101B10008C8DE8120CC00FB607FCFACFE889F98962
:101B2000808185FFF5CFCE010E94BF13F1CF8B8D51
:101B3000FE01E80FF11DE35AFF4FF0829FB7F894C2
:101B40000B8FEA89FB89808180620AC09FB7F89475
:101B5000EE89FF896083E889F989808183708064D8
:101B600080839FBF81E090E0DF91CF911F910F9123
:101B7000FF90EF900895CF93DF93EC01888D882339
:101B8000C9F0EA89FB89808185FD05C0A889B989EA
:101B90008C9186FD0FC00FB607FCF5CF808185FFC5
:101BA000F2CFA889B9898C9185FFEDCFCE010E9433
:101BB000BF13E7CFDF91CF910895EF92FF920F937C
:101BC0001F93CF93DF936115710511F480E01FC05F
:101BD000FB0101900020E9F73197E61BF70BB1F00C
:101BE0007B01EC010C811D810E0F1F1FB8010E94AB
:101BF0003D0D882359F3288139818C819D81B7015E
:101C0000820F931F0E94C7291D830C8381E0DF91FF
:101C1000CF911F910F91FF90EF900895EF92FF9257
:101C20000F931F93CF93DF93EC01198218821B82CD
:101C30001A821D821C826115710549F18B01FB011D
:101C400001900020E9F731977F01E61AF70AB70102
:101C50000E943D0D2881398181110DC0211531056A
:101C600019F0C9010E946A28198218821D821C82FB
:101C70001B821A820CC0FD82EC82B801C901DF917F
:101C8000CF911F910F91FF90EF900C94C729DF9196
:101C9000CF911F910F91FF90EF9008951F920F9297
:101CA0000FB60F9211242F933F934F935F936F932F
:101CB0007F938F939F93AF93BF93EF93FF93809105
:101CC000B2079091B307A091B407B091B507892BE3
:101CD0008A2B8B2B59F19091AF07E091B007F091CF
:101CE000B1078081892780838091B2079091B307E3
:101CF000A091B407B091B507181619061A061B066D
:101D00000CF03DC08091B2079091B307A091B40749
:101D1000B091B5070197A109B1098093B2079093DB
:101D2000B307A093B407B093B50729C080913901D8
:101D3000EEE5F1E0E4919FEF90933901E130B9F0E5
:101D400098F0E230C9F4909170009D7F90937000FC
:101D500091E09093B0009091B100987F946090933F
:101D6000B1001092B30008C010926E0005C09091AF
:101D70006F009D7F90936F0060E00E940A14FF91B6
:101D8000EF91BF91AF919F918F917F916F915F91F3
:101D90004F913F912F910F900FBE0F901F9018956C
:101DA0006115710579F0FB0101900020E9F7319789
:101DB000AF01461B570BDC01ED91FC910280F381D2
:101DC000E02D099480E090E008950C94D00E1F92CD
:101DD0000F920FB60F9211242F933F934F935F935F
:101DE0006F937F938F939F93AF93BF93EF93FF93E3
:101DF00087EE94E00E94BF13FF91EF91BF91AF91E6
:101E00009F918F917F916F915F914F913F912F9112
:101E10000F900FBE0F901F9018951F920F920FB644
:101E20000F9211242F938F939F93EF93FF93E09141
:101E3000F704F091F8048081E091FD04F091FE0434
:101E400082FD12C09081809100058F5F8F73209179
:101E50000105821751F0E0910005F0E0E951FB4FD8
:101E6000958F8093000501C08081FF91EF919F9134
:101E70008F912F910F900FBE0F901F90189585E0B6
:101E800094E00E94831A0C9470087F928F929F9224
:101E9000AF92BF92CF92DF92EF92FF920F931F9378
:101EA000CF93DF93CDB7DEB72C970FB6F894DEBF94
:101EB0000FBECDBF8BE194E00E94831A19E0198315
:101EC00086E08A838BE793E09C838B831E821D824E
:101ED0001A8619861C861B8618861F8240E050E0F1
:101EE000BA01CE0101960E94271C198387E08A83DC
:101EF00082EC93E09C838B831E821D821A86198656
:101F00001C861B8618861F8240E050E0BA01CE0175
:101F100001960E94271C109262071092650710928A
:101F200064078CE0782E91E3C92E94E0D92E02E06C
:101F30002EE3E22E24E0F22E30EA832E3FE0932EB1
:101F4000A12CB12C80916207811144C080910301C2
:101F5000909104010E941317809362070E94460823
:101F600090935107809350074AE06CE477E00E9419
:101F70006F2419837A82DC82CB821E821D821A86AC
:101F800019861C861B8618861F826CE477E0CE01BA
:101F900001960E947E1C0E94460819830A83FC82D7
:101FA000EB82092E000CAA0BBB0B9C01AD01285142
:101FB0003C4F4F4F5F4FA8EDB0E00E941026A501A7
:101FC00094010E94F125BA01A901CE0101960E9457
:101FD0008916B8CF89E089838EE08A8381E394E013
:101FE0009C838B831E821D821A8619861C861B8603
:101FF00018861F826CE477E0CE0101960E947E1C59
:102000002C960FB6F894DEBF0FBECDBFDF91CF91F7
:102010001F910F91FF90EF90DF90CF90BF90AF9006
:102020009F908F907F9008956F927F928F929F9252
:10203000AF92BF92CF92DF92EF92FF920F931F93D6
:10204000CF93DF93CDB7DEB72C970FB6F894DEBFF2
:102050000FBECDBF8AE494E00E94831A19E0198371
:1020600086E08A838BE793E09C838B831E821D82AC
:102070001A8619861C861B8618861F8240E050E04F
:10208000BA01CE0101960E94271C198387E08A833A
:1020900082EC93E09C838B831E821D821A861986B4
:1020A0001C861B8618861F8240E050E0BA01CE01D4
:1020B00001960E94271C10926507109264078CE01D
:1020C000682E91E3C92E94E0D92E22E0722E3EE3D1
:1020D000E32E34E0F32E40EA842E4FE0942EA12C20
:1020E000B12C80910101909102010E941317082FD9
:1020F0000E94460890935107809350074AE06CE491
:1021000077E00E946F2419836A82DC82CB821E8270
:102110001D821A8619861C861B8618861F826CE40F
:1021200077E0CE0101960E947E1C0E94460819832A
:102130007A82FC82EB82092E000CAA0BBB0B9C015D
:10214000AD0128513C4F4F4F5F4FA8EDB0E00E94CA
:102150001026A50194010E94F125BA01A901CE0122
:1021600001960E948916002309F4BBCF89E0898378
:102170008EE08A8381E394E09C838B831E821D82A0
:102180001A8619861C861B8618861F826CE477E0E7
:10219000CE0101960E947E1C2C960FB6F894DEBFED
:1021A0000FBECDBFDF91CF911F910F91FF90EF90A8
:1021B000DF90CF90BF90AF909F908F907F906F9067
:1021C00008951F93CF93DF93CDB7DEB72C970FB64B
:1021D000F894DEBF0FBECDBF82E694E00E94831A62
:1021E0000E944A020E94460890935107809350072C
:1021F0004AE06CE477E00E946F2480EE9CEF9093BD
:102200000401809303018CE19CE090930201809390
:1022100001010E9446089C0119E0198382E08A832B
:102220008EE394E09C838B83C901330FAA0BBB0B15
:102230009C01AD0128513C4F4F4F5F4FA8EDB0E0DE
:102240000E94102620EA3FE040E050E00E94F12585
:10225000BA01A901CE0101960E94891619838CE06A
:102260008A8381E394E09C838B831E821D821A867D
:1022700019861C861B8618861F826CE477E0CE01C7
:1022800001960E947E1C2C960FB6F894DEBF0FBEFE
:10229000CDBFDF91CF911F910895EF92FF921F93D1
:1022A000CF93DF93CDB7DEB72C970FB6F894DEBF90
:1022B0000FBECDBF80915207909153072CE3E22EC1
:1022C000F12CB7010E949D27AC01990F660B770B8B
:1022D00012E0198382E18A838AEB91E09C838B83ED
:1022E0001E821D821A8619861C861B8618861F82EE
:1022F000CE0101960E94271C8091520790915307AE
:10230000B7010E949D27AB01770F660B770B1983EE
:1023100081E18A838DEB91E09C838B831E821D82F9
:102320001A8619861C861B8618861F82CE01019686
:102330000E94271C198384E08A8380EC91E09C83AF
:102340008B8340E050E0BA01CE0101960E948916CD
:10235000198385E08A838EEC91E09C838B8340E037
:1023600050E0BA01CE0101960E9489160E944608EB
:1023700090935107809350074AE06CE477E00E9405
:102380006F240E9446089C0119831A838AED91E00C
:102390009C838B83C901330FAA0BBB0B9C01AD013E
:1023A00028513C4F4F4F5F4FA8EDB0E00E941026E0
:1023B00020EA3FE040E050E00E94F125BA01A90187
:1023C000CE0101960E948916198388E18A8386EEE0
:1023D00091E09C838B831E821D821A8619861C863F
:1023E0001B8618861F826CE477E0CE0101960E945E
:1023F0007E1C2C960FB6F894DEBF0FBECDBFDF91CA
:10240000CF911F91FF90EF9008959F92AF92BF924E
:10241000CF92DF92EF92FF920F931F93CF93DF93B0
:10242000CDB7DEB72C970FB6F894DEBF0FBECDBF89
:1024300087E794E00E94831A0E944A0284EB90E0AE
:1024400090934A07809349079093480780934707E2
:1024500088E790E0909346078093450780EF90E0EF
:10246000909344078093430780ED92E09093530745
:102470008093520712E0198382E1982E9A829AEB98
:10248000A92E91E0B92EBC82AB821E821D821A86D3
:1024900019861C861B8618861F8240E050E0BA0110
:1024A000CE0101960E94271C8091520790915307FC
:1024B0002CE3E22EF12CB7010E949D27AB01770F90
:1024C000660B770B198301E10A833DEBC32E31E0E4
:1024D000D32EDC82CB821E821D821A8619861C8630
:1024E0001B8618861F82CE0101960E94271C198325
:1024F00084E08A8380EC91E09C838B8340E050E011
:10250000BA01CE0101960E948916198385E08A835B
:102510008EEC91E09C838B8340E050E0BA01CE01C9
:1025200001960E9489160E94460890935107809355
:1025300050074AE06CE477E00E946F24198388E139
:102540008A8386EE91E09C838B831E821D821A868D
:1025500019861C861B8618861F826CE477E0CE01E4
:1025600001960E947E1C0E9446089C0119831A83D2
:102570008AED91E09C838B83C901330FAA0BBB0BBF
:102580009C01AD0128513C4F4F4F5F4FA8EDB0E08B
:102590000E94102620EA3FE040E050E00E94F12532
:1025A000BA01A901CE0101960E94891680915207B5
:1025B00090915307B7010E949D27AC01990F660BBC
:1025C000770B19839A82BC82AB821E821D821A8687
:1025D00019861C861B8618861F82CE0101960E94D2
:1025E000271C8091520790915307B7010E949D27A5
:1025F000AB01770F660B770B19830A83DC82CB82E2
:102600001E821D821A8619861C861B8618861F82CA
:10261000CE0101960E94271C2C960FB6F894DEBFBF
:102620000FBECDBFDF91CF911F910F91FF90EF9023
:10263000DF90CF90BF90AF909F900895FC01918D57
:10264000228D892F90E0805C9F4F821B91098F73B0
:102650009927089580E090E0892B29F00E94640D6D
:1026600081110C94000008953FB7F8948091AB0756
:102670009091AC07A091AD07B091AE0726B5A89B8D
:1026800005C02F3F19F00196A11DB11D3FBFBA2F04
:10269000A92F982F8827820F911DA11DB11DBC0164
:1026A000CD0142E0660F771F881F991F4A95D1F729
:1026B000089520916007309161072817390781F448
:1026C00090915E0780915F07981751F0E0915E0747
:1026D000F0E0EA59F84F8081082E000C990B08951C
:1026E0008FEF9FEF089520916007309161072817C1
:1026F000390739F48FB7F89410925F0710925E078C
:102700008FBF08952091600730916107281739071E
:1027100071F480915F0720915E0790E0805C9F4F8D
:10272000821B910960E470E00E949D27089580E07B
:1027300090E00895209160073091610728173907CC
:10274000B9F490915E0780915F07981789F0E09146
:102750005E07F0E0EA59F84F808120915E0730E093
:102760002F5F3F4F2F73332720935E0790E008952C
:102770008FEF9FEF0895089580E090E00895FC01A9
:10278000848DDF01A80FB11DA35ABF4F2C91848DFA
:1027900090E001968F739927848FA689B7892C932F
:1027A000A089B1898C91837080648C93938D848D82
:1027B000981306C00288F389E02D80818F7D808385
:1027C0000895833081F028F4813099F08230A1F0AF
:1027D00008958730A9F08830B9F08430D1F4809121
:1027E00080008F7D03C0809180008F778093800070
:1027F000089584B58F7702C084B58F7D84BD089518
:102800008091B0008F7703C08091B0008F7D80935E
:10281000B00008951F93CF93DF93282F30E0F90184
:10282000E65BFE4F8491F901E057FF4FD491F90127
:10283000E458FF4FC491CC23C1F0162F81110E94A0
:10284000E113EC2FF0E0EE0FFF1FEE58FF4FA591C4
:10285000B4919FB7F894111104C08C91D095D823EE
:1028600002C0EC91DE2BDC939FBFDF91CF911F91D3
:102870000895CF93DF9390E0FC01E057FF4F249140
:10288000FC01E458FF4F8491882361F190E0880FA8
:10289000991FFC01E05CFE4FC591D491FC01EE58FC
:1028A000FF4FA591B491611109C09FB7F894888139
:1028B000209582238883EC912E230BC0623061F433
:1028C0009FB7F8948881322F309583238883EC91C9
:1028D0002E2B2C939FBF06C08FB7F894E8812E2B28
:1028E00028838FBFDF91CF9108958E3008F08E50EE
:1028F0008770806480937C0080917A0080648093EC
:102900007A0080917A0086FDFCCF8091780020913A
:10291000790090E0922B08958F929F92AF92BF9290
:10292000CF92DF92EF92FF926B017C010E943413F1
:102930004B015C01C114D104E104F104F1F00E94E7
:102940003413DC01CB0188199909AA09BB09883E17
:102950009340A105B10570F321E0C21AD108E10846
:10296000F10888EE880E83E0981EA11CB11CC114EA
:10297000D104E104F10419F7DDCFFF90EF90DF906F
:10298000CF90BF90AF909F908F9008952FB7F894FD
:102990006091A7077091A8078091A9079091AA0755
:1029A0002FBF08951F920F920FB60F9211242F93ED
:1029B0003F938F939F93AF93BF938091A70790917D
:1029C000A807A091A907B091AA073091A60723E014
:1029D000230F2D3720F40196A11DB11D05C026E857
:1029E000230F0296A11DB11D2093A6078093A70770
:1029F0009093A807A093A907B093AA078091AB076B
:102A00009091AC07A091AD07B091AE070196A11DC2
:102A1000B11D8093AB079093AC07A093AD07B09323
:102A2000AE07BF91AF919F918F913F912F910F90E2
:102A30000FBE0F901F90189520E001972FEF8F3F4A
:102A40009207D9F70895DF92EF92FF920F931F93A9
:102A5000CF93DF93EC01298D3A8D2115310529F4AF
:102A600081E090E09B838A835AC0162FDFB6F894EA
:102A70008B8D81FD4DC0CE010E94261B898D9A8DC4
:102A800005960E941C158B8D98E0E92EF12C01E033
:102A900081FF1AC0812F802321F0CE010E94261BC6
:102AA00006C0E989FA8990818889892B8083898D7C
:102AB0009A8D0E941C15000F81E0E81AF10851F769
:102AC000CE010E94261B1CC0812F802339F0E9898A
:102AD000FA8990818889892B808303C0CE010E9466
:102AE000261B898D9A8D0E941C15000F81E0E81A23
:102AF000F10851F7E989FA8990818889892B8083C7
:102B0000DFBE898D9A8D0E941C1521E030E007C040
:102B1000E989FA8990818889892B8083AFCFC9019F
:102B2000DF91CF911F910F91FF90EF90DF9008956B
:102B30001F920F920FB60F921124EF92FF920F93F4
:102B40001F932F933F934F935F936F937F938F9335
:102B50009F93AF93BF93CF93DF93EF93FF93C09176
:102B60006007D0916107209709F450C09B8DEE85D6
:102B7000FF858D8591FF04C09081892329F446C08B
:102B80009081892309F042C08B899C890E941C1581
:102B900088E0E82EF12C10E001E08D899E890E94EA
:102BA0001C15EE85FF8590818D85892311F0102BF2
:102BB00003C0802F80951823000F81E0E81AF108E8
:102BC00061F78F89988D0E941C158B8D81FD109562
:102BD00080915F0720915E0790E001968F7399279F
:102BE00030E08217930779F0E0915F07F0E0EA594F
:102BF000F84F108380915F0790E001968F739927BB
:102C000080935F0703C08B8D81608B8FFF91EF9165
:102C1000DF91CF91BF91AF919F918F917F916F91F4
:102C20005F914F913F912F911F910F91FF90EF90E6
:102C30000F900FBE0F901F9018951F920F920FB616
:102C40000F9211242F933F934F935F936F937F9332
:102C50008F939F93AF93BF93EF93FF930E94981529
:102C6000FF91EF91BF91AF919F918F917F916F9164
:102C70005F914F913F912F910F900FBE0F901F903A
:102C800018951F920F920FB60F9211242F933F9316
:102C90004F935F936F937F938F939F93AF93BF9364
:102CA000EF93FF930E949815FF91EF91BF91AF9121
:102CB0009F918F917F916F915F914F913F912F9154
:102CC0000F900FBE0F901F901895CF93DF93EC01DC
:102CD00086E895E00E948213892B29F086E895E02A
:102CE0000E949A13F5CFBE0186E895E00E94E50E9A
:102CF0006FEF86E895E00E9423156FEF86E895E078
:102D00000E9423156FEF86E895E0DF91CF910C9438
:102D100023158F929F92AF92BF92EF92FF920F93E3
:102D20001F93CF93DF93CDB7DEB760970FB6F894BC
:102D3000DEBF0FBECDBF7C014A015B018E010F5F7C
:102D40001F4F8AE0F80111928A95E9F76AE871E06D
:102D5000CE010B960E940E0E4AE0B801C4010E94FB
:102D60007A24F70162817381CE010B960E94DD0DFA
:102D70006BE874E0CE010B960E94DD0DB801CE0128
:102D80000B960E94DD0D8B859C850E9465160E9426
:102D9000EC1A182FCE010B960E94961A812F60967E
:102DA0000FB6F894DEBF0FBECDBFDF91CF911F915C
:102DB0000F91FF90EF90BF90AF909F908F900895EC
:102DC0000F931F93CF93DF9300D000D000D0CDB7E7
:102DD000DEB7FC010281138101151105B9F061E92B
:102DE00074E0CE0101960E940E0EB801CE0101964C
:102DF0000E94DD0D89819A810E9465160E94EC1A5D
:102E0000182FCE0101960E94961A01C010E0812F62
:102E100026960FB6F894DEBF0FBECDBFDF91CF91DF
:102E20001F910F910895CF92DF92EF92FF920F932F
:102E30001F93CF93DF936C010E9446080D2C000C6A
:102E4000EE08FF0808EEC00E03E0D01EE11CF11CE6
:102E5000092E000CAA0BBB0B88519C4FAF4FBF4FE4
:102E6000EC010E94C6146093A6057093A705809399
:102E7000A8059093A905960122533109C217D307DB
:102E80000CF040C0009164071091650706301105F1
:102E9000CCF561E084E00E940A1461E083E00E94C6
:102EA0000A1460E082E00E940A148091A6059091C5
:102EB000A705A091A805B091A9054091A205509140
:102EC000A3056091A4057091A5056C017D01C41A4C
:102ED000D50AE60AF70A28EEC21623E0D206E10474
:102EE000F10408F456C08093A2059093A305A09323
:102EF000A405B093A5050F5F1F4F109365070093BE
:102F0000640747C082E3C80ED11CCC16DD060CF066
:102F100042C0E0906407F090650706E0E016F10417
:102F2000D4F561E084E00E940A1460E083E00E942E
:102F30000A1461E082E00E940A148091A605909133
:102F4000A705A091A805B091A9054091A2055091AF
:102F5000A3056091A4057091A5058C019D01041B3A
:102F6000150B260B370BB901A801483E53406105EC
:102F7000710578F08093A2059093A305A093A40512
:102F8000B093A5052FEFE21AF20AF0926507E092DE
:102F9000640780E03DC081E090E02C173D0714F00D
:102FA00080E090E08C159D0534F08091640790914D
:102FB000650706972CF160E084E00E940A1460E047
:102FC00082E00E940A1460E083E00E940A1480916B
:102FD0006407909165070697D4F0109265071092E8
:102FE0006407109263078AEA95E00E94E0164CEDB0
:102FF00055E060E070E080EB94E00E94111807C09B
:1030000061E070E080E090E00E948C1401C081E0FB
:10301000DF91CF911F910F91FF90EF90DF90CF90B4
:1030200008954F925F926F927F928F929F92AF928C
:10303000BF92CF92DF92EF92FF920F931F93CF93A5
:10304000DF9300D000D01F92CDB7DEB78C012A01EC
:103050003B0180913901853021F08F3F09F03DC25D
:1030600005C0EEE5F1E024912D8372C085E08093E8
:103070003901EEE5F1E084918D838F3F09F42DC293
:10308000813009F441C038F1823009F061C01092FA
:10309000B0001092B1008091B00082608093B000C7
:1030A0008091B10081608093B100E1E8F0E0E491AB
:1030B000F0E0EE0FFF1FEE58FF4F85919491909333
:1030C000B1078093B007E5E9F0E0E491E093AF0742
:1030D00022E02D83FDC114BC15BC84B5826084BD83
:1030E00085B5816085BDE1E8F0E0E491F0E0EE0FA8
:1030F000FF1FEE58FF4F85919491E5E9F0E0E491D0
:10310000E093C1071D82E4C11092800010928100FB
:10311000809181008860809381008091810081602E
:1031200080938100E1E8F0E0E491F0E0EE0FFF1F12
:10313000EE58FF4F85919491E5E9F0E0E491E0933A
:10314000C00761E085E00E94391491E09D838AC048
:103150008D8187FDC2C161E085E00E9439148D81B7
:103160008D7F09F07FC04801A12CB12C60E072E195
:103170008AE790E0A50194010E94F12529833A8312
:103180004B835C8369017A0191E0C91AD108E10897
:10319000F1082FEFC216D104E104F10409F008F49C
:1031A0004EC060E472E48FE090E0A50194010E94BB
:1031B000F12569017A0181E0C81AD108E108F10816
:1031C0009D81923009F52FEFC216D104E104F1047C
:1031D00009F008F444C160E970ED83E090E0A501D6
:1031E00094010E94F12569017A0181E0C81AD10891
:1031F000E108F1089FEFC916D104E104F10411F0D0
:1032000008F0BAC083E027C02FEFC216D104E10452
:10321000F104B9F0B0F068E478EE81E090E0A50147
:1032200094010E94F12569017A0181E0C81AD10850
:10323000E108F1089D81992309F413C1DCC081E004
:1032400001C082E09D81911106C095B5987F892BC0
:1032500085BD44C085E09091B100987F892B809313
:10326000B1003CC04801A12CB12C60E072E18AE7BA
:1032700090E0A50194010E94F12569017A0181E0A5
:10328000C81AD108E108F108C114D10491E0E90697
:10329000F10488F068E478EE81E090E0A501940103
:1032A0000E94F12569017A0181E0C81AD108E1087C
:1032B000F10883E001C081E09D81913079F4909123
:1032C0008100987F892B809381004114510461040F
:1032D000710449F42FEF3FEFA9012CC041145104B0
:1032E0006104710471F0D801AA0FBB1FA301920100
:1032F0000E94102628EE33E040E050E00E94522663
:1033000003C02FEF3FEFA9018D81813099F082300A
:1033100019F18111E2C0C7BC2093C6073093C707DB
:103320004093C8075093C90780916E0082608093D4
:103330006E00D3C0D0928900C09288002093C2074B
:103340003093C3074093C4075093C50780916F0023
:10335000826080936F00C1C0C092B3002093B20717
:103360003093B3074093B4075093B5078091700032
:10337000826080937000B1C068E478EE81E090E0F4
:10338000A50194010E94F12569017A0191E0C91A11
:10339000D108E108F1082FEFC216D104E104F104CD
:1033A00041F138F164E274EF80E090E0A50194010E
:1033B0000E94F12569017A0181E0C81AD108E1086B
:1033C000F1089FEFC916D104E104F10409F008F4F3
:1033D00041CF62E17AE780E090E0A50194010E948C
:1033E000F12569017A0181E0C81AD108E108F108E4
:1033F00019C084E030CF2FEFC216D104E104F104EC
:1034000009F008F463C062E17AE780E090E0A5018A
:1034100094010E94F12569017A0191E0C91AD1084D
:10342000E108F1088FEFC816D104E104F104A9F016
:10343000A0F089819A81AB81BC812AE0B595A795DE
:10344000979587952A95D1F76C017D0121E0C21AE5
:10345000D108E108F10887E0FECE86E0FCCE82E0EC
:10346000FACE8FEFC816D104E104F10469F160F1DE
:1034700062E17AE780E090E0A50194010E94F125E5
:1034800069017A0191E0C91AD108E108F1082FEF2A
:10349000C216D104E104F104A9F0A0F089819A8157
:1034A000AB81BC813AE0B595A795979587953A95FC
:1034B000D1F76C017D0121E0C21AD108E108F108C1
:1034C00085E0C3CE84E0C1CE83E0BFCE84E0BACE37
:1034D00061E085E00E94391446CE0F900F900F9066
:1034E0000F900F90DF91CF911F910F91FF90EF9070
:1034F000DF90CF90BF90AF909F908F907F906F9014
:103500005F904F900895CF93DF93BC0187EE94E0D6
:103510000E94D00EEC0168E871E087EE94E00E9412
:10352000D00E8C0F9D1FDF91CF910895FC018081FB
:1035300091810C946A288F929F92AF92BF92EF92E2
:10354000FF920F931F93CF93DF938B017C01C0E019
:10355000D0E0C017D107A1F10E94C61460938E0578
:1035600070938F05809390059093910586E895E080
:103570000E949A1397FF1FC00E94C61480908E0568
:1035800090908F05A0909005B0909105DC01CB0143
:1035900088199909AA09BB0980908A0590908B0522
:1035A000A0908C05B0908D0588159905AA05BB05DE
:1035B000E8F28E0105C0F70181937F012196C9CF02
:1035C000C801DF91CF911F910F91FF90EF90BF90B5
:1035D000AF909F908F900895CF93DF9300D000D04D
:1035E000CDB7DEB719821A821B821C8284E690E076
:1035F000A0E0B0E080938A0590938B05A0938C05A2
:10360000B0938D0564E070E0CE0101960E949B1A94
:103610008981813079F48A818F3F61F48B818F3F7A
:1036200049F48C818F3F31F487E994E00E94831A3A
:1036300081E005C081EB94E00E94831A80E00F9046
:103640000F900F900F90DF91CF910895DC0151966C
:10365000ED91FC915297908150968C9180958923A1
:10366000808308958F929F92AF92BF920F931F9382
:10367000CF93DF93CDB7DEB7A1970FB6F894DEBF37
:103680000FBECDBF19A2423008F44AE08E010F5D93
:103690001F4F842E912CA12CB12CA50194010E94C6
:1036A0005226E62FB901CA0101501109EA3014F47B
:1036B000E05D01C0E95CD801EC93232B242B252B82
:1036C00061F7B80187EE94E00E94D00EA1960FB684
:1036D000F894DEBF0FBECDBFDF91CF911F910F9148
:1036E000BF90AF909F908F900895CF92DF92EF920E
:1036F000FF92CF93DF9386E895E00E94821318161D
:1037000019060CF09DC06AE070E080E090E00E9435
:103710008C1486E895E00E949A13C82F853659F7D5
:1037200086E895E00E94821306972CF3C093B607B3
:10373000C7EBD7E086E895E00E949A13899387E06B
:10374000CD3BD807B9F71092BD078091BA078F3FDC
:1037500091F68091BB078F3F71F68091BC078F3F38
:1037600051F6C090B907D12CE12CF12C9091B807FB
:103770002091B707E5E0F1E0C191D191209709F4DC
:10378000BACF88812813F8CF89819813F5CF65EDDA
:1037900074E087EE94E00E94E50E4AE0BE010D2E33
:1037A000000C880B990B0E94321B64E772E087EED5
:1037B00094E00E94E50E688170E080E090E04AE0CD
:1037C0000E94321B67ED74E087EE94E00E94E50EE4
:1037D000698170E080E090E04AE00E94321B67ED72
:1037E00074E087EE94E00E94E50E6A817B816115AA
:1037F000710511F46CEC74E087EE94E00E94E50E24
:1038000083ED94E00E94831A81E0C816D104E1049C
:10381000F10441F4EC81FD81309709F46CCF8E8185
:103820009F810CC0CD28CE28CF2809F064CFE88531
:10383000F985309709F45FCF8A859B8509955BCF21
:10384000DF91CF91FF90EF90DF90CF9008958F920E
:103850009F92AF92BF92EF92FF920F931F93CF93DD
:10386000DF93CDB7DEB760970FB6F894DEBF0FBE1B
:10387000CDBF7C014A015B018E010F5F1F4F8AE0C3
:10388000F80111928A95E9F76AE871E0CE010B968A
:103890000E940E0E4AE0B801C4010E947A24F7018A
:1038A00062817381CE010B960E94DD0D6BE874E09E
:1038B000CE010B960E94DD0DB801CE010B960E9441
:1038C000DD0D8B859C850E9465160E94EC1A182FD1
:1038D000CE010B960E94961A812F60960FB6F8942F
:1038E000DEBF0FBECDBFDF91CF911F910F91FF9033
:1038F000EF90BF90AF909F908F900895EF92FF92BE
:103900000F931F93CF93DF9300D000D000D0CDB79B
:10391000DEB77C018B016AE871E0CE0101960E945E
:103920000E0EF70162817381CE0101960E94DD0DBA
:1039300069ED74E0CE0101960E94DD0DB801CE0163
:1039400001960E94DD0D6EED74E0CE0101960E949D
:10395000DD0D89819A810E9465160E94EC1A182F4C
:10396000CE0101960E94961A812F26960FB6F894E2
:10397000DEBF0FBECDBFDF91CF911F910F91FF90A2
:10398000EF9008950F931F93CF93DF931092EA0463
:103990001092E90488EE93E0A0E0B0E08093EB049D
:1039A0009093EC04A093ED04B093EE0424E431E092
:1039B0003093E8042093E70425EC30E03093F404DE
:1039C0002093F30424EC30E03093F6042093F504C4
:1039D00020EC30E03093F8042093F70421EC30E041
:1039E0003093FA042093F90422EC30E03093FC0485
:1039F0002093FB0426EC30E03093FE042093FD047A
:103A00001092000510920105109202051092030514
:103A100024E630E0309385052093840510928905D3
:103A20001092880580938A0590938B05A0938C054E
:103A3000B0938D0586E591E0909387058093860588
:103A400010929A051092990510929C0510929B0570
:103A500010929E0510929D051092A00510929F0550
:103A60008091A1058E7F8D7F8093A10561E08AE022
:103A70000E94391461E08AE00E940A14EAE9F0E049
:103A8000E491E0939605E6E8F0E0E491F0E0EE0FD3
:103A9000FF1FEE58FF4F8591949190939805809366
:103AA000970560E089E00E9439148091A10581FDAD
:103AB00004C061E089E00E940A1439E03093920565
:103AC000E9E9F0E0E491E0939305E5E8F0E0E491C2
:103AD000F0E0EE0FFF1FE859FF4F8591949190930E
:103AE00095058093940591E09093FA0683E0809386
:103AF000FB0648E852E05093FD064093FC06109206
:103B0000FF061092FE061092030710920207109211
:103B10000507109204071092010710920007909376
:103B2000EE0674E07093EF064DE852E05093F10614
:103B30004093F0061092F3061092F2061092F706E8
:103B40001092F6061092F9061092F8061092F506F9
:103B50001092F4069093E206E5E0E093E30642E972
:103B600052E05093E5064093E4061092E706109267
:103B7000E6061092EB061092EA061092ED061092FD
:103B8000EC061092E9061092E8069093D60656E0ED
:103B90005093D706ABE9B2E0B093D906A093D8060C
:103BA0001092DB061092DA061092DF061092DE0603
:103BB0001092E1061092E0061092DD061092DC06EB
:103BC0009093CA0667E06093CB06A7EAB2E0B09391
:103BD000CD06A093CC061092CF061092CE0610927E
:103BE000D3061092D2061092D5061092D4061092E7
:103BF000D1061092D0069093BE0648E04093BF06CF
:103C0000AEEAB2E0B093C106A093C0061092C3061C
:103C10001092C2061092C7061092C6061092C906EC
:103C20001092C8061092C5061092C4069093B20670
:103C30003093B306A7EBB2E0B093B506A093B406F9
:103C40001092B7061092B6061092BB061092BA06F2
:103C50001092BD061092BC061092B9061092B806DA
:103C60009093360722E020933707B0933907A0934B
:103C7000380710923B0710923A0710923F071092B4
:103C80003E07109241071092400710923D07109294
:103C90003C072093A606F2E1F093A706CFE2D3E01B
:103CA000D093A906C093A8061092AB061092AA065C
:103CB0001092AF061092AE061092B1061092B006A6
:103CC0001092AD061092AC0620939A06F3E1F093A1
:103CD0009B06CDEBD2E0D0939D06C0939C0610923C
:103CE0009F0610929E061092A3061092A2061092B2
:103CF000A5061092A4061092A1061092A006209389
:103D00008E0680938F06CEE3D3E0D0939106C093C6
:103D100090061092930610929206109297061092B7
:103D20009606109299061092980610929506109297
:103D3000940620938206FAE1F093830602EC12E0E7
:103D400010938506009384061092870610928606CB
:103D500010928B0610928A0610928D0610928C0695
:103D60001092890610928806FFE0F0932A071092BD
:103D70002B070CEC12E010932D0700932C071092E8
:103D80002F0710922E0710923307109232071092CD
:103D90003507109234071092310710923007F093D4
:103DA00076062093770605ED12E0109379060093CE
:103DB000780610927B0610927A0610927F06109277
:103DC0007E06109281061092800610927D06109257
:103DD0007C0630936A0680936B06D0936D06C09381
:103DE0006C0610926F0610926E0610927306109277
:103DF0007206109275061092740610927106109257
:103E0000700630935E0640935F06C8EDD2E0D09313
:103E10006106C093600610926306109262061092CB
:103E20006706109266061092690610926806109254
:103E30006506109264063093520630935306CFED18
:103E4000D2E0D0935506C0935406109257061092B4
:103E5000560610925B0610925A0610925D0610925A
:103E60005C06109259061092580630934606FEE002
:103E7000F0934706C8EED2E0D0934906C0934806B7
:103E800010924B0610924A0610924F0610924E0660
:103E9000109251061092500610924D0610924C0648
:103EA00030931E073DE030931F07C3EFD2E0D0935D
:103EB0002107C09320071092230710922207109227
:103EC00027071092260710922907109228071092B0
:103ED00025071092240780933A0620933B06CDEFE6
:103EE000D2E0D0933D06C0933C0610923F0610925C
:103EF0003E0610924306109242061092450610921A
:103F00004406109241061092400680932E0680933C
:103F10002F06C7E0D3E0D0933106C093300610924D
:103F2000330610923206109237061092360610921F
:103F30003906109238061092350610923406809396
:103F4000220670932306C0E1D3E0D0932506C093E8
:103F50002406109227061092260610922B06109225
:103F60002A0610922D0610922C0610922906109205
:103F7000280680931606E0931706CCE1D3E0D09391
:103F80001906C093180610921B0610921A0610927A
:103F90001F0610921E061092210610922006109203
:103FA0001D0610921C068093120750931307B093BE
:103FB0001507A09314071092170710921607109276
:103FC0001B0710921A0710921D0710921C071092DF
:103FD00019071092180760930607FBE0F093070794
:103FE000A2E2B3E0B0930907A093080710920B0771
:103FF00010920A0710920F0710920E0710921107E5
:104000001092100710920D0710920C0760930A0689
:1040100080930B06A6E2B3E0B0930D06A0930C06C6
:1040200010920F0610920E061092130610921206AE
:104030001092150610921406109211061092100696
:104040006093FE052093FF05A5E3B3E0B09301065E
:10405000A093000610920306109202061092070623
:104060001092060610920906109208061092050694
:10407000109204064093F2055093F305A3E4B3E0D5
:10408000B093F505A093F4051092F7051092F6058C
:104090001092FB051092FA051092FD051092FC0596
:1040A0001092F9051092F8054093E605E093E705B4
:1040B000EAE4F3E0F093E905E093E8051092EB05FC
:1040C0001092EA051092EF051092EE051092F1059C
:1040D0001092F0051092ED051092EC054093DA0570
:1040E0008093DB05E2E5F3E0F093DD05E093DC058A
:1040F0001092DF051092DE051092E3051092E205A2
:104100001092E5051092E4051092E1051092E00589
:104110004093CE057093CF056AE573E07093D105A7
:104120006093D0051092D3051092D2051092D70556
:104130001092D6051092D9051092D8051092D50587
:104140001092D4054093C2052093C30561E673E045
:104150007093C5056093C4051092C7051092C605FB
:104160001092CB051092CA051092CD051092CC0585
:104170001092C9051092C8055093B6059093B705E3
:1041800088E693E09093B9058093B8051092BB053B
:104190001092BA051092BF051092BE051092C1058B
:1041A0001092C0051092BD051092BC053093AA056F
:1041B0001092AB058BE693E09093AD058093AC0530
:1041C0001092AF051092AE051092B3051092B20591
:1041D0001092B5051092B4051092B1051092B00579
:1041E0000E94C6146093A6057093A7058093A80546
:1041F0009093A9050E94C6146093A2057093A3052D
:104200008093A4059093A505DF91CF911F910F9105
:104210000895789484B5826084BD84B5816084BD3E
:1042200085B5826085BD85B5816085BD80916E0054
:10423000816080936E001092810080918100826085
:1042400080938100809181008160809381008091C2
:1042500080008160809380008091B10084608093B1
:10426000B1008091B00081608093B00080917A00AD
:10427000846080937A0080917A00826080937A00D3
:1042800080917A00816080937A0080917A008068C2
:1042900080937A001092C10044EF51E060E070E03A
:1042A00080EB94E00E9411180E94A70161E083E076
:1042B0000E94391461E082E00E94391461E086E0D6
:1042C0000E94391461E084E00E94391461E087E0C3
:1042D0000E94391461E085E00E94391460E08EE0AC
:1042E0000E94391460E08FE00E94391460E081E19F
:1042F0000E94391460E082E10E94391460E083E09A
:104300000E940A1460E082E00E940A1460E086E0E5
:104310000E940A1460E084E00E940A1460E087E0D2
:104320000E940A14E091F704F091F80482E080837F
:10433000E091F304F091F4041082E091F504F0911F
:10434000F6048FEC80831092FF04E091FB04F0915F
:10435000FC0486E08083E091F904F091FA04808106
:1043600080618083E091F904F091FA048081886093
:104370008083E091F904F091FA0480818068808361
:10438000E091F904F091FA0480818F7D808310928E
:10439000A00510929F0510929E0510929D05109207
:1043A0009C0510929B0510929A051092990584EA3B
:1043B00090E020E030E0FC014591559165917491C9
:1043C000403855426105710559F54CE0429FC001E6
:1043D000439F900D1124FC01E855FF4F2591349126
:1043E00030939A0520939905FC01E655FF4F2591DE
:1043F000349130939C0520939B05FC01E455FF4FBD
:104400002591349130939E0520939D05FC01E25542
:10441000FF4F859194919093A00580939F0507C0CD
:104420002F5F3F4F0C962D30310509F0C4CF80919E
:104430009D0590919E05892B09F448C02091920515
:104440002631F0F540916800283058F031E02E30E8
:1044500008F430E091E0892F01C0880F3A95EAF71F
:1044600001C084E0842B80936800283038F02E301F
:1044700040F0263148F4ECE6F0E008C0EDE6F0E06C
:1044800005C0EBE6F0E002C0E0E0F0E0308128306B
:1044900030F491E001C0990F2A95EAF70EC0422F3F
:1044A00050E02E3018F44850510902C04E505109C6
:1044B00091E001C0990F4A95EAF7892F832B8083F9
:1044C00080919F059091A0050E941C158091600726
:1044D000909161078658954091F08091A1058E7F5B
:1044E0008093A1058FB7F89410925F0710925E0732
:1044F00026E835E030936107209360078FBF8AE894
:1045000091E00E9465168BEE93E00E9465160E9472
:10451000EC1A83EF93E00E9465160E94EC1A8AEA77
:1045200092E09093370680933606109239061092E7
:10453000380683E197E09093BF058093BE05109203
:10454000C1051092C00585E096E090931306809314
:10455000120610921506109214068FEE94E09093B6
:1045600003078093020710920507109204078EE458
:104570009BE09093AF068093AE061092B106109226
:10458000B0068CED90E09093A3068093A206109263
:10459000A5061092A40681EC93E09093F706809311
:1045A000F6061092F9061092F8068CEA92E09093C3
:1045B000EB068093EA061092ED061092EC0685E079
:1045C00092E19093DF068093DE061092E10610924E
:1045D000E0068FE39FE090939706809396061092F3
:1045E0009906109298068DE491E190937F0680934E
:1045F0007E06109281061092800681EE90E19093E3
:10460000D3068093D2061092D5061092D4068FE27C
:1046100098E09093C7068093C6061092C906109240
:10462000C80684E190E190935B0680935A0610924D
:104630005D0610925C0685E49FE090936706809388
:104640006606109269061092680686EA98E09093D2
:1046500073068093720610927506109274068BE2B0
:1046600098E090934F0680934E0610925106109258
:1046700050068CEC97E09093FB058093FA0510921E
:10468000FD051092FC0589E697E09093EF05809375
:10469000EE051092F1051092F00589EE9BE09093E3
:1046A000E3058093E2051092E5051092E40583E6A8
:1046B00097E09093D7058093D6051092D905109274
:1046C000D80588E998E09093CB058093CA051092AD
:1046D000CD051092CC058AE191E090931F0680935E
:1046E0001E06109221061092200680EF90E0909313
:1046F000FF068093FE06109201071092000788E1E2
:1047000091E09093F3068093F2061092F5061092D2
:10471000F40686E191E09093E7068093E606109216
:10472000E9061092E80684E191E09093DB0680931D
:10473000DA061092DD061092DC0682E191E0909399
:10474000CF068093CE061092D1061092D00680E15B
:1047500091E09093C3068093C2061092C506109212
:10476000C4068EE091E09093B7068093B60610924F
:10477000B9061092B8068CE091E090933F068093C2
:104780003E0610924106109240068AE091E0909316
:10479000330680933206109235061092340688E074
:1047A00091E0909327068093260610922906109296
:1047B000280686E091E090931B0680931A061092DB
:1047C0001D0610921C0684E091E09093AB06809346
:1047D000AA061092AD061092AC0682E091E090938A
:1047E0009F0680939E061092A1061092A00680E07C
:1047F00091E0909393068093920610929506109202
:10480000940688EF90E09093870680938606109236
:1048100089061092880687EE90E090935706809361
:10482000560610925906109258068EEF90E090931B
:1048300063068093620610926506109264068CEF00
:1048400090E090936F0680936E061092710610921E
:1048500070068AEF90E090934B0680934A06109280
:104860004D0610924C068AEF93E00E94831A0E9434
:10487000751B0E942A13FBCF86E591E09093870574
:104880008093860520919205263140F5283028F046
:104890002E3030F0ECE6F0E005C0EDE6F0E002C0CE
:1048A000EBE6F0E03081283038F481E090E001C0A0
:1048B000880F2A95EAF70FC0422F50E02E3018F4E7
:1048C0004850510902C04E50510981E090E001C0AA
:1048D000880F4A95EAF78095832380830895BB2744
:1048E0004A3031F4992322F4BDE2909581959F4F8F
:1048F0000C947B24BB27FB015527AA27880F991FFF
:10490000AA1FA41710F0A41B83955051B9F7A05DFE
:10491000AA3308F0A95DA193009779F7B111B1937B
:104920001192CB010C949424DC01FC01672F71914E
:104930007723E1F7329704C07C916D937083629185
:10494000AE17BF07C8F308950E94E62408F481E07B
:104950000895E89409C097FB3EF490958095709572
:1049600061957F4F8F4F9F4F9923A9F0F92F96E9BB
:10497000BB279395F695879577956795B795F11130
:10498000F8CFFAF4BB0F11F460FF1BC06F5F7F4FCD
:104990008F4F9F4F16C0882311F096E911C07723DF
:1049A00021F09EE8872F762F05C0662371F096E8E8
:1049B000862F70E060E02AF09A95660F771F881FB7
:1049C000DAF7880F9695879597F90895990F00085B
:1049D000550FAA0BE0E8FEEF16161706E807F907D1
:1049E000C0F012161306E407F50798F0621B730B6C
:1049F000840B950B39F40A2661F0232B242B252BED
:104A000021F408950A2609F4A140A6958FEF811D8F
:104A1000811D08950E941D250C948E250E948025DD
:104A200038F00E94872520F0952311F00C9477250B
:104A30000C947D2511240C94C2250E949F2570F3AF
:104A4000959FC1F3950F50E0551F629FF001729F33
:104A5000BB27F00DB11D639FAA27F00DB11DAA1F42
:104A6000649F6627B00DA11D661F829F2227B00D8F
:104A7000A11D621F739FB00DA11D621F839FA00D1A
:104A8000611D221F749F3327A00D611D231F849F6A
:104A9000600D211D822F762F6A2F11249F575040C1
:104AA0009AF0F1F088234AF0EE0FFF1FBB1F661F3C
:104AB000771F881F91505040A9F79E3F510580F005
:104AC0000C9477250C94C2255F3FE4F3983ED4F311
:104AD000869577956795B795F795E7959F5FC1F7A9
:104AE000FE2B880F911D9695879597F9089597F954
:104AF0009F6780E870E060E008959FEF80EC089584
:104B000000240A94161617061806090608950024AC
:104B10000A9412161306140605060895092E039426
:104B2000000C11F4882352F0BB0F40F4BF2B11F49A
:104B300060FF04C06F5F7F4F8F4F9F4F089557FDF9
:104B40009058440F551F59F05F3F71F04795880FFB
:104B500097FB991F61F09F3F79F087950895121692
:104B600013061406551FF2CF4695F1DF08C016163E
:104B700017061806991FF1CF8695710561050894EF
:104B80000895E894BB2766277727CB0197F9089506
:104B9000DC01CB01FC01F999FECF06C0F2BDE1BDFD
:104BA000F89A319600B40D9241505040B8F70895EC
:104BB000A8E1B0E042E050E00C94CA25262FF99914
:104BC000FECF1FBA92BD81BD20BD0FB6F894FA9AF0
:104BD000F99A0FBE019608950E94DE25272F0C94A6
:104BE000DF25052E97FB1EF400940E94082657FD32
:104BF00007D00E94522607FC03D04EF40C940826DE
:104C000050954095309521953F4F4F4F5F4F0895F8
:104C100090958095709561957F4F8F4F9F4F089528
:104C20000E947426A59F900DB49F900DA49F800DA7
:104C3000911D112408952F923F924F925F926F928F
:104C40007F928F929F92AF92BF92CF92DF92EF921C
:104C5000FF920F931F93CF93DF93CDB7DEB7CA1B9D
:104C6000DB0B0FB6F894DEBF0FBECDBF09942A88C8
:104C7000398848885F846E847D848C849B84AA8470
:104C8000B984C884DF80EE80FD800C811B81AA81FD
:104C9000B981CE0FD11D0FB6F894DEBF0FBECDBFC8
:104CA000ED010895A1E21A2EAA1BBB1BFD010DC048
:104CB000AA1FBB1FEE1FFF1FA217B307E407F507CC
:104CC00020F0A21BB30BE40BF50B661F771F881FA8
:104CD000991F1A9469F760957095809590959B013E
:104CE000AC01BD01CF010895A29FB001B39FC001E7
:104CF000A39F700D811D1124911DB29F700D811D08
:104D00001124911D08955058BB27AA270E949B2665
:104D10000C948E250E94802538F00E94872520F073
:104D200039F49F3F19F426F40C947D250EF4E09598
:104D3000E7FB0C947725E92F0E949F2558F3BA17BB
:104D4000620773078407950720F079F4A6F50C94A1
:104D5000C1250EF4E0950B2EBA2FA02D0B01B90141
:104D600090010C01CA01A0011124FF27591B99F0E1
:104D7000593F50F4503E68F11A16F040A22F232FED
:104D8000342F4427585FF3CF469537952795A7953D
:104D9000F0405395C9F77EF41F16BA0B620B730BE4
:104DA000840BBAF09150A1F0FF0FBB1F661F771F55
:104DB000881FC2F70EC0BA0F621F731F841F48F40A
:104DC000879577956795B795F7959E3F08F0B0CF93
:104DD0009395880F08F09927EE0F9795879508957A
:104DE0000E9404270C948E250E94872558F00E946B
:104DF000802540F029F45F3F29F00C94772551116C
:104E00000C94C2250C947D250E949F2568F399235C
:104E1000B1F3552391F3951B550BBB27AA276217B6
:104E20007307840738F09F5F5F4F220F331F441FC3
:104E3000AA1FA9F335D00E2E3AF0E0E832D09150F7
:104E40005040E695001CCAF72BD0FE2F29D0660FE4
:104E5000771F881FBB1F261737074807AB07B0E827
:104E600009F0BB0B802DBF01FF2793585F4F3AF02D
:104E70009E3F510578F00C9477250C94C2255F3F36
:104E8000E4F3983ED4F3869577956795B795F795B3
:104E90009F5FC9F7880F911D9695879597F908959B
:104EA000E1E0660F771F881FBB1F62177307840737
:104EB000BA0720F0621B730B840BBA0BEE1F88F746
:104EC000E09508950E9469276894B1110C94C22559
:104ED00008950E94A72588F09F5798F0B92F992729
:104EE000B751B0F0E1F0660F771F881F991F1AF0D5
:104EF000BA95C9F714C0B13091F00E94C125B1E054
:104F000008950C94C125672F782F8827B85F39F052
:104F1000B93FCCF3869577956795B395D9F73EF46D
:104F200090958095709561957F4F8F4F9F4F089515
:104F30000E94E62408F48FEF089597FB072E16F4DD
:104F4000009407D077FD09D00E94B82707FC05D050
:104F50003EF4909581959F4F0895709561957F4F90
:104F600008950E947426B7FF0895821B930B08953D
:104F7000AA1BBB1B51E107C0AA1FBB1FA617B7077F
:104F800010F0A61BB70B881F991F5A95A9F780959B
:104F90009095BC01CD010895EE0FFF1F0590F4918F
:104FA000E02D09940F931F93CF93DF9382309105E7
:104FB00010F482E090E0E091CC07F091CD0720E082
:104FC00030E0A0E0B0E0309719F1408151810281DA
:104FD000138148175907C8F08417950769F410978B
:104FE00031F012960C93129713961C9327C00093DE
:104FF000CC071093CD0722C02115310519F04217B7
:10500000530718F49A01BD01EF01DF01F801DBCF6E
:1050100021153105F9F0281B390B2430310580F4B6
:105020008A819B816115710521F0FB019383828345
:1050300004C09093CD078093CC07FE01329644C004
:10504000FE01E20FF31F81939193225031093983BE
:1050500028833AC02091CA073091CB07232B41F413
:1050600020913C0130913D013093CB072093CA073A
:1050700020913A0130913B012115310541F42DB7C2
:105080003EB740913E0150913F01241B350BE0910A
:10509000CA07F091CB07E217F307A0F42E1B3F0BD2
:1050A0002817390778F0AC014E5F5F4F241735079A
:1050B00048F04E0F5F1F5093CB074093CA07819370
:1050C000919302C0E0E0F0E0CF01DF91CF911F911A
:1050D0000F910895CF93DF93009709F481C0FC01ED
:1050E000329713821282A091CC07B091CD0710970E
:1050F00081F420813181820F931F2091CA07309162
:10510000CB072817390751F5F093CB07E093CA076F
:1051100067C0ED0120E030E0CE17DF0740F44A81A0
:105120005B819E0141155105F1F0EA01F5CFD38372
:10513000C28340815181840F951FC817D90759F444
:1051400088819981840F951F0296918380838A813B
:105150009B81938382832115310529F4F093CD0738
:10516000E093CC073DC0E901FB83EA834991599163
:10517000C40FD51FEC17FD0761F480819181840F66
:10518000951F0296E90199838883828193819B838D
:105190008A83E0E0F0E012968D919C91139700973E
:1051A00019F0FD01DC01F7CF8D919C9111979D01C4
:1051B0002E5F3F4F820F931F2091CA073091CB077C
:1051C0002817390769F4309729F41092CD07109207
:1051D000CC0702C013821282B093CB07A093CA07F8
:1051E000DF91CF910895A0E0B0E0E9EFF8E20C94F0
:1051F0001F26EC01009721F4CB010E94D227B4C0F6
:10520000FC01E60FF71F9C0122503109E217F3075A
:1052100008F4A8C0D9010D911C9111970617170722
:10522000B0F00530110508F49BC0C801049786173B
:10523000970708F495C002501109061B170B01933C
:1052400011936D937C93CF010E946A2889C05B0102
:10525000A01AB10A4C01800E911EA091CC07B0910A
:10526000CD07612C712CE12CF12C109709F446C06C
:105270008D919C911197A815B905B1F56C0142E08B
:10528000C40ED11CCA14DB0478F14C018A189B08A7
:10529000640142E0C40ED11C1296BC901297139682
:1052A000AC91B5E0CB16D10440F0B282A3839182D9
:1052B0008082D9016D937C9309C00E5F1F4F800FD0
:1052C000911FF90191838083EB2DFA2FE114F104F2
:1052D00031F0D7011396FC93EE93129741C0F093EF
:1052E000CD07E093CC073CC06816790608F43C0172
:1052F0007D0112960D90BC91A02DB7CF8091CA0769
:105300009091CB0788169906E1F466167706C8F4E3
:1053100080913A0190913B01009741F48DB79EB77F
:1053200040913E0150913F01841B950BE817F9070E
:10533000C8F4F093CB07E093CA07F9017183608347
:105340000FC0CB010E94D2277C01009759F0A80121
:10535000BE010E94BE29CE010E946A28C70104C076
:10536000CE0102C080E090E0CDB7DEB7EEE00C9455
:105370003B2681E090E0F8940C94CE29FB01DC01FF
:1053800002C001900D9241505040D8F70895FB01A2
:10539000DC0101900D920020E1F7089510E0C1EBCF
:1053A000D0E004C0FE010E94CC272196C23BD10769
:0653B000C9F7F894FFCFDD
:1053B600011C0CE0FCFA06EE06E206D606CA06BE9C
:1053C60006B2066A0652065E06A6069A068E067697
:1053D60006F205E605DA05CE05C2053A062E0616DC
:1053E600060A06FE05B6050000FF0000CE0780008F
:1053F600000000006E0DE00C0A0DBB0D1E13190D0A
:105406002D0D000000002315E00CBC13731382134E
:105416009A13591361727265744175746F506F7087
:1054260043616C6C6261636B0073657269616C00E9
:1054360072657061697273000D0A002020202020B9
:105446000070726F67726573734261740070616792
:1054560065300062756C6C73457965526570506F86
:105466007043616C6C4261636B006E38006E37008E
:1054760070726F67726573734379636C65007072DF
:105486006F67726573735265700067617567654112
:105496006E616C6F6700676175676544696769521D
:1054A6006570007370656564526570506F70436116
:1054B6006C6C6261636B0063616C696272617469D2
:1054C6006F6E506F7043616C6C4261636B00676115
:1054D6007567654469676943616C0063616C6962FD
:1054E6007261746547617567650070726F67726592
:1054F600737342617243616C007475726E4F6666B7
:10550600506F7043616C6C4261636B006765742019
:10551600002E76616C00726563765265744E756D09
:10552600626572203A00726563765265744E756DD7
:1055360062657220657272006661737400737461CD
:10554600720062756C6C7365796500636F6D626974
:105556006E6174696F6E006D616E75616C00757653
:10556600437572696E670073657475700053746F66
:1055760070007265704175746F55560052657061A2
:1055860069724F6B0062300076616375756D0070ED
:10559600726573737572650073746F704D616E75A5
:1055A600616C007265704D616E755556006C616E6A
:1055B600677561676573006261744C6576656C003A
:1055C60063616C6962726174696F6E00696E666FA1
:1055D600730061746D0063616C6962726174655316
:1055E600746172740063616C696272617465457896
:1055F600697400706C75735556006D696E757355D8
:105606005600737461727455560073746F705556F4
:10561600006578697455560068300050726573737A
:105626007572654C65616B006E30006E3100737487
:105636006F704D616E75616C506F7043616C6C423A
:1056460061636B00637572696E675556506F704380
:10565600616C6C4261636B00657869744D616E754F
:10566600506F7043616C6C4261636B006E34006E08
:1056760033006E32006E36006E35006465706172FE
:10568600744175746F506F7043616C6C4261636BEB
:10569600007132002E706963633D00626B636D6456
:1056A6003D31007061676520300073657475702048
:1056B600646F6E6500736F727469654175746F50BF
:1056C6006F7043616C6C4261636B007661637575E4
:1056D6006D4D616E75506F7043616C6C4261636BAA
:1056E600006761756765446967694D616E0067614A
:1056F600756765416E614D616E0070726573737595
:1057060072654D616E75506F7043616C6C4261637A
:105716006B006D616E75616C526570506F704361A0
:105726006C6C4261636B00636F6D626952657050A9
:105736006F7043616C6C4261636B002E76616C3DE9
:105746000070616765200072656376526574436F09
:105756006D6D616E6446696E6973686564206F6B12
:105766000072656376526574436F6D6D616E644653
:10577600696E69736865642065727200286E756C5F
:105786006C29005D005B002C002E7478743D2200AD
:107E0000112484B714BE81FFF0D085E080938100F7
:107E100082E08093C00088E18093C10086E0809377
:107E2000C20080E18093C4008EE0C9D0259A86E02C
:107E300020E33CEF91E0309385002093840096BBD3
:107E4000B09BFECF1D9AA8958150A9F7CC24DD24C4
:107E500088248394B5E0AB2EA1E19A2EF3E0BF2EE7
:107E6000A2D0813461F49FD0082FAFD0023811F036
:107E7000013811F484E001C083E08DD089C08234E0
:107E800011F484E103C0853419F485E0A6D080C0E4
:107E9000853579F488D0E82EFF2485D0082F10E0AE
:107EA000102F00270E291F29000F111F8ED06801E7
:107EB0006FC0863521F484E090D080E0DECF843638
:107EC00009F040C070D06FD0082F6DD080E0C81688
:107ED00080E7D80618F4F601B7BEE895C0E0D1E017
:107EE00062D089930C17E1F7F0E0CF16F0E7DF06D8
:107EF00018F0F601B7BEE89568D007B600FCFDCFD4
:107F0000A601A0E0B1E02C9130E011968C91119780
:107F100090E0982F8827822B932B1296FA010C0160
:107F200087BEE89511244E5F5F4FF1E0A038BF0790
:107F300051F7F601A7BEE89507B600FCFDCF97BE46
:107F4000E89526C08437B1F42ED02DD0F82E2BD052
:107F50003CD0F601EF2C8F010F5F1F4F84911BD097
:107F6000EA94F801C1F70894C11CD11CFA94CF0C13
:107F7000D11C0EC0853739F428D08EE10CD085E9AC
:107F80000AD08FE07ACF813511F488E018D01DD067
:107F900080E101D065CF982F8091C00085FFFCCF94
:107FA0009093C60008958091C00087FFFCCF809118
:107FB000C00084FD01C0A8958091C6000895E0E648
:107FC000F0E098E1908380830895EDDF803219F02E
:107FD00088E0F5DFFFCF84E1DECF1F93182FE3DFCA
:107FE0001150E9F7F2DF1F91089580E0E8DFEE27F6
:047FF000FF270994CA
:027FFE00040479
:0400000300007E007B
:00000001FF
