:100000000C94B2000C94DA000C94DA000C9483186F
:100010000C942C190C9408190C94DA000C946E03AF
:100020000C94DA000C94DA000C94DA000C94DA00E8
:100030000C94DA000C94DA000C94DA000C94DA00D8
:100040000C94BD170C94DA000C94E4020C94BE02DC
:100050000C94DA000C94DA000C94DA000C94DA00B8
:100060000C94DA000C94DA00000000002400270051
:100070002A0000000008000201000003040700003D
:1000800000000000000000C201000100110011008A
:100090000C0000E100000A00250025002100009668
:1000A00000001900390039003600127A00001F00E4
:1000B0004600460044008070000022004D004D00C4
:1000C0004A00004B00003600750075007200403891
:1000D00000004A009C009C009900802500007200EE
:1000E000EC00EC00E900C0120000E900DA01DA01DE
:1000F000D70160090000D701B603B603B303B0040B
:100100000000B3036E076E076B07580200006E070E
:10011000DC0EDC0ED80E2C010000DC0EC11DC11D52
:10012000BE1D000000002300260029000000000082
:10013000250028002B000404040404040404020223
:100140000202020203030303030301020408102056
:10015000408001020408102001020408102002005F
:10016000381E512211241FBECFEFD8E0DEBFCDBF15
:1001700014E0A0E0B1E0E0EFFFE402C005900D92D2
:10018000A638B107D9F727E0A6E8B4E001C01D9270
:10019000A236B207E1F710E0C1EBD0E004C021972E
:1001A000FE010E94E925C03BD107C9F70E945F1BF1
:1001B0000C94EB270C940000CF92DF92EF92FF9209
:1001C0000F931F93CF93DF936C017A018B01C0E0F3
:1001D000D0E0CE15DF0581F0D8016D918D01D601FB
:1001E000ED91FC910190F081E02DC6010995892BDC
:1001F00011F02196EECF7E01C701DF91CF911F91C3
:100200000F91FF90EF90DF90CF900895FC01538DF8
:10021000448D252F30E0842F90E0821B930B5417E0
:1002200010F0CF96089501970895FC01918D828D6D
:10023000981761F0828DDF01A80FB11D5D968C913A
:10024000928D9F5F9F73928F90E008958FEF9FEF45
:100250000895FC01918D828D981731F0828DE80F01
:10026000F11D858D90E008958FEF9FEF0895FC01BB
:10027000918D228D892F90E0805C9F4F821B910988
:100280008F739927089583E994E00E94370121E054
:10029000892B09F420E0822F0895FC01848DDF0171
:1002A000A80FB11DA35ABF4F2C91848D90E00196E9
:1002B0008F739927848FA689B7892C93A089B189D8
:1002C0008C91837080648C93938D848D981306C079
:1002D0000288F389E02D80818F7D80830895EF92DD
:1002E000FF920F931F93CF93DF93EC0181E0888FF0
:1002F0009B8D8C8D981305C0E889F989808185FDD7
:1003000026C0F62E0B8D10E00F5F1F4F0F731127C5
:10031000E02E8C8DE8120CC00FB607FCFACFE889EE
:10032000F989808185FFF5CFCE010E944D01F1CF83
:100330008B8DFE01E80FF11DE35AFF4FF0829FB74E
:10034000F8940B8FEA89FB89808180620AC09FB78D
:10035000F894EE89FF896083E889F9898081837048
:10036000806480839FBF81E090E0DF91CF911F91F7
:100370000F91FF90EF900895CF93DF93EC01888D5C
:100380008823C9F0EA89FB89808185FD05C0A88999
:10039000B9898C9186FD0FC00FB607FCF5CF80811F
:1003A00085FFF2CFA889B9898C9185FFEDCFCE0169
:1003B0000E944D01E7CFDF91CF91089580E090E05A
:1003C000892B29F00E94430181110C9400000895AB
:1003D0003FB7F89480918A0490918B04A0918C048B
:1003E000B0918D0426B5A89B05C02F3F19F001964A
:1003F000A11DB11D3FBFBA2FA92F982F8827820FAB
:10040000911DA11DB11DBC01CD0142E0660F771FFA
:10041000881F991F4A95D1F708950E94D6270F93F8
:100420001F93CF93DF93EC0188819981009729F086
:100430002A813B812617370788F48B016F5F7F4F36
:100440000E941027009761F0998388831B830A8399
:100450002C813D81232B11F4FC01108281E001C02D
:1004600080E0DF91CF911F910F910895EF92FF925D
:100470000F931F93CF93DF936115710511F480E003
:100480001FC0FB0101900020E9F73197E61BF70B35
:10049000B1F07B01EC010C811D810E0F1F1FB80113
:1004A0000E940F02882359F3288139818C819D8114
:1004B000B701820F931F0E94E4271D830C8381E004
:1004C000DF91CF911F910F91FF90EF900895EF92E0
:1004D000FF920F931F93CF93DF93EC011982188241
:1004E0001B821A821D821C826115710549F18B01E4
:1004F000FB0101900020E9F731977F01E61AF70A26
:10050000B7010E940F022881398181110DC0211588
:10051000310519F0C9010E948726198218821D82AF
:100520001C821B821A820CC0FD82EC82B801C901B8
:10053000DF91CF911F910F91FF90EF900C94E427E2
:10054000DF91CF911F910F91FF90EF90089561156A
:10055000710579F0FB0101900020E9F73197AF01B7
:10056000461B570BDC01ED91FC910280F381E02DDD
:10057000099480E090E008950C94A7021F920F92D6
:100580000FB60F9211242F933F934F935F936F9366
:100590007F938F939F93AF93BF93EF93FF9383E9E1
:1005A00094E00E944D01FF91EF91BF91AF919F9117
:1005B0008F917F916F915F914F913F912F910F900C
:1005C0000FBE0F901F9018951F920F920FB60F92AB
:1005D00011242F938F939F93EF93FF93E091A304A4
:1005E000F091A4048081E091A904F091AA0482FD15
:1005F00012C090818091AC048F5F8F732091AD0405
:10060000821751F0E091AC04F0E0ED56FB4F958F6E
:100610008093AC0401C08081FF91EF919F918F91F5
:100620002F910F900FBE0F901F901895833081F07F
:1006300028F4813099F08230A1F008958730A9F034
:100640008830B9F08430D1F4809180008F7D03C070
:10065000809180008F7780938000089584B58F7794
:1006600002C084B58F7D84BD08958091B0008F77DE
:1006700003C08091B0008F7D8093B00008951F93D8
:10068000CF93DF93282F30E0F901EE58FF4F84918C
:10069000F901E65BFE4FD491F901EA5CFE4FC4918B
:1006A000CC23C1F0162F81110E941603EC2FF0E02D
:1006B000EE0FFF1FE45DFE4FA591B4919FB7F89434
:1006C000111104C08C91D095D82302C0EC91DE2B7F
:1006D000DC939FBFDF91CF911F9108951F920F92DE
:1006E0000FB60F9211242F933F934F935F936F9305
:1006F0007F938F939F93AF93BF93EF93FF938091DB
:10070000020790910307A0910407B0910507892B78
:100710008A2B8B2B59F19091FF06E0910007F09105
:1007200001078081892780838091020790910307C8
:10073000A0910407B0910507181619061A061B06A2
:100740000CF03DC08091020790910307A09104072F
:10075000B09105070197A109B10980930207909311
:100760000307A0930407B093050729C080913801BF
:10077000EEE5F1E0E4919FEF90933801E130B9F0BC
:1007800098F0E230C9F4909170009D7F90937000D2
:1007900091E09093B0009091B100987F9460909315
:1007A000B1001092B30008C010926E0005C0909185
:1007B0006F009D7F90936F0060E00E943F03FF9168
:1007C000EF91BF91AF919F918F917F916F915F91C9
:1007D0004F913F912F910F900FBE0F901F90189542
:1007E000CF93DF9390E0FC01E65BFE4F2491FC0188
:1007F000EA5CFE4F8491882361F190E0880F991F95
:10080000FC01E859FF4FC591D491FC01E45DFE4F16
:10081000A591B491611109C09FB7F8948881209582
:1008200082238883EC912E230BC0623061F49FB742
:10083000F8948881322F309583238883EC912E2B76
:100840002C939FBF06C08FB7F894E8812E2B288386
:100850008FBFDF91CF9108958E3008F08E50877052
:10086000806480937C0080917A00806480937A0019
:1008700080917A0086FDFCCF8091780020917900EC
:1008800090E0922B08958F929F92AF92BF92CF9259
:10089000DF92EF92FF926B017C010E94E8014B0115
:1008A0005C01C114D104E104F104F1F00E94E801FB
:1008B000DC01CB0188199909AA09BB09883E93403C
:1008C000A105B10570F321E0C21AD108E108F108D1
:1008D00088EE880E83E0981EA11CB11CC114D104BF
:1008E000E104F10419F7DDCFFF90EF90DF90CF9096
:1008F000BF90AF909F908F9008952FB7F89460911C
:1009000086047091870480918804909189042FBF98
:1009100008957F928F929F92AF92BF92CF92DF9273
:10092000EF92FF920F931F93CF93DF93CDB7DEB774
:100930002C970FB6F894DEBF0FBECDBF8DE791E0C8
:100940000E94401519E0198386E08A8383E991E0CB
:100950009C838B831E821D821A8619861C861B86A9
:1009600018861F8240E050E0BA01CE0101960E9435
:10097000081B198387E08A8386E991E09C838B8337
:100980001E821D821A8619861C861B8618861F8267
:1009900040E050E0BA01CE0101960E94081B10927F
:1009A000920410921C0710921B078EE0782E99E992
:1009B000C92E91E0D92E02E026EAE22E21E0F22EA5
:1009C00030EA832E3FE0932EA12CB12C809192042B
:1009D000811144C080910201909103010E940A1A82
:1009E000809392040E940C0A9093EA068093E90691
:1009F0004AE065EE76E00E94842219837A82DC82E6
:100A0000CB821E821D821A8619861C861B8618863A
:100A10001F8265EE76E0CE0101960E9413170E94B8
:100A20000C0A19830A83FC82EB82092E000CAA0BA4
:100A3000BB0B9C01AD0128513C4F4F4F5F4FA8EDC0
:100A4000B0E00E942D24A50194010E940E24BA0159
:100A5000A901CE0101960E948019B8CF89E089834F
:100A60008EE08A8389E991E09C838B831E821D82BC
:100A70001A8619861C861B8618861F8265EE76E00C
:100A8000CE0101960E9413172C960FB6F894DEBF84
:100A90000FBECDBFDF91CF911F910F91FF90EF90CF
:100AA000DF90CF90BF90AF909F908F907F900895F0
:100AB0006F927F928F929F92AF92BF92CF92DF926E
:100AC000EF92FF920F931F93CF93DF93CDB7DEB7D3
:100AD0002C970FB6F894DEBF0FBECDBF82EB91E02E
:100AE0000E94401519E0198386E08A8383E991E02A
:100AF0009C838B831E821D821A8619861C861B8608
:100B000018861F8240E050E0BA01CE0101960E9493
:100B1000081B198387E08A8386E991E09C838B8395
:100B20001E821D821A8619861C861B8618861F82C5
:100B300040E050E0BA01CE0101960E94081B1092DD
:100B40001C0710921B078EE0682E99E9C92E91E0D0
:100B5000D92E22E0722E36EAE32E31E0F32E40EA5F
:100B6000842E4FE0942EA12CB12C80910001909105
:100B700001010E940A1A082F0E940C0A9093EA06AB
:100B80008093E9064AE065EE76E00E9484221983AC
:100B90006A82DC82CB821E821D821A8619861C869E
:100BA0001B8618861F8265EE76E0CE0101960E94B4
:100BB00013170E940C0A19837A82FC82EB82092E99
:100BC000000CAA0BBB0B9C01AD0128513C4F4F4FB1
:100BD0005F4FA8EDB0E00E942D24A50194010E9472
:100BE0000E24BA01A901CE0101960E9480190023AA
:100BF00009F4BBCF89E089838EE08A8389E991E09B
:100C00009C838B831E821D821A8619861C861B86F6
:100C100018861F8265EE76E0CE0101960E941317BA
:100C20002C960FB6F894DEBF0FBECDBFDF91CF91EB
:100C30001F910F91FF90EF90DF90CF90BF90AF90FA
:100C40009F908F907F906F9008951F93CF93DF9325
:100C5000CDB7DEB72C970FB6F894DEBF0FBECDBF71
:100C60008AEC91E00E9440150E94CE0F0E940C0A6F
:100C70009093EA068093E9064AE065EE76E00E94EA
:100C8000842219E019838EE08A8389E991E09C83AC
:100C90008B831E821D821A8619861C861B861886E7
:100CA0001F8265EE76E0CE0101960E9413170E9426
:100CB0000C0A9C01198382E08A8386EA91E09C8376
:100CC0008B83C901330FAA0BBB0B9C01AD012851CB
:100CD0003C4F4F4F5F4FA8EDB0E00E942D2420EA1B
:100CE0003FE040E050E00E940E24BA01A901CE018D
:100CF00001960E94801980EE9CEF909303018093EF
:100D000002018CE19CE090930101809300012C96FC
:100D10000FB6F894DEBF0FBECDBFDF91CF911F910C
:100D20000895CF92DF92EF92FF920F931F93CF938C
:100D3000DF93CDB7DEB72C970FB6F894DEBF0FBEAA
:100D4000CDBF8FED91E00E9440150E94CE0F84EB45
:100D500090E09093E4068093E3069093E2068093FC
:100D6000E10688E790E09093E0068093DF0680EF4D
:100D700090E09093DE068093DD0612E0198385E013
:100D80008A8383EF91E09C838B8340E050E0BA013B
:100D9000CE0101960E948019198386E08A8381E042
:100DA00092E09C838B8340E050E0BA01CE01019633
:100DB0000E9480190E940C0A9093EA068093E9062B
:100DC0004AE065EE76E00E94842219830BE10A83F3
:100DD0008DE0E82E82E0F82EFC82EB821E821D82DE
:100DE0001A8619861C861B8618861F8265EE76E099
:100DF000CE0101960E9413170E940C0A9C011983D0
:100E00001A838AE192E09C838B83C901330FAA0B7A
:100E1000BB0B9C01AD0128513C4F4F4F5F4FA8EDDC
:100E2000B0E00E942D2420EA3FE040E050E00E9424
:100E30000E24BA01A901CE0101960E948019809169
:100E4000EB069091EC062CE3C22ED12CB6010E9449
:100E5000BA25AC01990F660B770B198382E18A835F
:100E600086E292E09C838B831E821D821A861986FD
:100E70001C861B8618861F82CE0101960E94081BC5
:100E80008091EB069091EC06B6010E94BA25AB0169
:100E9000770F660B770B198381E18A8389E292E0F1
:100EA0009C838B831E821D821A8619861C861B8654
:100EB00018861F82CE0101960E94081B19830A839F
:100EC000FC82EB821E821D821A8619861C861B8676
:100ED00018861F8265EE76E0CE0101960E941317F8
:100EE0002C960FB6F894DEBF0FBECDBFDF91CF9129
:100EF0001F910F91FF90EF90DF90CF900895EF92A8
:100F0000FF921F93CF93DF93CDB7DEB72C970FB629
:100F1000F894DEBF0FBECDBF8CE292E00E94401578
:100F20000E94CE0F88E790E09093E4068093E3065A
:100F30009093E2068093E1069093E0068093DF06AB
:100F40009093DE068093DD0612E0198385E08A83A4
:100F500083EF91E09C838B8340E050E0BA01CE01A7
:100F600001960E948019198386E08A8381E092E0CD
:100F70009C838B8340E050E0BA01CE0101960E9431
:100F800080198091EB069091EC062CE3E22EF12C77
:100F9000B7010E94BA25AC01990F660B770B198334
:100FA00082E18A8386E292E09C838B831E821D828B
:100FB0001A8619861C861B8618861F82CE0101960A
:100FC0000E94081B8091EB069091EC06B7010E94ED
:100FD000BA25AB01770F660B770B198381E18A8302
:100FE00089E292E09C838B831E821D821A86198679
:100FF0001C861B8618861F82CE0101960E94081B44
:101000000E940C0A9C0119831A838AE192E09C8356
:101010008B83C901330FAA0BBB0B9C01AD01285177
:101020003C4F4F4F5F4FA8EDB0E00E942D2420EAC7
:101030003FE040E050E00E940E24BA01A901CE0139
:1010400001960E9480190E940C0A9093EA068093F0
:10105000E9064AE065EE76E00E94842219838BE17E
:101060008A838DE092E09C838B831E821D821A8688
:1010700019861C861B8618861F8265EE76E0CE01D7
:1010800001960E9413172C960FB6F894DEBF0FBE80
:10109000CDBFDF91CF911F91FF90EF900895CF9238
:1010A000DF92EF92FF920F931F93CF93DF93CDB711
:1010B000DEB72C970FB6F894DEBF0FBECDBF0E94EF
:1010C000CE0F28E730E03093E4062093E30684EB6C
:1010D00090E09093E2068093E1063093E00620933F
:1010E000DF069093DE068093DD0612E0198385E02B
:1010F0008A8383EF91E09C838B8340E050E0BA01C8
:10110000CE0101960E948019198386E08A8381E0CE
:1011100092E09C838B8340E050E0BA01CE010196BF
:101120000E9480190E940C0A9093EA068093E906B7
:101130004AE065EE76E00E94842219830BE10A837F
:101140008DE0E82E82E0F82EFC82EB821E821D826A
:101150001A8619861C861B8618861F8265EE76E025
:10116000CE0101960E9413170E940C0A9C0119835C
:101170001A838AE192E09C838B83C901330FAA0B07
:10118000BB0B9C01AD0128513C4F4F4F5F4FA8ED69
:10119000B0E00E942D2420EA3FE040E050E00E94B1
:1011A0000E24BA01A901CE0101960E9480198091F6
:1011B000EB069091EC062CE3C22ED12CB6010E94D6
:1011C000BA25AC01990F660B770B198382E18A83EC
:1011D00086E292E09C838B831E821D821A8619868A
:1011E0001C861B8618861F82CE0101960E94081B52
:1011F0008091EB069091EC06B6010E94BA25AB01F6
:10120000770F660B770B198381E18A8389E292E07D
:101210009C838B831E821D821A8619861C861B86E0
:1012200018861F82CE0101960E94081B19830A832B
:10123000FC82EB821E821D821A8619861C861B8602
:1012400018861F8265EE76E0CE0101960E94131784
:101250002C960FB6F894DEBF0FBECDBFDF91CF91B5
:101260001F910F91FF90EF90DF90CF900895EF9234
:10127000FF920F931F93CF93DF93CDB7DEB72C97D9
:101280000FB6F894DEBF0FBECDBF8091EE069091F1
:10129000EF068E3191050CF440C04E979093EF0607
:1012A0008093EE0608E0098319E01A8326E233E012
:1012B0003C832B831E821D821A8619861C861B8600
:1012C00018861F822CE3E22EF12CB7010E94BA256A
:1012D000AC01990F660B770BCE0101960E94081B9B
:1012E0008091EE069091EF06B7010E94BA25AB01FE
:1012F000770F660B770B09831A8383E991E09C8350
:101300008B831E821D821A8619861C861B86188670
:101310001F82CE0101960E94081B2C960FB6F894EE
:10132000DEBF0FBECDBFDF91CF911F910F91FF9018
:10133000EF900895EF92FF920F931F93CF93DF9357
:10134000CDB7DEB72C970FB6F894DEBF0FBECDBF7A
:101350008091EE069091EF064E969093EF06809363
:10136000EE0608E0098319E01A8326E233E03C83A5
:101370002B831E821D821A8619861C861B86188660
:101380001F822CE3E22EF12CB7010E94BA25AC019A
:10139000990F660B770BCE0101960E94081B809176
:1013A000EE069091EF06B7010E94BA25AB01770FC8
:1013B000660B770B09831A8383E991E09C838B8307
:1013C0001E821D821A8619861C861B8618861F821D
:1013D000CE0101960E94081B2C960FB6F894DEBF32
:1013E0000FBECDBFDF91CF911F910F91FF90EF9076
:1013F00008951092ED0660E087E00C943F030C9492
:10140000F90989E293E00E9440150E94CE0F1092E4
:10141000EF061092EE0608950F931F93CF93DF937C
:101420008AE090E00E94F523EC019093DC06809323
:10143000DB068EE00E942C04BC01990F880B990BEF
:101440000E94C0222AE038E240EA5BE30E941F23A8
:101450002DEC3CEC4CE45EE30E94A12420E030EC57
:101460004AED55E40E941F2320E030E040E950E4BB
:101470000E940D250E947F258E01DD0F220B330B6C
:10148000DC01CB01801B910BA20BB30BDF91CF9141
:101490001F910F9108952F923F924F925F926F92FA
:1014A0007F928F929F92AF92BF92CF92DF92EF92F4
:1014B000FF920F931F93CF93DF93CDB7DEB7AA9719
:1014C0000FB6F894DEBF0FBECDBF1C014B8B5C8BFB
:1014D0006D8B7E8B0F8B188F298F3A8FE090EB06E8
:1014E000F090EC066EE174E0CE010D960E9467026A
:1014F0000E947D046093F4067093F5068093F606CF
:101500009093F7060E940C0A9093EA068093E906EE
:101510004AE065EE76E00E94842212E019838BE1B6
:101520008A838DE092E09C838B831E821D821A86C3
:1015300019861C861B8618861F8265EE76E0CE0112
:1015400001960E94131780911A07882309F428C274
:1015500019838EE08A838DE393E09C838B831E82C4
:101560001D821A8619861C861B8618861F826B8927
:101570007C898D899E892CE330E040E050E00E9418
:101580000E2429013A01AB01BC01CE0101960E9453
:10159000081B19838DE08A8380E493E09C838B830E
:1015A0001E821D821A8619861C861B8618861F823B
:1015B000B301A201CE0101960E94081B8091EB06A7
:1015C0009091EC065CE3C52ED12CB6010E94BA25A1
:1015D000AC01990F660B770B198382E18A8386E24F
:1015E00092E09C838B831E821D821A8619861C863C
:1015F0001B8618861F82CE0101960E94081B8091CF
:10160000EB069091EC06B6010E94BA25AB01770F6C
:10161000660B770B198381E18A8389E292E09C83D0
:101620008B831E821D821A8619861C861B8618864D
:101630001F82CE0101960E94081B6AE1862E62E09D
:10164000962E70EA472E7FE0572E612C712CEBE12D
:10165000BE2EFDE0CF2EF2E0DF2EC1010E940A1A5D
:10166000082F0E940C0A9093EA068093E9064AE04C
:1016700065EE76E00E9484220E940C0A19831A8388
:101680009C828B82092E000CAA0BBB0B9C01AD0126
:1016900028513C4F4F4F5F4FA8EDB0E00E942D24E2
:1016A000A30192010E940E24BA01A901CE01019664
:1016B0000E9480191983BA82DC82CB821E821D822D
:1016C0001A8619861C861B8618861F8265EE76E0B0
:1016D000CE0101960E941317002309F4BECFAF89F3
:1016E000B88D24E630E00E94CE256B8F7C8F8D8FE5
:1016F0009E8F412C512C320144E6842E912CA12C3A
:10170000B12C1AA619A612E09701FF0C440B550B39
:1017100029A33AA34BA35CA3CB88DC88ED88FE8881
:101720004C145D046E047F040CF038C10E947D04EB
:101730006093F4067093F5068093F6069093F7068F
:101740000E9461168091F4069091F506A091F6062C
:10175000B091F7062091F0063091F1064091F20623
:101760005091F3066C017D01C21AD30AE40AF50A0E
:1017700028EEC21623E0D206E104F10468F22091BB
:101780001A07222309F40AC18093F0069093F10608
:10179000A093F206B093F30649A55AA54F5F5F4F99
:1017A0005AA749A7EF88F88CE40EF51E19838CE040
:1017B0008A8386E991E09C838B831E821D821A8630
:1017C00019861C861B8618861F82CA016CE370E08E
:1017D0000E94BA256B01AC01990F660B770BCE0105
:1017E00001960E94081B198380E18A83A3E4B3E079
:1017F000BC83AB831E821D821A8619861C861B86BB
:1018000018861F82C7016CE370E00E94BA257B0135
:10181000AC01990F660B770BCE0101960E94081B55
:1018200019838BE08A8323E931E03C832B831E827A
:101830001D821A8619861C861B8618861F82A601A1
:10184000DD0C660B770BCE0101960E94081B1983F5
:101850008FE08A8346E453E05C834B831E821D82C3
:101860001A8619861C861B8618861F82A701FF0C04
:10187000660B770BCE0101960E94081B198385E049
:101880008A8383EF91E09C838B83C501B4012B890C
:101890003C894D895E890E940E24BA01A901CE01BE
:1018A00001960E948019198386E08A83A1E0B2E044
:1018B000BC83AB836B8D7C8D8D8D9E8D680D791D6A
:1018C0008A1D9B1D29A13AA14BA15CA10E940E2457
:1018D000BA01A901CE0101960E9480190E940C0A4A
:1018E0009093EA068093E9064AE065EE76E00E946E
:1018F00084228091E9069091EA068219930997FF64
:1019000003C0919581959109853691055CF434E683
:10191000830E911CA11CB11C4FEF441A540A640A97
:10192000740AFACE0E940C0A19831A832AE1C22E85
:1019300022E0D22EDC82CB82092E000CAA0BBB0B3C
:101940009C01AD0128513C4F4F4F5F4FA8EDB0E0D7
:101950000E942D2420EA3FE040E050E00E940E2447
:10196000BA01A901CE0101960E94801919838BE169
:101970008A833DE0E32E32E0F32EFC82EB821E826E
:101980001D821A8619861C861B8618861F8265EEA4
:1019900076E0CE0101960E941317B9CF0E9461161E
:1019A0000E947419CE010D960E943B15AA960FB69F
:1019B000F894DEBF0FBECDBFDF91CF911F910F9185
:1019C000FF90EF90DF90CF90BF90AF909F908F905F
:1019D0007F906F905F904F903F902F9008950F935E
:1019E0001F9389E493E00E94401581E080931A07D9
:1019F0004091E3065091E4068091E1069091E20661
:101A0000840F951F2091DF063091E006820F931F0F
:101A10002091DD063091DE06820F931F9093EC0635
:101A20008093EB0610921C0710921B07052E000CEA
:101A3000660B770B00E010E0980180910201909115
:101A400003010E944B0A10921C0710921B07009181
:101A5000E3061091E406012E000C220B330B40919B
:101A6000E1065091E206052E000C660B770B809183
:101A70000001909101010E944B0A10921C071092E4
:101A80001B070091E3061091E4068091E106909116
:101A9000E206080F191F012E000C220B330B409198
:101AA000DF065091E006052E000C660B770B80EEEA
:101AB0009CEF0E944B0A10921C0710921B0700918A
:101AC000E3061091E4068091E1069091E206080F8A
:101AD000191F8091DF069091E006080F191F012E53
:101AE000000C220B330B4091DD065091DE06052ED3
:101AF000000C660B770B8CE19CE00E944B0A84E1A2
:101B000090E00E94F523BC016F5F7F4F84E190E07D
:101B10000E94092460E083E00E943F0360E082E0CD
:101B20000E943F0360E084E00E943F034CED55E0DB
:101B300060E070E080EB94E01F910F910C94C9126B
:101B40006F927F928F929F92AF92BF92CF92DF92CD
:101B5000EF92FF920F931F93CF93DF93CDB7DEB732
:101B600062970FB6F894DEBF0FBECDBF81E08093C1
:101B7000ED0661E087E00E943F0388E0A82E99E02F
:101B8000B92E26E2C22E23E0D22E0CE310E033E978
:101B9000E32E31E0F32E8091EE069091EF061816B9
:101BA00019060CF072C00E947D046093F4067093D5
:101BB000F5068093F6069093F7060E9461168091D1
:101BC000F4069091F506A091F606B091F7064091C3
:101BD000F0065091F1066091F2067091F3063C0117
:101BE0004D01641A750A860A970A28EE621623E0E8
:101BF00072068104910478F22091ED06222309F403
:101C000044C08093F0069093F106A093F206B0933F
:101C1000F3068091EE069091EF0601979093EF0600
:101C20008093EE06A982BA82DC82CB821E821D825C
:101C30001A8619861C861B8618861F82B8010E9488
:101C4000BA25AC01990F660B770BCE0101960E9465
:101C5000081B8091EE069091EF06B8010E94BA250C
:101C6000AB01770F660B770BA982BA82FC82EB82FD
:101C70001E821D821A8619861C861B8618861F8264
:101C8000CE0101960E94081B86CF8E010F5F1F4F69
:101C90008AE0F80111928A95E9F76EE174E0CE01CD
:101CA0000D960E9467024AE0B80183E290E00E942C
:101CB0008F226FE573E0CE010D960E94360262E638
:101CC00073E0CE010D960E943602B801CE010D964A
:101CD0000E9436028D859E850E9450190E94A4158F
:101CE000CE010D960E943B1560E087E00E943F0305
:101CF0004CED55E060E070E080EB94E00E94C9128A
:101D00000E94611662960FB6F894DEBF0FBECDBF7B
:101D1000DF91CF911F910F91FF90EF90DF90CF90C7
:101D2000BF90AF909F908F907F906F90089589E6BD
:101D300093E00E94401510921A070E947419809136
:101D40001A0708954AE050E060E070E088EC90E007
:101D50000C94C9120C94A20E0C94A20E0C94A20E18
:101D60000C94A20E0C94A20E0C94A20E0C94A20E33
:101D70000C94A20E0C94A20E0C94A20E0C94A20E23
:101D80000C94A20E0C94A20EFF920F931F93CF936C
:101D9000DF93CDB7DEB762970FB6F894DEBF0FBE04
:101DA000CDBF86E0EDE8F3E0DE011D9601900D92D7
:101DB0008A95E1F700E010E041E050E0B8018DE0E5
:101DC00090E08C0F9D1F800F911F0E94DD230F5FFD
:101DD0001F4F0530110581F78AE0F82EF98285E062
:101DE0008A838EE793E09C838B831E821D821A86F2
:101DF00019861C861B8618861F82BE01635F7F4F73
:101E0000CE0101960E941317CE010D960E94401537
:101E100084E190E00E94F5238C01F98283E08A83BB
:101E200085E893E09C838B831E821D821A86198627
:101E30001C861B8618861F82A801012E000C660BCB
:101E4000770BCE0101960E94081BC8010E942D1637
:101E500062960FB6F894DEBF0FBECDBFDF91CF9173
:101E60001F910F91FF9008958F929F92AF92BF9212
:101E7000CF92DF92EF92FF928FE00E942C042FE42A
:101E800020937C00EFE0F0E03197F1F72EE420930F
:101E90007C00EBE1F3E03197F1F720917A002068C4
:101EA00020937A0020917A00206420937A00209178
:101EB0007A0026FDFCCFF0907800E0907900BC011C
:101EC00080E090E00E94BE222DEC3CEC4CE85FE309
:101ED0000E941F234B015C016F2D70E07E2980E082
:101EE00090E00E94BE229B01AC01C501B4010E949A
:101EF0000D2520E030E040E450E40E941F236B01F8
:101F00007C016093F9067093FA068093FB06909328
:101F1000FC0620E030E040E651E40E94B52587FF52
:101F20001BC02DEC3CEC4CE351E4C701B6010E9410
:101F3000B92287FD14C02DEC3CEC4CE351E4C70101
:101F4000B6010E94A02428E539E344EB5CE30E943B
:101F50000D250E94862505C064E670E002C060E0A1
:101F600070E06B01E12CF12CB701A6018AE096E04C
:101F70000E948019B701A6018EEF95E00E94081B10
:101F800068EE73E080E090E0FF90EF90DF90CF90FC
:101F9000BF90AF909F908F900C9443040F931F932A
:101FA000CF93DF93CDB7DEB72C970FB6F894DEBF93
:101FB0000FBECDBF0E94340F20E030E040E451E47A
:101FC0006091F9067091FA068091FB069091FC06EB
:101FD0000E94B92287FF37C0E4E8F0E08491ECE585
:101FE000F1E00491E8E4F1E01491112371F0811122
:101FF0000E941603E12FF0E0EE0FFF1FEE5DFE4F93
:10200000A591B491EC91E023D9F481E08093F80696
:102010008091F806811117C08EE089831A8283E9C6
:1020200093E09C838B831E821D821A8619861C86F0
:102030001B8618861F82CE0101960E94D71903C005
:102040001092F806E5CF2C960FB6F894DEBF0FBEBF
:10205000CDBFDF91CF911F910F9108950C94340F54
:10206000EF92FF921F93CF93DF93CDB7DEB72C97FC
:102070000FB6F894DEBF0FBECDBF89E993E00E9492
:1020800040150E94CE0F8CE3E82EF12CF092E4066E
:10209000E092E30688E790E09093E2068093E10601
:1020A000F092E006E092DF069093DE068093DD0674
:1020B00012E0198385E08A8383EF91E09C838B8310
:1020C00040E050E0BA01CE0101960E9480191983C8
:1020D00086E08A8381E092E09C838B8340E050E03D
:1020E000BA01CE0101960E9480190E940C0A9093B9
:1020F000EA068093E9064AE065EE76E00E948422D3
:102100000E940C0A9C0119831A838AE192E09C8345
:102110008B83C901330FAA0BBB0B9C01AD01285166
:102120003C4F4F4F5F4FA8EDB0E00E942D2420EAB6
:102130003FE040E050E00E940E24BA01A901CE0128
:1021400001960E9480198091EB069091EC06B701F0
:102150000E94BA25AC01990F660B770B198382E1B7
:102160008A8386E292E09C838B831E821D821A867C
:1021700019861C861B8618861F82CE0101960E9436
:10218000081B8091EB069091EC06B7010E94BA25DE
:10219000AB01770F660B770B198381E18A8389E2A4
:1021A00092E09C838B831E821D821A8619861C8670
:1021B0001B8618861F82CE0101960E94081B198378
:1021C0008BE18A838DE092E09C838B831E821D824B
:1021D0001A8619861C861B8618861F8265EE76E095
:1021E000CE0101960E9413172C960FB6F894DEBF0D
:1021F0000FBECDBFDF91CF911F91FF90EF9008955B
:102200002F923F924F925F926F927F928F929F9206
:10221000AF92BF92CF92DF92EF92FF920F931F93F4
:10222000CF93DF93CDB7DEB72E970FB6F894DEBF0E
:102230000FBECDBF8DEA93E00E9440151092DC06E0
:102240001092DB061092EA061092E90684E6C82E88
:10225000D12CE12CF12C17E090EA292E9FE0392EA9
:10226000412C512C04E020EE622E23E0722E3AE045
:10227000832E912CA12CB12C8EE00E942C04BC0149
:10228000990F880B990B0E94C0222AE038E240EA9D
:102290005BE30E941F232DEC3CEC4CE45EE30E94C8
:1022A000A1240E947F2548E55BE1469F9001479F5E
:1022B000300D569F300D1124B901330F880B990B47
:1022C0000E94C02220E030E040E950E40E940D2549
:1022D0000E947F25DC01CB019093FE068093FD06D2
:1022E0009093EA068093E9064AE065EE76E00E9464
:1022F0008422198358E05A8384EC93E09C838B8377
:102300001E821D821A8619861C861B8618861F82CD
:1023100065EE76E0CE0101960E9413172091FD062E
:102320003091FE06C901330FAA0BBB0B9C01AD0116
:1023300028513C4F4F4F5F4FA8EDB0E00E942D2435
:10234000A20191010E940E24BA01A901198395E00E
:102350009A8381ED93E09C838B83CE0101960E944A
:10236000801919830A837C826B82C701B601A5019B
:1023700094010E940E24BA01A901CE0101960E9487
:1023800080192091DB063091DC068091FD0690914A
:10239000FE06820F931F9093DC068093DB0668EEA7
:1023A00073E080E090E00E94430494E6C90ED11CE3
:1023B000E11CF11C4CE4C41644E0D406E104F10431
:1023C00009F05ACF8091DB069091DC066AE070E05C
:1023D0000E94BA257093DC066093DB067E876D87CA
:1023E0008AE090E00E94ED236D85681721F08AE075
:1023F00090E00E94FB238BE090E00E94ED236E852D
:10240000861721F08BE090E00E94FB238091DB0691
:102410009091DC060E942D162091FD063091FE065B
:102420008091DB069091DC06281B390BC901330F24
:10243000AA0BBB0B9C01AD0128513C4F4F4F5F4F86
:10244000A8EDB0E00E942D2420EA3FE040E050E0FB
:102450000E940E24BA01A90117E0198385E08A833E
:1024600081ED93E09C838B83CE0101960E948019BD
:102470008091FD069091FE062091DB063091DC06EE
:10248000821B930B9093EA068093E9064AE065EE7F
:1024900076E00E948422198388E08A8384EC93E0AA
:1024A0009C838B831E821D821A8619861C861B863E
:1024B00018861F8265EE76E0CE0101960E94131702
:1024C0002E960FB6F894DEBF0FBECDBFDF91CF9131
:1024D0001F910F91FF90EF90DF90CF90BF90AF9042
:1024E0009F908F907F906F905F904F903F902F9034
:1024F0000895CF93DF93CDB7DEB72E970FB6F8943C
:10250000DEBF0FBECDBF8FEE93E00E94401562E0AC
:1025100074E0CE0109960E94670260917005709187
:102520007105CE0109960E94360267E074E0CE0183
:1025300009960E94360289859A850E945019FE01EB
:10254000319688E0DF011D928A95E9F78FE194E0EA
:102550000E944015CE0109960E943B1544EF51E0C0
:1025600060E070E080EB94E00E94C91264EF71E0DB
:1025700080E090E00E94430461E086E00E943F0317
:102580002E960FB6F894DEBF0FBECDBFDF91CF9170
:1025900008954F925F926F927F928F929F92AF9227
:1025A000BF92CF92DF92EF92FF920F931F93CF9340
:1025B000DF9300D000D01F92CDB7DEB78C012A0187
:1025C0003B0180913801853021F08F3F09F03DC2F9
:1025D00005C0EEE5F1E024912D8372C085E0809383
:1025E0003801EEE5F1E084918D838F3F09F42DC22F
:1025F000813009F441C038F1823009F061C0109295
:10260000B0001092B1008091B00082608093B00061
:102610008091B10081608093B100EBE3F1E0E4913F
:10262000F0E0EE0FFF1FE45DFE4F859194919093D3
:10263000010780930007EFE4F1E0E491E093FF06E7
:1026400022E02D83FDC114BC15BC84B5826084BD1D
:1026500085B5816085BDEBE3F1E0E491F0E0EE0F3C
:10266000FF1FE45DFE4F85919491EFE4F1E0E4916A
:10267000E09311071D82E4C1109280001092810046
:1026800080918100886080938100809181008160C9
:1026900080938100EBE3F1E0E491F0E0EE0FFF1FA7
:1026A000E45DFE4F85919491EFE4F1E0E491E093D5
:1026B000100761E085E00E94F00391E09D838AC0ED
:1026C0008D8187FDC2C161E085E00E94F0038D81AC
:1026D0008D7F09F07FC04801A12CB12C60E072E130
:1026E0008AE790E0A50194010E940E2429833A8391
:1026F0004B835C8369017A0191E0C91AD108E10832
:10270000F1082FEFC216D104E104F10409F008F436
:102710004EC060E472E48FE090E0A50194010E9455
:102720000E2469017A0181E0C81AD108E108F10894
:102730009D81923009F52FEFC216D104E104F10416
:1027400009F008F444C160E970ED83E090E0A50170
:1027500094010E940E2469017A0181E0C81AD1080F
:10276000E108F1089FEFC916D104E104F10411F06A
:1027700008F0BAC083E027C02FEFC216D104E104ED
:10278000F104B9F0B0F068E478EE81E090E0A501E2
:1027900094010E940E2469017A0181E0C81AD108CF
:1027A000E108F1089D81992309F413C1DCC081E09F
:1027B00001C082E09D81911106C095B5987F892B5B
:1027C00085BD44C085E09091B100987F892B8093AE
:1027D000B1003CC04801A12CB12C60E072E18AE755
:1027E00090E0A50194010E940E2469017A0181E024
:1027F000C81AD108E108F108C114D10491E0E90632
:10280000F10488F068E478EE81E090E0A50194019D
:102810000E940E2469017A0181E0C81AD108E108FA
:10282000F10883E001C081E09D81913079F49091BD
:102830008100987F892B80938100411451046104A9
:10284000710449F42FEF3FEFA9012CC0411451044A
:102850006104710471F0D801AA0FBB1FA30192019A
:102860000E942D2428EE33E040E050E00E946F24C7
:1028700003C02FEF3FEFA9018D81813099F08230A5
:1028800019F18111E2C0C7BC2093160730931707D6
:10289000409318075093190780916E0082608093CF
:1028A0006E00D3C0D0928900C09288002093120796
:1028B00030931307409314075093150780916F00CE
:1028C000826080936F00C1C0C092B3002093020762
:1028D00030930307409304075093050780917000DD
:1028E000826080937000B1C068E478EE81E090E08F
:1028F000A50194010E940E2469017A0191E0C91A90
:10290000D108E108F1082FEFC216D104E104F10467
:1029100041F138F164E274EF80E090E0A5019401A8
:102920000E940E2469017A0181E0C81AD108E108E9
:10293000F1089FEFC916D104E104F10409F008F48D
:1029400041CF62E17AE780E090E0A50194010E9426
:102950000E2469017A0181E0C81AD108E108F10862
:1029600019C084E030CF2FEFC216D104E104F10486
:1029700009F008F463C062E17AE780E090E0A50125
:1029800094010E940E2469017A0191E0C91AD108CC
:10299000E108F1088FEFC816D104E104F104A9F0B1
:1029A000A0F089819A81AB81BC812AE0B595A79579
:1029B000979587952A95D1F76C017D0121E0C21A80
:1029C000D108E108F10887E0FECE86E0FCCE82E087
:1029D000FACE8FEFC816D104E104F10469F160F179
:1029E00062E17AE780E090E0A50194010E940E2464
:1029F00069017A0191E0C91AD108E108F1082FEFC5
:102A0000C216D104E104F104A9F0A0F089819A81F1
:102A1000AB81BC813AE0B595A795979587953A9596
:102A2000D1F76C017D0121E0C21AD108E108F1085B
:102A300085E0C3CE84E0C1CE83E0BFCE84E0BACED1
:102A400061E085E00E94F00346CE0F900F900F905A
:102A50000F900F90DF91CF911F910F91FF90EF900A
:102A6000DF90CF90BF90AF909F908F907F906F90AE
:102A70005F904F900895FC01808191810C9487268E
:102A8000CF93DF93BC0183E994E00E94A702EC019D
:102A90006CE174E083E994E00E94A7028C0F9D1F13
:102AA000DF91CF9108958F929F92AF92BF92EF9254
:102AB000FF920F931F93CF93DF938B017C01C0E0B4
:102AC000D0E0C017D107A1F10E947D0460933A05C0
:102AD00070933B0580933C0590933D0582E395E020
:102AE0000E94981797FF1FC00E947D0480903A05AE
:102AF00090903B05A0903C05B0903D05DC01CB01DA
:102B000088199909AA09BB09809036059090370564
:102B1000A0903805B090390588159905AA05BB0520
:102B2000E8F28E0105C0F70181937F012196C9CF9C
:102B3000C801DF91CF911F910F91FF90EF90BF904F
:102B4000AF909F908F900895CF93DF9300D000D0E7
:102B5000CDB7DEB719821A821B821C8284E690E010
:102B6000A0E0B0E08093360590933705A093380538
:102B7000B093390564E070E0CE0101960E945315D0
:102B80008981813079F48A818F3F61F48B818F3F15
:102B900049F48C818F3F31F481E394E00E94401529
:102BA00081E005C08BE494E00E94401580E00F9026
:102BB0000F900F900F90DF91CF910895DC01519607
:102BC000ED91FC915297908150968C91809589233C
:102BD000808308958F929F92AF92BF920F931F931D
:102BE000CF93DF93CDB7DEB7A1970FB6F894DEBFD2
:102BF0000FBECDBF19A2423008F44AE08E010F5D2E
:102C00001F4F842E912CA12CB12CA50194010E9460
:102C10006F24E62FB901CA0101501109EA3014F4FA
:102C2000E05D01C0E95CD801EC93232B242B252B1C
:102C300061F7B80183E994E00E94A702A1960FB65C
:102C4000F894DEBF0FBECDBFDF91CF911F910F91E2
:102C5000BF90AF909F908F900895CF92DF92EF92A8
:102C6000FF92CF93DF936C01990FEE08FF08F7FEF8
:102C700013C06DE283E994E00E946F01EC016627C6
:102C80007727CB016C197D098E099F094AE00E94C4
:102C9000EA15C80FD91F06C04AE0C701B6010E9455
:102CA000EA15EC016CE174E083E994E00E94A7026C
:102CB0008C0F9D1FDF91CF91FF90EF90DF90CF9011
:102CC0000895CF92DF92EF92FF92CF93DF9382E34A
:102CD00095E00E948017181619060CF09DC06AE056
:102CE00070E080E090E00E94430482E395E00E945F
:102CF0009817C82F853659F782E395E00E94801710
:102D000006972CF3C0930607C7E0D7E082E395E06F
:102D10000E949817899387E0CD30D807B9F71092B1
:102D20000D0780910A078F3F91F680910B078F3F27
:102D300071F680910C078F3F51F6C0900907D12C96
:102D4000E12CF12C9091080720910707E4E0F1E0D5
:102D5000C191D191209709F4BACF88812813F8CF77
:102D600089819813F5CF6FE674E083E994E00E94BF
:102D7000BC024AE0BE010D2E000C880B990B0E948C
:102D8000EA156AE174E083E994E00E94BC0268817C
:102D900070E080E090E04AE00E94EA1561E774E0AC
:102DA00083E994E00E94BC02698170E080E090E0D9
:102DB0004AE00E94EA1561E774E083E994E00E942A
:102DC000BC026A817B816115710511F466E674E0CD
:102DD00083E994E00E94BC028DE694E00E944015D5
:102DE00081E0C816D104E104F10441F4EC81FD81D5
:102DF000309709F46CCF8E819F810CC0CD28CE28EE
:102E0000CF2809F064CFE885F985309709F45FCFC2
:102E10008A859B8509955BCFDF91CF91FF90EF90DD
:102E2000DF90CF900895EF92FF920F931F93CF936F
:102E3000DF9300D000D000D0CDB7DEB77C018B018E
:102E40006EE174E0CE0101960E946702F701628193
:102E50007381CE0101960E94360263E774E0CE01D1
:102E600001960E943602B801CE0101960E943602F8
:102E700068E774E0CE0101960E94360289819A814A
:102E80000E9450190E94A415182FCE0101960E948D
:102E90003B15812F26960FB6F894DEBF0FBECDBF2F
:102EA000DF91CF911F910F91FF90EF9008952091A6
:102EB0009004309191042817390781F490918E0481
:102EC00080918F04981751F0E0918E04F0E0E35E5A
:102ED000F84F8081082E000C990B08958FEF9FEF1B
:102EE000089520919004309191042817390739F4FE
:102EF0008FB7F89410928F0410928E048FBF0895AC
:102F000020919004309191042817390771F4809131
:102F10008F0420918E0490E0805C9F4F821B91096A
:102F200060E470E00E94BA25089580E090E0089582
:102F3000209190043091910428173907B9F49091A9
:102F40008E0480918F04981789F0E0918E04F0E050
:102F5000E35EF84F808120918E0430E02F5F3F4F79
:102F60002F73332720938E0490E008958FEF9FEF07
:102F70000895089580E090E008951F920F920FB693
:102F80000F9211242F933F938F939F93AF93BF93EF
:102F90008091860490918704A0918804B09189045F
:102FA00030915D0723E0230F2D3720F40196A11DFA
:102FB000B11D05C026E8230F0296A11DB11D209367
:102FC0005D078093860490938704A0938804B09350
:102FD000890480918A0490918B04A0918C04B09113
:102FE0008D040196A11DB11D80938A0490938B04DA
:102FF000A0938C04B0938D04BF91AF919F918F915A
:103000003F912F910F900FBE0F901F90189520E0C9
:1030100001972FEF8F3F9207D9F70895DF92EF9234
:10302000FF920F931F93CF93DF93EC01298D3A8D7D
:103030002115310529F481E090E09B838A835AC0F1
:10304000162FDFB6F8948B8D81FD4DC0CE010E9406
:10305000DE15898D9A8D05960E9407188B8D98E054
:10306000E92EF12C01E081FF1AC0812F802321F08D
:10307000CE010E94DE1506C0E989FA89908188890F
:10308000892B8083898D9A8D0E940718000F81E01B
:10309000E81AF10851F7CE010E94DE151CC0812FFD
:1030A000802339F0E989FA8990818889892B808386
:1030B00003C0CE010E94DE15898D9A8D0E940718EB
:1030C000000F81E0E81AF10851F7E989FA89908147
:1030D0008889892B8083DFBE898D9A8D0E9407188D
:1030E00021E030E007C0E989FA8990818889892B3D
:1030F0008083AFCFC901DF91CF911F910F91FF90D6
:10310000EF90DF9008951F920F920FB60F92112447
:10311000EF92FF920F931F932F933F934F935F93E1
:103120006F937F938F939F93AF93BF93CF93DF93CF
:10313000EF93FF93C0919004D0919104209709F4EC
:1031400050C09B8DEE85FF858D8591FF04C09081D9
:10315000892329F446C09081892309F042C08B89D4
:103160009C890E94071888E0E82EF12C10E001E00D
:103170008D899E890E940718EE85FF8590818D8537
:10318000892311F0102B03C0802F80951823000F86
:1031900081E0E81AF10861F78F89988D0E9407187D
:1031A0008B8D81FD109580918F0420918E0490E08D
:1031B00001968F73992730E08217930779F0E09199
:1031C0008F04F0E0E35EF84F108380918F0490E06D
:1031D00001968F73992780938F0403C08B8D816034
:1031E0008B8FFF91EF91DF91CF91BF91AF919F9125
:1031F0008F917F916F915F914F913F912F911F918F
:103200000F91FF90EF900F900FBE0F901F901895A9
:103210001F920F920FB60F9211242F933F934F934B
:103220005F936F937F938F939F93AF93BF93EF932E
:10323000FF930E948318FF91EF91BF91AF919F91EF
:103240008F917F916F915F914F913F912F910F904F
:103250000FBE0F901F9018951F920F920FB60F92EE
:1032600011242F933F934F935F936F937F938F938B
:103270009F93AF93BF93EF93FF930E948318FF91A7
:10328000EF91BF91AF919F918F917F916F915F91DE
:103290004F913F912F910F900FBE0F901F90189557
:1032A000CF93DF93EC0182E395E00E948017892B96
:1032B00029F082E395E00E949817F5CFBE0182E3E2
:1032C00095E00E94BC026FEF82E395E00E940E1829
:1032D0006FEF82E395E00E940E186FEF82E395E0B6
:1032E000DF91CF910C940E1860E083E00E943F03C1
:1032F00060E082E00E943F0360E084E00C943F03C2
:103300008F929F92AF92BF92EF92FF920F931F9373
:10331000CF93DF93CDB7DEB760970FB6F894DEBFDB
:103320000FBECDBF7C014A015B018E010F5F1F4FB5
:103330008AE0F80111928A95E9F76EE174E0CE0116
:103340000B960E9467024AE0B801C4010E948F22D6
:10335000F70162817381CE010B960E9436026AE703
:1033600074E0CE010B960E943602B801CE010B9696
:103370000E9436028B859C850E9450190E94A415DC
:10338000182FCE010B960E943B15812F60960FB629
:10339000F894DEBF0FBECDBFDF91CF911F910F918B
:1033A000FF90EF90BF90AF909F908F9008950F93F4
:1033B0001F93CF93DF9300D000D000D0CDB7DEB7FE
:1033C000FC010281138101151105B9F060E874E078
:1033D000CE0101960E946702B801CE0101960E94BB
:1033E000360289819A810E9450190E94A415182FD3
:1033F000CE0101960E943B1501C010E0812F269658
:103400000FB6F894DEBF0FBECDBFDF91CF911F91F5
:103410000F910895CF92DF92EF92FF920F931F9337
:10342000CF93DF936C010E940C0A0D2C000CEE0868
:10343000FF0808EEC00E03E0D01EE11CF11C092EAF
:10344000000CAA0BBB0B88519C4FAF4FBF4FEC0138
:103450000E947D0460935205709353058093540538
:1034600090935505960122533109C217D3070CF0EA
:1034700040C000911B0710911C0706301105CCF5C8
:1034800061E084E00E943F0361E083E00E943F032B
:1034900060E082E00E943F038091520590915305C5
:1034A000A0915405B091550540914E0550914F059E
:1034B00060915005709151056C017D01C41AD50AC7
:1034C000E60AF70A28EEC21623E0D206E104F10468
:1034D00008F456C080934E0590934F05A093500575
:1034E000B09351050F5F1F4F10931C0700931B07EC
:1034F00047C082E3C80ED11CCC16DD060CF042C0DA
:10350000E0901B07F0901C0706E0E016F104D4F5EC
:1035100061E084E00E943F0360E083E00E943F039B
:1035200061E082E00E943F03809152059091530533
:10353000A0915405B091550540914E0550914F050D
:1035400060915005709151058C019D01041B150B74
:10355000260B370BB901A801483E534061057105A0
:1035600078F080934E0590934F05A0935005B0934B
:1035700051052FEFE21AF20AF0921C07E0921B07A6
:1035800080E03DC081E090E02C173D0714F080E022
:1035900090E08C159D0534F080911B0790911C07DD
:1035A00006972CF160E084E00E943F0360E082E037
:1035B0000E943F0360E083E00E943F0380911B076D
:1035C00090911C070697D4F010921C0710921B07CD
:1035D00010921A0782E695E00E94D7194CED55E04B
:1035E00060E070E080EB94E00E94C91207C061E0E7
:1035F00070E080E090E00E94430401C081E0DF9130
:10360000CF911F910F91FF90EF90DF90CF90089591
:103610008F929F92AF92BF92EF92FF920F931F9360
:10362000CF93DF93CDB7DEB760970FB6F894DEBFC8
:103630000FBECDBF7C014A015B018E010F5F1F4FA2
:103640008AE0F80111928A95E9F76EE174E0CE0103
:103650000B960E9467024AE0B801C4010E948F22C3
:10366000F70162817381CE010B960E9436026AE7F0
:1036700074E0CE010B960E943602B801CE010B9683
:103680000E9436028B859C850E9450190E94A415C9
:10369000182FCE010B960E943B15812F60960FB616
:1036A000F894DEBF0FBECDBFDF91CF911F910F9178
:1036B000FF90EF90BF90AF909F908F900895789477
:1036C00084B5826084BD84B5816084BD85B5826027
:1036D00085BD85B5816085BD80916E0081608093D8
:1036E0006E00109281008091810082608093810041
:1036F0008091810081608093810080918000816051
:10370000809380008091B10084608093B1008091AB
:10371000B00081608093B00080917A0084608093D3
:103720007A0080917A00826080937A0080917A009A
:10373000816080937A0080917A00806880937A001B
:103740001092C10044EF51E060E070E080EB94E043
:103750000E94C9120E94340F61E083E00E94F003CE
:1037600061E082E00E94F00361E086E00E94F003E5
:1037700061E084E00E94F00361E087E00E94F003D2
:1037800061E085E00E94F00360E08EE00E94F003BB
:1037900060E08FE00E94F00360E081E10E94F003AE
:1037A00060E082E10E94F00360E083E00E943F035A
:1037B00060E082E00E943F0360E086E00E943F03F9
:1037C00060E084E00E943F0360E087E00E943F03E6
:1037D000E091A304F091A40482E08083E0919F042F
:1037E000F091A0041082E091A104F091A2048FEC6A
:1037F00080831092AB04E091A704F091A80486E0C6
:103800008083E091A504F091A6048081806180838B
:10381000E091A504F091A604808188608083E09106
:10382000A504F091A604808180688083E091A504BE
:10383000F091A60480818F7D808310924C051092B8
:103840004B0510924A0510924905109248051092B6
:103850004705109246051092450586E890E020E065
:1038600030E0FC0145915591659174914038554285
:103870006105710559F54CE0429FC001439F900DD1
:103880001124FC01E657FF4F2591349130934605F2
:1038900020934505FC01E457FF4F25913491309367
:1038A000480520934705FC01E257FF4F25913491CD
:1038B00030934A0520934905FC01E057FF4F85915D
:1038C000949190934C0580934B0507C02F5F3F4F19
:1038D0000C962D30310509F0C4CF809149059091A7
:1038E0004A05892B09F448C020913E052631F0F5A0
:1038F00040916800283058F031E02E3008F430E074
:1039000091E0892F01C0880F3A95EAF701C084E061
:10391000842B80936800283038F02E3040F0263118
:1039200048F4ECE6F0E008C0EDE6F0E005C0EBE6B8
:10393000F0E002C0E0E0F0E03081283030F491E0C7
:1039400001C0990F2A95EAF70EC0422F50E02E30A1
:1039500018F44850510902C04E50510991E001C07D
:10396000990F4A95EAF7892F832B808380914B0525
:1039700090914C050E9407188091900490919104B9
:103980008253954091F080914D058E7F80934D0537
:103990008FB7F89410928F0410928E0422E335E0D2
:1039A00030939104209390048FBF8EE194E00E94A5
:1039B000501983E691E00E9450190E94A4158BE6ED
:1039C00091E00E9450190E94A4158EE290E190931C
:1039D000EF058093EE051092F1051092F00589E74E
:1039E00092E1909377058093760510927905109275
:1039F000780580E091E19093CB058093CA05109201
:103A0000CD051092CC0580E390E19093A7068093BA
:103A1000A6061092A9061092A8068FEE9CE090933D
:103A2000530680935206109255061092540687E969
:103A30009EE09093470680934606109249061092A6
:103A400048068FE498E090939B0680939A06109224
:103A50009D0610929C068FE797E090938F068093C7
:103A60008E06109291061092900681E996E090934E
:103A7000830680938206109285061092840685E262
:103A800096E09093770680937606109279061092CE
:103A9000780681E09AE090936B0680936A06109214
:103AA0006D0610926C0688E595E09093170680935A
:103AB0001606109219061092180689E894E0909361
:103AC00023068093220610922506109224068AE986
:103AD00099E09093B3058093B2051092B5051092CA
:103AE000B40587E399E09093A7058093A60510920B
:103AF000A9051092A80580EA9DE090939B0580930C
:103B00009A0510929D0510929C0589EF99E090937B
:103B10008F0580938E0510929105109290058FEF7E
:103B200099E0909383058093820510928505109209
:103B3000840584EC9EE09093D7058093D60510927F
:103B4000D9051092D80582EA9EE09093A30680934F
:103B5000A2061092A5061092A40682EC9EE0909315
:103B6000970680939606109299061092980680EC1C
:103B70009EE090938B0680938A0610928D06109299
:103B80008C068EEB9EE090937F0680937E061092CB
:103B90008106109280068CEB9EE0909373068093D2
:103BA000720610927506109274068AEB9EE090934E
:103BB000670680936606109269061092680688EB85
:103BC0009EE090935B0680935A0610925D061092D9
:103BD0005C0686EB9EE09093F7058093F6051092C5
:103BE000F9051092F80584EB9EE09093EB05809325
:103BF000EA051092ED051092EC0582EB9EE09093A1
:103C0000DF058093DE051092E1051092E00580EB60
:103C10009EE09093D3058093D2051092D505109223
:103C2000D4058EEA9EE090934F0680934E06109244
:103C30005106109250068CEA9EE0909343068093C2
:103C4000420610924506109244068AEA9EE090933E
:103C5000370680933606109239061092380682E7AE
:103C600091E00E9440150E9461160E94DE01FBCF88
:103C70000F931F93CF93DF931092960410929504A5
:103C800088EE93E0A0E0B0E08093970490939804CE
:103C9000A0939904B0939A0423E431E03093940400
:103CA0002093930425EC30E03093A00420939F04EC
:103CB00024EC30E03093A2042093A10420EC30E007
:103CC0003093A4042093A30421EC30E03093A604A5
:103CD0002093A50422EC30E03093A8042093A7049D
:103CE00026EC30E03093AA042093A9041092AC048F
:103CF0001092AD041092AE041092AF0424E630E0AE
:103D0000309331052093300510923505109234051B
:103D10008093360590933705A0933805B093390505
:103D200085E591E090933305809332051092460526
:103D300010924505109248051092470510924A05C9
:103D40001092490510924C0510924B0580914D053B
:103D50008E7F8D7F80934D0561E08AE00E94F003A5
:103D600061E08AE00E943F03E4E5F1E0E491E09342
:103D70004205E0E4F1E0E491F0E0EE0FFF1FE45DC6
:103D8000FE4F85919491909344058093430560E0A4
:103D900089E00E94F00380914D0581FD04C061E03F
:103DA00089E00E943F0349E040933E05E3E5F1E0EE
:103DB000E491E0933F05EFE3F1E0E491F0E0EE0FF2
:103DC000FF1FEE5DFE4F8591949190934105809386
:103DD000400591E090939E0683E080939F0623E444
:103DE00032E03093A1062093A0061092A306109211
:103DF000A2061092A7061092A6061092A90610928B
:103E0000A8061092A5061092A40690939206E4E0EC
:103E1000E093930628E432E03093950620939406CD
:103E2000109297061092960610929B0610929A0690
:103E300010929D0610929C06109299061092980678
:103E40009093860655E0509387062DE432E0309338
:103E500089062093880610928B0610928A0610928B
:103E60008F0610928E061092910610929006109274
:103E70008D0610928C0690937A0666E060937B061E
:103E800026E532E030937D0620937C0610927F0673
:103E900010927E061092830610928206109285067A
:103EA00010928406109281061092800690936E06FE
:103EB00077E070936F0622E632E03093710620932C
:103EC0007006109273061092720610927706109286
:103ED0007606109279061092780610927506109266
:103EE00074069093620638E030936306A9E6B2E068
:103EF000B0936506A093640610926706109266065A
:103F000010926B0610926A0610926D0610926C0663
:103F100010926906109268069093560640935706D1
:103F2000A2E7B2E0B0935906A093580610925B0640
:103F300010925A0610925F0610925E061092610669
:103F40001092600610925D0610925C069093CE0669
:103F500022E02093CF06B093D106A093D006109212
:103F6000D3061092D2061092D7061092D60610925F
:103F7000D9061092D8061092D5061092D406209336
:103F80004A06F2E1F0934B06CDEDD2E0D0934D0618
:103F9000C0934C0610924F0610924E061092530694
:103FA0001092520610925506109254061092510625
:103FB0001092500620933E06F3E1F0933F06C8E7C7
:103FC000D2E0D0934106C09340061092430610926F
:103FD0004206109247061092460610924906109229
:103FE00048061092450610924406209332068093AC
:103FF0003306CCEED2E0D0933506C093340610924F
:1040000037061092360610923B0610923A0610922E
:104010003D0610923C061092390610923806209305
:10402000C206F9E1F093C3060DE712E01093C5064E
:104030000093C4061092C7061092C6061092CB06D3
:104040001092CA061092CD061092CC061092C906A4
:104050001092C8064093260680932706D09329061F
:10406000C093280610922B0610922A0610922F0653
:1040700010922E06109231061092300610922D06E4
:1040800010922C0640931A0630931B06C0E8D2E02B
:10409000D0931D06C0931C0610921F0610921E0698
:1040A00010922306109222061092250610922406E2
:1040B000109221061092200640930E0640930F06A0
:1040C000C7E8D2E0D0931106C093100610921306F1
:1040D00010921206109217061092160610921906E8
:1040E00010921806109215061092140650930A06A4
:1040F00090930B06C0E9D2E0D0930D06C0930C0656
:104100005093FE058093FF05CCE9D2E0D0930106E1
:10411000C093000610920306109202061092070642
:1041200010920606109209061092080610920506D3
:10413000109204068093F2052093F305CBEAD2E0B7
:10414000D093F505C093F4051092F7051092F6058B
:104150001092FB051092FA051092FD051092FC05D5
:104160001092F9051092F8058093E6058093E70513
:10417000C5EBD2E0D093E905C093E8051092EB05BA
:104180001092EA051092EF051092EE051092F105DB
:104190001092F0051092ED051092EC058093DA056F
:1041A000E093DB05CEEBD2E0D093DD05C093DC05D8
:1041B0001092DF051092DE051092E3051092E205E1
:1041C0001092E5051092E4051092E1051092E005C9
:1041D0008093CE055093CF05CAECD2E0D093D105A1
:1041E000C093D0051092D3051092D2051092D70536
:1041F0001092D6051092D9051092D8051092D505C7
:104200001092D4058093B6066093B706B093B906B2
:10421000A093B8061092BB061092BA061092BF0681
:104220001092BE061092C1061092C0061092BD06F2
:104230001092BC067093AA064BE04093AB06A0ED2B
:10424000B2E0B093AD06A093AC061092AF06109208
:10425000AE061092B3061092B2061092B5061092F6
:10426000B4061092B1061092B0067093C205809306
:10427000C305A4EDB2E0B093C505A093C4051092A8
:10428000C7051092C6051092CB051092CA05109270
:10429000CD051092CC051092C9051092C8057093F7
:1042A000B6052093B705A3EEB2E0B093B905A0938D
:1042B000B8051092BB051092BA051092BF05109276
:1042C000BE051092C1051092C0051092BD05109256
:1042D000BC053093AA056093AB05A1EFB2E0B093A3
:1042E000AD05A093AC051092AF051092AE051092EB
:1042F000B3051092B2051092B5051092B405109254
:10430000B1051092B00530939E0550939F0548EF7C
:1043100052E05093A1054093A0051092A30510927E
:10432000A2051092A7051092A6051092A905109259
:10433000A8051092A5051092A405309392058093CC
:10434000930540E053E050939505409394051092F7
:1043500097051092960510929B0510929A0510925F
:104360009D0510929C051092990510929805309326
:104370008605E093870548E053E050938905409314
:10438000880510928B0510928A0510928F05109265
:104390008E05109291051092900510928D05109245
:1043A0008C0530937A0520937B052FE033E0309322
:1043B0007D0520937C0510927F0510927E0510925A
:1043C0008305109282051092850510928405109243
:1043D00081051092800560936E0590936F0526E12C
:1043E00033E030937105209370051092730510929D
:1043F0007205109277051092760510927905109249
:10440000780510927505109274058DE08093620511
:104410001092630529E133E030936505209364052C
:10442000109267051092660510926B0510926A054E
:1044300010926D0510926C05109269051092680536
:10444000809356059093570530935905209358054E
:1044500010925B0510925A0510925F0510925E054E
:10446000109261051092600510925D0510925C0536
:104470000E947D0460935205709353058093540508
:10448000909355050E947D0460934E0570934F05EF
:104490008093500590935105DF91CF911F910F911B
:1044A000089585E591E0909333058093320520913E
:1044B0003E05263140F5283028F02E3030F0ECE66D
:1044C000F0E005C0EDE6F0E002C0EBE6F0E03081A0
:1044D000283038F481E090E001C0880F2A95EAF78F
:1044E0000FC0422F50E02E3018F44850510902C03E
:1044F0004E50510981E090E001C0880F4A95EAF7DB
:104500008095832380830895BB274A3031F4992313
:1045100022F4BDE2909581959F4F0C949022BB2789
:10452000FB015527AA27880F991FAA1FA41710F06F
:10453000A41B83955051B9F7A05DAA3308F0A95D7B
:10454000A193009779F7B111B1931192CB010C941B
:10455000A922DC01FC01672F71917723E1F73297E3
:1045600004C07C916D9370836291AE17BF07C8F34E
:1045700008950E94FB2208F481E00895E89409C0A0
:1045800097FB3EF490958095709561957F4F8F4F86
:104590009F4F9923A9F0F92F96E9BB279395F6959C
:1045A000879577956795B795F111F8CFFAF4BB0F1A
:1045B00011F460FF1BC06F5F7F4F8F4F9F4F16C07E
:1045C000882311F096E911C0772321F09EE8872F08
:1045D000762F05C0662371F096E8862F70E060E0C4
:1045E0002AF09A95660F771F881FDAF7880F96953D
:1045F000879597F90895990F0008550FAA0BE0E8E1
:10460000FEEF16161706E807F907C0F01216130694
:10461000E407F50798F0621B730B840B950B39F4D4
:104620000A2661F0232B242B252B21F408950A263A
:1046300009F4A140A6958FEF811D811D08950E9468
:1046400032230C94A3230E94952338F00E949C23CC
:1046500020F0952311F00C948C230C9492231124B8
:104660000C94D7230E94B42370F3959FC1F3950F48
:1046700050E0551F629FF001729FBB27F00DB11DE6
:10468000639FAA27F00DB11DAA1F649F6627B00D76
:10469000A11D661F829F2227B00DA11D621F739F5F
:1046A000B00DA11D621F839FA00D611D221F749F6D
:1046B0003327A00D611D231F849F600D211D822FB4
:1046C000762F6A2F11249F5750409AF0F1F08823DB
:1046D0004AF0EE0FFF1FBB1F661F771F881F915008
:1046E0005040A9F79E3F510580F00C948C230C9408
:1046F000D7235F3FE4F3983ED4F38695779567958B
:10470000B795F795E7959F5FC1F7FE2B880F911D31
:104710009695879597F9089597F99F6780E870E0D7
:1047200060E008959FEF80EC089500240A94161627
:10473000170618060906089500240A94121613068F
:10474000140605060895092E0394000C11F488231D
:1047500052F0BB0F40F4BF2B11F460FF04C06F5F39
:104760007F4F8F4F9F4F089557FD9058440F551F0F
:1047700059F05F3F71F04795880F97FB991F61F0E3
:104780009F3F79F087950895121613061406551F5A
:10479000F2CF4695F1DF08C0161617061806991FC6
:1047A000F1CF86957105610508940895E894BB27BB
:1047B00066277727CB0197F90895DC01CB01FC012F
:1047C000F999FECF06C0F2BDE1BDF89A319600B46A
:1047D0000D9241505040B8F70895F999FECF92BD1F
:1047E00081BDF89A992780B50895A8E1B0E042E02C
:1047F00050E00C94DF23262FF999FECF1FBA92BD0B
:1048000081BD20BD0FB6F894FA9AF99A0FBE0196B1
:1048100008950E94FB23272F0C94FC23052E97FB61
:104820001EF400940E94252457FD07D00E946F2497
:1048300007FC03D04EF40C942524509540953095F8
:1048400021953F4F4F4F5F4F0895909580957095FC
:1048500061957F4F8F4F9F4F08950E949124A59F90
:10486000900DB49F900DA49F800D911D112408956B
:104870002F923F924F925F926F927F928F929F9270
:10488000AF92BF92CF92DF92EF92FF920F931F935E
:10489000CF93DF93CDB7DEB7CA1BDB0B0FB6F8940F
:1048A000DEBF0FBECDBF09942A88398848885F844F
:1048B0006E847D848C849B84AA84B984C884DF80C0
:1048C000EE80FD800C811B81AA81B981CE0FD11DA4
:1048D0000FB6F894DEBF0FBECDBFED010895A1E283
:1048E0001A2EAA1BBB1BFD010DC0AA1FBB1FEE1F6A
:1048F000FF1FA217B307E407F50720F0A21BB30BB5
:10490000E40BF50B661F771F881F991F1A9469F730
:1049100060957095809590959B01AC01BD01CF018C
:104920000895A29FB001B39FC001A39F700D811D88
:104930001124911DB29F700D811D1124911D0895A8
:104940005058BB27AA270E94B8240C94A3230E9486
:10495000952338F00E949C2320F039F49F3F19F4EE
:1049600026F40C9492230EF4E095E7FB0C948C2330
:10497000E92F0E94B42358F3BA176207730784071C
:10498000950720F079F4A6F50C94D6230EF4E09563
:104990000B2EBA2FA02D0B01B90190010C01CA01F9
:1049A000A0011124FF27591B99F0593F50F4503EA4
:1049B00068F11A16F040A22F232F342F4427585F96
:1049C000F3CF469537952795A795F0405395C9F7AE
:1049D0007EF41F16BA0B620B730B840BBAF0915066
:1049E000A1F0FF0FBB1F661F771F881FC2F70EC005
:1049F000BA0F621F731F841F48F4879577956795D8
:104A0000B795F7959E3F08F0B0CF9395880F08F0C3
:104A10009927EE0F9795879508950E9421250C946C
:104A2000A3230E949C2358F00E94952340F029F470
:104A30005F3F29F00C948C2351110C94D7230C94D4
:104A400092230E94B42368F39923B1F3552391F381
:104A5000951B550BBB27AA2762177307840738F0ED
:104A60009F5F5F4F220F331F441FAA1FA9F335D04A
:104A70000E2E3AF0E0E832D091505040E695001CFE
:104A8000CAF72BD0FE2F29D0660F771F881FBB1FB8
:104A9000261737074807AB07B0E809F0BB0B802D96
:104AA000BF01FF2793585F4F3AF09E3F510578F0C2
:104AB0000C948C230C94D7235F3FE4F3983ED4F3FB
:104AC000869577956795B795F7959F5FC9F7880F96
:104AD000911D9695879597F90895E1E0660F771FE8
:104AE000881FBB1F621773078407BA0720F0621B79
:104AF000730B840BBA0BEE1F88F7E09508950E94A4
:104B000086256894B1110C94D72308950E94BC2384
:104B100088F09F5798F0B92F9927B751B0F0E1F07E
:104B2000660F771F881F991F1AF0BA95C9F714C02E
:104B3000B13091F00E94D623B1E008950C94D623B1
:104B4000672F782F8827B85F39F0B93FCCF3869567
:104B500077956795B395D9F73EF4909580957095C4
:104B600061957F4F8F4F9F4F08950E94FB2208F45D
:104B70008FEF089597FB072E16F4009407D077FD6A
:104B800009D00E94D52507FC05D03EF4909581956B
:104B90009F4F0895709561957F4F08950E949124CD
:104BA000B7FF0895821B930B0895AA1BBB1B51E10D
:104BB00007C0AA1FBB1FA617B70710F0A61BB70B8D
:104BC000881F991F5A95A9F780959095BC01CD0132
:104BD0000895EE0FFF1F0590F491E02D09940F93B7
:104BE0001F93CF93DF938230910510F482E090E021
:104BF000E0916007F091610720E030E0A0E0B0E0D4
:104C0000309719F14081518102811381481759076A
:104C1000C8F08417950769F4109731F012960C9339
:104C2000129713961C9327C0009360071093610797
:104C300022C02115310519F04217530718F49A01C3
:104C4000BD01EF01DF01F801DBCF21153105F9F0DE
:104C5000281B390B2430310580F48A819B81611532
:104C6000710521F0FB019383828304C09093610757
:104C700080936007FE01329644C0FE01E20FF31FED
:104C80008193919322503109398328833AC020912E
:104C90005E0730915F07232B41F420913B01309157
:104CA0003C0130935F0720935E07209139013091DA
:104CB0003A012115310541F42DB73EB740913D0130
:104CC00050913E01241B350BE0915E07F0915F0788
:104CD000E217F307A0F42E1B3F0B2817390778F0D3
:104CE000AC014E5F5F4F2417350748F04E0F5F1F32
:104CF00050935F0740935E078193919302C0E0E079
:104D0000F0E0CF01DF91CF911F910F910895CF93E4
:104D1000DF93009709F481C0FC013297138212825D
:104D2000A0916007B0916107109781F420813181D3
:104D3000820F931F20915E0730915F072817390774
:104D400051F5F0935F07E0935E0767C0ED0120E047
:104D500030E0CE17DF0740F44A815B819E014115A8
:104D60005105F1F0EA01F5CFD383C283408151812F
:104D7000840F951FC817D90759F488819981840F2A
:104D8000951F0296918380838A819B81938382837E
:104D90002115310529F4F0936107E09360073DC0C8
:104DA000E901FB83EA8349915991C40FD51FEC17A0
:104DB000FD0761F480819181840F951F0296E901BE
:104DC00099838883828193819B838A83E0E0F0E0EA
:104DD00012968D919C911397009719F0FD01DC01BB
:104DE000F7CF8D919C9111979D012E5F3F4F820FC0
:104DF000931F20915E0730915F072817390769F4E8
:104E0000309729F4109261071092600702C0138254
:104E10001282B0935F07A0935E07DF91CF91089550
:104E2000A0E0B0E0E6E1F7E20C943C24EC0100974E
:104E300021F4CB010E94EF25B4C0FC01E60FF71F5F
:104E40009C0122503109E217F30708F4A8C0D901E8
:104E50000D911C91119706171707B0F00530110539
:104E600008F49BC0C80104978617970708F495C0FB
:104E700002501109061B170B019311936D937C933C
:104E8000CF010E94872689C05B01A01AB10A4C019C
:104E9000800E911EA0916007B0916107612C712C6A
:104EA000E12CF12C109709F446C08D919C9111973B
:104EB000A815B905B1F56C0142E0C40ED11CCA14A5
:104EC000DB0478F14C018A189B08640142E0C40EAF
:104ED000D11C1296BC9012971396AC91B5E0CB16EC
:104EE000D10440F0B282A38391828082D9016D9374
:104EF0007C9309C00E5F1F4F800F911FF9019183B2
:104F00008083EB2DFA2FE114F10431F0D7011396D1
:104F1000FC93EE93129741C0F0936107E093600712
:104F20003CC06816790608F43C017D0112960D908C
:104F3000BC91A02DB7CF80915E0790915F07881636
:104F40009906E1F466167706C8F4809139019091CC
:104F50003A01009741F48DB79EB740913D015091C1
:104F60003E01841B950BE817F907C8F4F0935F071F
:104F7000E0935E07F901718360830FC0CB010E944B
:104F8000EF257C01009759F0A801BE010E94DB27A4
:104F9000CE010E948726C70104C0CE0102C080E076
:104FA00090E0CDB7DEB7EEE00C94582481E090E0BD
:104FB000F8940C94EB27FB01DC0102C001900D92E8
:104FC00041505040D8F70895FB01DC0101900D924B
:104FD0000020E1F7089510E0C1EBD0E004C0FE012D
:104FE0000E94E9252196C23BD107C9F7F894FFCF6B
:104FF0001C0CE0FC9E06920686067A066E06620689
:10500000560626060E061A064A063E063206AA0569
:105010009E05920586057A05F205E605CE05C205D0
:10502000B6056E0556050000FF000062078000000F
:105030000000006F01DC000601BC013701150129E9
:1050400001000000000E18DC00BA177117801798D5
:10505000175717626B636D643D310070616765209F
:105060003000736574757020646F6E6500766163DF
:1050700075756D4D616E75506F7043616C6C4261FA
:10508000636B006E31006E3200676175676544695D
:1050900067694D616E006761756765416E614D615D
:1050A0006E0070726573737572654D616E75506FC9
:1050B0007043616C6C4261636B006D616E75616C15
:1050C000526570506F7043616C6C4261636B00633A
:1050D0006F6D6269526570506F7043616C6C4261B4
:1050E000636B0070726F67726573734379636C658D
:1050F0000070726F677265737352657000676175D7
:1051000067654469676952657000676175676541E5
:105110006E616C6F67006E38006E370062756C6C84
:1051200073457965526570506F7043616C6C426174
:10513000636B006661737400737461720062756CF6
:105140006C7365796500636F6D62696E6174696F18
:105150006E006D616E75616C007576437572696E77
:10516000670073657475700053746F700074340059
:1051700076616375756D0070726573737572650025
:1051800070726F6772657373426174006261744C10
:105190006576656C416E616C6F67006C616E6775FA
:1051A00061676573006261744C6576656C0063616C
:1051B0006C6962726174696F6E00696E666F73000C
:1051C00061746D0063616C696272617465537461CE
:1051D00072740063616C69627261746545786974A8
:1051E00000706C75735556006D696E757355560079
:1051F000737461727455560073746F705556006500
:105200007869745556006830005072657373757212
:10521000654C65616B006E3000637572696E675531
:1052200056506F7043616C6C4261636B006E34006A
:105230006E33006E36006E350064657061727441C5
:1052400075746F506F7043616C6C4261636B007179
:1052500032002E706963633D00617272657441753E
:10526000746F506F7043616C6C6261636B00736547
:105270007269616C00726570616972730020202030
:105280002020007061676530007370656564526549
:1052900070506F7043616C6C6261636B0063616C32
:1052A0006962726174696F6E506F7043616C6C42B9
:1052B00061636B0067617567654469676943616C29
:1052C0000063616C6962726174654761756765004E
:1052D00070726F677265737342617243616C0074C0
:1052E00075726E4F6666506F7043616C6C4261639D
:1052F0006B0067657420002E76616C0072656376C2
:105300005265744E756D626572203A000D0A007226
:105310006563765265744E756D6265722065727252
:105320000072656376526574436F6D6D616E64469D
:10533000696E6973686564206F6B0072656376528D
:105340006574436F6D6D616E6446696E69736865FF
:10535000642065727200286E756C6C29005D005BBC
:10536000002C002E7478743D22002E76616C3D0076
:065370007061676520007A
:107E0000112484B714BE81FFF0D085E080938100F7
:107E100082E08093C00088E18093C10086E0809377
:107E2000C20080E18093C4008EE0C9D0259A86E02C
:107E300020E33CEF91E0309385002093840096BBD3
:107E4000B09BFECF1D9AA8958150A9F7CC24DD24C4
:107E500088248394B5E0AB2EA1E19A2EF3E0BF2EE7
:107E6000A2D0813461F49FD0082FAFD0023811F036
:107E7000013811F484E001C083E08DD089C08234E0
:107E800011F484E103C0853419F485E0A6D080C0E4
:107E9000853579F488D0E82EFF2485D0082F10E0AE
:107EA000102F00270E291F29000F111F8ED06801E7
:107EB0006FC0863521F484E090D080E0DECF843638
:107EC00009F040C070D06FD0082F6DD080E0C81688
:107ED00080E7D80618F4F601B7BEE895C0E0D1E017
:107EE00062D089930C17E1F7F0E0CF16F0E7DF06D8
:107EF00018F0F601B7BEE89568D007B600FCFDCFD4
:107F0000A601A0E0B1E02C9130E011968C91119780
:107F100090E0982F8827822B932B1296FA010C0160
:107F200087BEE89511244E5F5F4FF1E0A038BF0790
:107F300051F7F601A7BEE89507B600FCFDCF97BE46
:107F4000E89526C08437B1F42ED02DD0F82E2BD052
:107F50003CD0F601EF2C8F010F5F1F4F84911BD097
:107F6000EA94F801C1F70894C11CD11CFA94CF0C13
:107F7000D11C0EC0853739F428D08EE10CD085E9AC
:107F80000AD08FE07ACF813511F488E018D01DD067
:107F900080E101D065CF982F8091C00085FFFCCF94
:107FA0009093C60008958091C00087FFFCCF809118
:107FB000C00084FD01C0A8958091C6000895E0E648
:107FC000F0E098E1908380830895EDDF803219F02E
:107FD00088E0F5DFFFCF84E1DECF1F93182FE3DFCA
:107FE0001150E9F7F2DF1F91089580E0E8DFEE27F6
:047FF000FF270994CA
:027FFE00040479
:0400000300007E007B
:00000001FF
