:100000000C94B2000C94DA000C94DA000C94A11A4F
:100010000C944A1B0C94261B0C94DA000C94F709E0
:100020000C94DA000C94DA000C94DA000C94DA00E8
:100030000C94DA000C94DA000C94DA000C94DA00D8
:100040000C94DB190C94DA000C946D090C9447099C
:100050000C94DA000C94DA000C94DA000C94DA00B8
:100060000C94DA000C94DA00000000002300260053
:10007000290000000000250028002B0004040404CF
:100080000404040402020202020203030303030342
:10009000010204081020408001020408102001021F
:1000A0000408102000000000240027002A0000009F
:1000B0000008000201000003040700000000000027
:1000C000000000C201000100110011000C0000E15D
:1000D00000000A00250025002100009600001900FC
:1000E000390039003600127A00001F004600460031
:1000F00044008070000022004D004D004A00004B7B
:1001000000003600750075007200403800004A009B
:100110009C009C009900802500007200EC00EC001F
:10012000E900C0120000E900DA01DA01D701600934
:100130000000D701B603B603B303B0040000B30355
:100140006E076E076B07580200006E07DC0EDC0EB0
:10015000D80E2C010000DC0EC11DC11DBE1D020009
:10016000261D612411241FBECFEFD8E0DEBFCDBF16
:1001700014E0A0E0B1E0E0E1F4E502C005900D92EA
:10018000AE3CB107D9F727E0AEECB4E001C01D9258
:10019000A23CB207E1F710E0C1EBD0E004C0219728
:1001A000FE010E94F927C03BD107C9F70E947421C4
:1001B0000C94FB290C94000087E691E00E94D6166F
:1001C000109272070E94921B8091720708954AE074
:1001D00050E060E070E088EC90E00C945F140C94C8
:1001E000E7000C94E7000C94E7000C94E7000C94F3
:1001F000E7000C94E7000C94E7000C94E7000C94E3
:10020000E7000C94E7000C94E7000C94E7000C94D2
:10021000E700FF920F931F93CF93DF93CDB7DEB725
:1002200062970FB6F894DEBF0FBECDBF86E0EBE855
:10023000F1E0DE011D9601900D928A95E1F700E054
:1002400010E041E050E0B8018DE090E08C0F9D1F80
:10025000800F911F0E94ED250F5F1F4F0530110584
:1002600081F78AE0F82EF98285E08A838CE791E0B5
:100270009C838B831E821D821A8619861C861B8690
:1002800018861F82BE01635F7F4FCE0101960E94D8
:100290000019CE010D960E94D61684E190E00E94CE
:1002A00005268C01F98283E08A8383E891E09C83B0
:1002B0008B831E821D821A8619861C861B861886D1
:1002C0001F82A801012E000C660B770BCE01019650
:1002D0000E94A918C8010E94C31762960FB6F8942D
:1002E000DEBF0FBECDBFDF91CF911F910F91FF9069
:1002F0000895CF92DF92EF92FF92CF93DF938FE03A
:100300000E94B50A2FE420937C00EFE0F0E03197E3
:10031000F1F72EE420937C00EBE1F3E03197F1F765
:1003200020917A00206820937A0020917A0020643E
:1003300020937A0020917A0026FDFCCFC0917800AE
:10034000D0917900BC0180E090E00E94CE242DEC99
:100350003CEC4CE85FE30E942F256B017C016C2F85
:1003600070E07D2B80E090E00E94CE249B01AC01E8
:10037000C701B6010E941D2720E030E040E450E4B0
:100380000E942F256B017C016093CF047093D004F1
:100390008093D1049093D20420E030E040E651E411
:1003A0000E94C52787FF1BC020E030E040E451E4F5
:1003B000C701B6010E94C92487FD14C020E030E0C7
:1003C00040E451E4C701B6010E94B0262AE037EDAF
:1003D00043EA5CE30E941D270E94962705C064E65D
:1003E00070E002C060E070E0AB0160E070E080E4CB
:1003F00096E00E949E1B68EE73E080E090E0DF9143
:10040000CF91FF90EF90DF90CF900C94CC0A0F9398
:100410001F93CF93DF93CDB7DEB72C970FB6F89429
:10042000DEBF0FBECDBF0E94790126E636E646E468
:1004300051E46091CF047091D0048091D1049091E7
:10044000D2040E94C92487FF37C0E0ECF0E0849119
:10045000E2EAF0E00491EEE8F0E01491112371F08B
:1004600081110E949F09E12FF0E0EE0FFF1FE85974
:10047000FF4FA591B491EC91E023D9F481E08093F2
:10048000CE048091CE04811117C08EE089831A8238
:1004900081E991E09C838B831E821D821A861986D6
:1004A0001C861B8618861F82CE0101960E94F51BB2
:1004B00003C01092CE04E5CF2C960FB6F894DEBFA1
:1004C0000FBECDBFDF91CF911F910F9108950C9476
:1004D00079019F92AF92BF92CF92DF92EF92FF92FB
:1004E0000F931F93CF93DF93CDB7DEB72C970FB643
:1004F000F894DEBF0FBECDBF87E991E00E94D6160B
:100500000E94070288E790E090934207809341079A
:100510009093400780933F0790933E0780933D0759
:1005200090933C0780933B0780EE91E090934A07BD
:100530008093490712E0198382E1982E9A829EEAFD
:10054000A92E91E0B92EBC82AB821E821D821A8632
:1005500019861C861B8618861F8240E050E0BA016F
:10056000CE0101960E94A9188091490790914A07EF
:100570002CE3C22ED12CB6010E94CA27AB01770F03
:10058000660B770B198301E10A8331EBE32E31E02F
:10059000F32EFC82EB821E821D821A8619861C862F
:1005A0001B8618861F82CE0101960E94A918198306
:1005B00085E08A8384EB91E09C838B8340E050E06C
:1005C000BA01CE0101960E949E1B198386E08A83A0
:1005D00082EC91E09C838B8340E050E0BA01CE0135
:1005E00001960E949E1B8091490790914A07B6018F
:1005F0000E94CA27AC01990F660B770B19839A8268
:10060000BC82AB821E821D821A8619861C861B86BE
:1006100018861F82CE0101960E94A9188091490771
:1006200090914A07B6010E94CA27AB01770F660B6B
:10063000770B19830A83FC82EB821E821D821A8645
:1006400019861C861B8618861F82CE0101960E9481
:10065000A9180E94DB0B9C0119831A838EEC91E090
:100660009C838B83C901330FAA0BBB0B9C01AD018B
:1006700028513C4F4F4F5F4FA8EDB0E00E943D2600
:1006800020EA3FE040E050E00E941E26BA01A901A6
:10069000CE0101960E949E1B0E94DB0B909348079F
:1006A000809347074AE063E477E00E94942419832B
:1006B0008BE18A838AED91E09C838B831E821D826D
:1006C0001A8619861C861B8618861F8263E477E0CB
:1006D000CE0101960E9400192C960FB6F894DEBF49
:1006E0000FBECDBFDF91CF911F910F91FF90EF9083
:1006F000DF90CF90BF90AF909F9008956F927F92C0
:100700008F929F92AF92BF92CF92DF92EF92FF9221
:100710000F931F93CF93DF93CDB7DEB72C970FB610
:10072000F894DEBF0FBECDBF0E94070228E730E07D
:10073000309342072093410784EB90E09093400769
:1007400080933F0730933E0720933D0790933C07EB
:1007500080933B0788E592E090934A07809349078E
:1007600012E0198382E1682E6A829EEA892E91E066
:10077000992E9C828B821E821D821A8619861C8667
:100780001B8618861F8240E050E0BA01CE01019618
:100790000E94A9188091490790914A072CE3E22E04
:1007A000F12CB7010E94CA27AB01770F660B770BBC
:1007B000198331E1732E7A82E1EBAE2EE1E0BE2E99
:1007C000BC82AB821E821D821A8619861C861B86FD
:1007D00018861F82CE0101960E94A918198385E010
:1007E0008A8384EB91E09C838B8340E050E0BA01E4
:1007F000CE0101960E949E1B198386E08A8382ECBB
:1008000091E09C838B8340E050E0BA01CE010196D9
:100810000E949E1B0E94DB0B909348078093470722
:100820004AE063E477E00E94942419830BE10A8391
:10083000FAEDCF2EF1E0DF2EDC82CB821E821D820C
:100840001A8619861C861B8618861F8263E477E049
:10085000CE0101960E9400190E94DB0B9C011983B6
:100860001A838EEC91E09C838B83C901330FAA0B12
:10087000BB0B9C01AD0128513C4F4F4F5F4FA8ED82
:10088000B0E00E943D2620EA3FE040E050E00E94B8
:100890001E26BA01A901CE0101960E949E1B8091DD
:1008A000490790914A07B7010E94CA27AC01990FE6
:1008B000660B770B19836A829C828B821E821D8253
:1008C0001A8619861C861B8618861F82CE01019601
:1008D0000E94A9188091490790914A07B7010E9488
:1008E000CA27AB01770F660B770B19837A82BC821C
:1008F000AB821E821D821A8619861C861B8618866C
:100900001F82CE0101960E94A91819830A83DC82F6
:10091000CB821E821D821A8619861C861B8618862B
:100920001F8263E477E0CE0101960E9400192C96A5
:100930000FB6F894DEBF0FBECDBFDF91CF911F91F0
:100940000F91FF90EF90DF90CF90BF90AF909F906E
:100950008F907F906F9008959F92AF92BF92CF92A9
:10096000DF92EF92FF920F931F93CF93DF93CDB758
:10097000DEB72C970FB6F894DEBF0FBECDBF87EE63
:1009800091E00E94D6160E9407028CE3E82EF12C1B
:10099000F0924207E092410788E790E09093400789
:1009A00080933F07F0923E07E0923D0790933C070B
:1009B00080933B0788E691E090934A07809349072C
:1009C00012E0198392E1992E9A822EEAA22E21E05A
:1009D000B22EBC82AB821E821D821A8619861C86AC
:1009E0001B8618861F8240E050E0BA01CE010196B6
:1009F0000E94A9188091490790914A07B7010E9467
:100A0000CA27AB01770F660B770B198301E10A83C5
:100A100031EBC32E31E0D32EDC82CB821E821D82CD
:100A20001A8619861C861B8618861F82CE0101969F
:100A30000E94A918198385E08A8384EB91E09C8346
:100A40008B8340E050E0BA01CE0101960E949E1BCC
:100A5000198386E08A8382EC91E09C838B8340E05B
:100A600050E0BA01CE0101960E949E1B0E94DB0B52
:100A700090934807809347074AE063E477E00E9439
:100A800094240E94DB0B9C0119831A838EEC91E065
:100A90009C838B83C901330FAA0BBB0B9C01AD0157
:100AA00028513C4F4F4F5F4FA8EDB0E00E943D26CC
:100AB00020EA3FE040E050E00E941E26BA01A90172
:100AC000CE0101960E949E1B8091490790914A0792
:100AD000B7010E94CA27AC01990F660B770B1983E7
:100AE0009A82BC82AB821E821D821A8619861C865F
:100AF0001B8618861F82CE0101960E94A91880913C
:100B0000490790914A07B7010E94CA27AB01770FA6
:100B1000660B770B19830A83DC82CB821E821D82CF
:100B20001A8619861C861B8618861F82CE0101969E
:100B30000E94A91819838BE18A838AED91E09C8336
:100B40008B831E821D821A8619861C861B86188638
:100B50001F8263E477E0CE0101960E9400192C9673
:100B60000FB6F894DEBF0FBECDBFDF91CF911F91BE
:100B70000F91FF90EF90DF90CF90BF90AF909F903C
:100B800008952F923F924F925F926F927F928F9231
:100B90009F92AF92BF92CF92DF92EF92FF920F930C
:100BA0001F93CF93DF93CDB7DEB72E970FB6F89490
:100BB000DEBF0FBECDBF8BEF91E00E94D616109224
:100BC0003A0710923907109248071092470784E6B7
:100BD000C82ED12CE12CF12C17E090EA292E9FE0B1
:100BE000392E412C512C04E02EE2622E22E0722E8E
:100BF0003AE0832E912CA12CB12C8EE00E94B50AF4
:100C0000BC01990F880B990B0E94D0242AE038E28E
:100C100040EA5BE30E942F252DEC3CEC4CE45EE3C4
:100C20000E94B1260E948F2748E55BE1469F900114
:100C3000479F300D569F300D1124B901330F880B9B
:100C4000990B0E94D02420E030E040E950E40E945B
:100C50001D270E948F27DC01CB019093D404809341
:100C6000D30490934807809347074AE063E477E012
:100C70000E949424198358E05A8382E192E09C8375
:100C80008B831E821D821A8619861C861B861886F7
:100C90001F8263E477E0CE0101960E940019209143
:100CA000D3043091D404C901330FAA0BBB0B9C01B0
:100CB000AD0128513C4F4F4F5F4FA8EDB0E00E946F
:100CC0003D26A20191010E941E26BA01A9011983A5
:100CD00095E09A838FE192E09C838B83CE0101960D
:100CE0000E949E1B19830A837C826B82C701B60116
:100CF000A50194010E941E26BA01A901CE01019608
:100D00000E949E1B2091390730913A078091D304AD
:100D10009091D404820F931F90933A0780933907E0
:100D200068EE73E080E090E00E94CC0A94E6C90E81
:100D3000D11CE11CF11C4CE4C41644E0D406E104CF
:100D4000F10409F05ACF8091390790913A076AE08F
:100D500070E00E94CA2770933A07609339077E8734
:100D60006D878AE090E00E94FD256D85681721F06F
:100D70008AE090E00E940B268BE090E00E94FD2527
:100D80006E85861721F08BE090E00E940B26809103
:100D9000390790913A070E94C3172091D3043091EC
:100DA000D4048091390790913A07281B390BC90167
:100DB000330FAA0BBB0B9C01AD0128513C4F4F4F89
:100DC0005F4FA8EDB0E00E943D2620EA3FE040E002
:100DD00050E00E941E26BA01A90117E0198385E0A0
:100DE0008A838FE192E09C838B83CE0101960E94DF
:100DF0009E1B8091D3049091D404209139073091A7
:100E00003A07821B930B90934807809347074AE069
:100E100063E477E00E949424198388E08A8382E166
:100E200092E09C838B831E821D821A8619861C8603
:100E30001B8618861F8263E477E0CE0101960E942C
:100E400000192E960FB6F894DEBF0FBECDBFDF910E
:100E5000CF911F910F91FF90EF90DF90CF90BF90B7
:100E6000AF909F908F907F906F905F904F903F904A
:100E70002F900895CF93DF93CDB7DEB72E970FB69F
:100E8000F894DEBF0FBECDBF8DE392E00E94D61670
:100E900060E572E0CE0109960E94F0086091B2050B
:100EA0007091B305CE0109960E94BF0865E572E016
:100EB000CE0109960E94BF0889859A850E946E1B03
:100EC000FE01319688E0DF011D928A95E9F78DE6F3
:100ED00092E00E94D616CE0109960E94D11644EFE8
:100EE00051E060E070E080EB94E00E945F1464EFFA
:100EF00071E080E090E00E94CC0A61E086E00E9410
:100F0000C8092E960FB6F894DEBF0FBECDBFDF9195
:100F1000CF910895CF92DF92EF92FF920F931F939C
:100F2000CF93DF936C017A018B01C0E0D0E0CE1546
:100F3000DF0581F0D8016D918D01D601ED91FC9115
:100F40000190F081E02DC6010995892B11F02196C1
:100F5000EECF7E01C701DF91CF911F910F91FF90DE
:100F6000EF90DF90CF900895FC01538D448D252F95
:100F700030E0842F90E0821B930B541710F0CF9633
:100F8000089501970895FC01918D828D981761F065
:100F9000828DDF01A80FB11D5D968C91928D9F5FB0
:100FA0009F73928F90E008958FEF9FEF0895FC015B
:100FB000918D828D981731F0828DE80FF11D858D0E
:100FC00090E008958FEF9FEF0895FC01918D228DA1
:100FD000892F90E0805C9F4F821B91098F73992726
:100FE000089585ED94E00E94E50721E0892B09F43E
:100FF00020E0822F0895FC01848DDF01A80FB11D30
:10100000A35ABF4F2C91848D90E001968F7399273E
:10101000848FA689B7892C93A089B1898C9183701C
:1010200080648C93938D848D981306C00288F38915
:10103000E02D80818F7D80830895EF92FF920F9342
:101040001F93CF93DF93EC0181E0888F9B8D8C8D74
:10105000981305C0E889F989808185FD26C0F62EA0
:101060000B8D10E00F5F1F4F0F731127E02E8C8D3B
:10107000E8120CC00FB607FCFACFE889F989808125
:1010800085FFF5CFCE010E94FB07F1CF8B8DFE01CE
:10109000E80FF11DE35AFF4FF0829FB7F8940B8FD2
:1010A000EA89FB89808180620AC09FB7F894EE8943
:1010B000FF896083E889F9898081837080648083F7
:1010C0009FBF81E090E0DF91CF911F910F91FF9042
:1010D000EF900895CF93DF93EC01888D8823C9F0BA
:1010E000EA89FB89808185FD05C0A889B9898C9131
:1010F00086FD0FC00FB607FCF5CF808185FFF2CFCC
:10110000A889B9898C9185FFEDCFCE010E94FB079C
:10111000E7CFDF91CF91089580E090E0892B29F00F
:101120000E94F10781110C94000008950E94E629A5
:101130000F931F93CF93DF93EC01888199810097E0
:1011400029F02A813B812617370788F48B016F5FCE
:101150007F4F0E942029009761F0998388831B8329
:101160000A832C813D81232B11F4FC01108281E044
:1011700001C080E0DF91CF911F910F910895EF9210
:10118000FF920F931F93CF93DF936115710511F4B5
:1011900080E01FC0FB0101900020E9F73197E61BBA
:1011A000F70BB1F07B01EC010C811D810E0F1F1FAD
:1011B000B8010E949808882359F3288139818C81CD
:1011C0009D81B701820F931F0E94F4291D830C8318
:1011D00081E0DF91CF911F910F91FF90EF900895E3
:1011E000EF92FF920F931F93CF93DF93EC0119823D
:1011F00018821B821A821D821C826115710549F1B9
:101200008B01FB0101900020E9F731977F01E61A7D
:10121000F70AB7010E9498082881398181110DC011
:101220002115310519F0C9010E94972819821882E9
:101230001D821C821B821A820CC0FD82EC82B801C6
:10124000C901DF91CF911F910F91FF90EF900C9406
:10125000F429DF91CF911F910F91FF90EF900895A6
:101260006115710579F0FB0101900020E9F73197D4
:10127000AF01461B570BDC01ED91FC910280F3811D
:10128000E02D099480E090E008950C9430091F92BD
:101290000F920FB60F9211242F933F934F935F93AA
:1012A0006F937F938F939F93AF93BF93EF93FF932E
:1012B00085ED94E00E94FB07FF91EF91BF91AF9104
:1012C0009F918F917F916F915F914F913F912F915E
:1012D0000F900FBE0F901F9018951F920F920FB690
:1012E0000F9211242F938F939F93EF93FF93E0918D
:1012F000E504F091E6048081E091EB04F091EC04C8
:1013000082FD12C090818091EE048F5F8F732091D7
:10131000EF04821751F0E091EE04F0E0EB52FB4F46
:10132000958F8093EE0401C08081FF91EF919F9192
:101330008F912F910F900FBE0F901F9018958330B3
:1013400081F028F4813099F08230A1F0089587303F
:10135000A9F08830B9F08430D1F4809180008F7D7D
:1013600003C0809180008F7780938000089584B5BA
:101370008F7702C084B58F7D84BD08958091B000C1
:101380008F7703C08091B0008F7D8093B000089567
:101390001F93CF93DF93282F30E0F901E255FF4FE1
:1013A0008491F901E057FF4FD491F901E458FF4FC0
:1013B000C491CC23C1F0162F81110E949F09EC2FFC
:1013C000F0E0EE0FFF1FEE58FF4FA591B4919FB7CD
:1013D000F894111104C08C91D095D82302C0EC91DF
:1013E000DE2BDC939FBFDF91CF911F9108951F9259
:1013F0000F920FB60F9211242F933F934F935F9349
:101400006F937F938F939F93AF93BF93EF93FF93CC
:1014100080915A0790915B07A0915C07B0915D079E
:10142000892B8A2B8B2B59F190915707E091580704
:10143000F091590780818927808380915A07909184
:101440005B07A0915C07B0915D07181619061A0694
:101450001B060CF03DC080915A0790915B07A0914C
:101460005C07B0915D070197A109B10980935A0704
:1014700090935B07A0935C07B0935D0729C08091B0
:101480003C01EEE5F1E0E4919FEF90933C01E13007
:10149000B9F098F0E230C9F4909170009D7F90937C
:1014A000700091E09093B0009091B100987F9460AB
:1014B0009093B1001092B30008C010926E0005C066
:1014C00090916F009D7F90936F0060E00E94C8092B
:1014D000FF91EF91BF91AF919F918F917F916F910C
:1014E0005F914F913F912F910F900FBE0F901F90E2
:1014F0001895CF93DF9390E0FC01E057FF4F2491C4
:10150000FC01E458FF4F8491882361F190E0880F3B
:10151000991FFC01EC55FF4FC591D491FC01EE5889
:10152000FF4FA591B491611109C09FB7F8948881CC
:10153000209582238883EC912E230BC0623061F4C6
:101540009FB7F8948881322F309583238883EC915C
:101550002E2B2C939FBF06C08FB7F894E8812E2BBB
:1015600028838FBFDF91CF9108958E3008F08E5081
:101570008770806480937C0080917A00806480937F
:101580007A0080917A0086FDFCCF809178002091CE
:10159000790090E0922B08958F929F92AF92BF9224
:1015A000CF92DF92EF92FF926B017C010E94AA1909
:1015B0004B015C01C114D104E104F104F1F00E947B
:1015C000AA19DC01CB0188199909AA09BB09883E2F
:1015D0009340A105B10570F321E0C21AD108E108DA
:1015E000F10888EE880E83E0981EA11CB11CC1147E
:1015F000D104E104F10419F7DDCFFF90EF90DF9003
:10160000CF90BF90AF909F908F900895EF92FF92F0
:101610000F931F93CF93DF93CDB7DEB72C970FB601
:10162000F894DEBF0FBECDBF80914C0790914D075F
:101630008E3191050CF440C04E9790934D078093E6
:101640004C0708E0098319E01A8323E933E03C835F
:101650002B831E821D821A8619861C861B8618867D
:101660001F822CE3E22EF12CB7010E94CA27AC01A5
:10167000990F660B770BCE0101960E94A9188091F5
:101680004C0790914D07B7010E94CA27AB01770F15
:10169000660B770B09831A8386E993E09C838B831F
:1016A0001E821D821A8619861C861B8618861F823A
:1016B000CE0101960E94A9182C960FB6F894DEBFB1
:1016C0000FBECDBFDF91CF911F910F91FF90EF9093
:1016D0000895EF92FF920F931F93CF93DF93CDB7AF
:1016E000DEB72C970FB6F894DEBF0FBECDBF80914A
:1016F0004C0790914D074E9690934D0780934C0761
:1017000008E0098319E01A8323E933E03C832B8343
:101710001E821D821A8619861C861B8618861F82C9
:101720002CE3E22EF12CB7010E94CA27AC01990FDD
:10173000660B770BCE0101960E94A91880914C0789
:1017400090914D07B7010E94CA27AB01770F660B36
:10175000770B09831A8386E993E09C838B831E822F
:101760001D821A8619861C861B8618861F82CE014A
:1017700001960E94A9182C960FB6F894DEBF0FBEF2
:10178000CDBFDF91CF911F910F91FF90EF90089502
:1017900010924B0760E087E00C94C8090C94C80BCA
:1017A00089E993E00E94D6160E94070210924D0725
:1017B00010924C0708950F931F93CF93DF938AE005
:1017C00090E00E940526EC0190933A078093390738
:1017D0008EE00E94B50ABC01990F880B990B0E94FC
:1017E000D0242AE038E240EA5BE30E942F252DEC6A
:1017F0003CEC4CE45EE30E94B12620E030EC4AED84
:1018000055E40E942F2520E030E040E950E40E949A
:101810001D270E948F278E01DD0F220B330BDC0169
:10182000CB01801B910BA20BB30BDF91CF911F91CA
:101830000F9108950E94DB0B909348078093470710
:1018400061E082E00E94C80964EF71E080E090E00E
:101850000E94CC0A60E082E00C94C8092F923F926B
:101860004F925F926F927F928F929F92AF92BF92B0
:10187000CF92DF92EF92FF920F931F93CF93DF935C
:10188000CDB7DEB7AA970FB6F894DEBF0FBECDBFB7
:101890001C014B8B5C8B6D8B7E8B0F8B188F298F74
:1018A0003A8FE0904907F0904A076CE672E0CE016B
:1018B0000D960E94F0080E94CF1960935207709312
:1018C000530780935407909355070E94DB0B909326
:1018D0004807809347074AE063E477E00E94942436
:1018E00012E019838BE18A838AED91E09C838B83DC
:1018F0001E821D821A8619861C861B8618861F82E8
:1019000063E477E0CE0101960E940019809172078E
:10191000882309F428C219838EE08A838DEA93E034
:101920009C838B831E821D821A8619861C861B86C9
:1019300018861F826B897C898D899E892CE330E013
:1019400040E050E00E941E2629013A01AB01BC0193
:10195000CE0101960E94A91819838DE08A8380EB3D
:1019600093E09C838B831E821D821A8619861C86B7
:101970001B8618861F82B301A201CE0101960E9428
:10198000A9188091490790914A075CE3C52ED12C94
:10199000B6010E94CA27AC01990F660B770B198319
:1019A00082E18A838EEA91E09C838B831E821D8272
:1019B0001A8619861C861B8618861F82CE01019600
:1019C0000E94A9188091490790914A07B6010E9488
:1019D000CA27AB01770F660B770B198381E18A83E6
:1019E00081EB91E09C838B831E821D821A8619866F
:1019F0001C861B8618861F82CE0101960E94A9189C
:101A00006EEC862E61E0962E70EA472E7FE0572E10
:101A1000612C712CEBE1BE2EFAEDCF2EF1E0DF2E22
:101A2000C1010E94281C082F0E94DB0B90934807DD
:101A3000809347074AE063E477E00E9494240E9481
:101A4000DB0B19831A839C828B82092E000CAA0B54
:101A5000BB0B9C01AD0128513C4F4F4F5F4FA8ED90
:101A6000B0E00E943D26A30192010E941E26BA0109
:101A7000A901CE0101960E949E1B1983BA82DC82C5
:101A8000CB821E821D821A8619861C861B861886AA
:101A90001F8263E477E0CE0101960E9400190023C3
:101AA00009F4BECFAF89B88D24E630E00E94DE276E
:101AB0006B8F7C8F8D8F9E8F412C512C320144E691
:101AC000842E912CA12CB12C1AA619A612E09701F4
:101AD000FF0C440B550B29A33AA34BA35CA3CB8863
:101AE000DC88ED88FE884C145D046E047F040CF0E5
:101AF00038C10E94CF1960935207709353078093A7
:101B00005407909355070E94F717809152079091C0
:101B10005307A0915407B091550720914E0730917B
:101B20004F0740915007509151076C017D01C21A37
:101B3000D30AE40AF50A28EEC21623E0D206E1042D
:101B4000F10468F220917207222309F40AC18093FC
:101B50004E0790934F07A0935007B093510749A5A4
:101B60005AA54F5F5F4F5AA749A7EF88F88CE40E3C
:101B7000F51E19838CE08A8383EB93E09C838B832F
:101B80001E821D821A8619861C861B8618861F8255
:101B9000CA016CE370E00E94CA276B01AC01990F87
:101BA000660B770BCE0101960E94A918198380E17C
:101BB0008A83A6EBB3E0BC83AB831E821D821A86A8
:101BC00019861C861B8618861F82C7016CE370E08D
:101BD0000E94CA277B01AC01990F660B770BCE01DF
:101BE00001960E94A91819838BE08A8326E933E0C5
:101BF0003C832B831E821D821A8619861C861B86B7
:101C000018861F82A601DD0C660B770BCE010196AC
:101C10000E94A91819838FE08A8349EB53E05C8303
:101C20004B831E821D821A8619861C861B86188687
:101C30001F82A701FF0C660B770BCE0101960E9455
:101C4000A918198385E08A8384EB91E09C838B83B8
:101C5000C501B4012B893C894D895E890E941E26ED
:101C6000BA01A901CE0101960E949E1B198386E04C
:101C70008A83A2ECB1E0BC83AB836B8D7C8D8D8DB0
:101C80009E8D680D791D8A1D9B1D29A13AA14BA12E
:101C90005CA10E941E26BA01A901CE0101960E94F4
:101CA0009E1B0E94DB0B90934807809347074AE0F6
:101CB00063E477E00E94942480914707909148075D
:101CC0008219930997FF03C09195819591098536F3
:101CD00091055CF434E6830E911CA11CB11C4FEFFE
:101CE000441A540A640A740AFACE0E94DB0B198360
:101CF0001A832EECC22E21E0D22EDC82CB82092E5A
:101D0000000CAA0BBB0B9C01AD0128513C4F4F4F5F
:101D10005F4FA8EDB0E00E943D2620EA3FE040E0A2
:101D200050E00E941E26BA01A901CE0101960E9430
:101D30009E1B19838BE18A833AEDE32E31E0F32E6B
:101D4000FC82EB821E821D821A8619861C861B86E7
:101D500018861F8263E477E0CE0101960E94001985
:101D6000B9CF0E94F7170E94921BCE010D960E94D8
:101D7000D116AA960FB6F894DEBF0FBECDBFDF9185
:101D8000CF911F910F91FF90EF90DF90CF90BF9078
:101D9000AF909F908F907F906F905F904F903F900B
:101DA0002F9008950F931F938CEB93E00E94D6160B
:101DB00081E080937207109274071092730740912C
:101DC000410750914207052E000C660B770B00E08F
:101DD00010E0980180910201909103010E942E0C65
:101DE00010927407109273070091410710914207F7
:101DF000012E000C220B330B40913F0750914007FE
:101E0000052E000C660B770B80910001909101016B
:101E10000E942E0C109274071092730700914107D4
:101E20001091420780913F0790914007080F191FBA
:101E3000012E000C220B330B40913D0750913E07C1
:101E4000052E000C660B770B80EE9CEF0E942E0C8B
:101E50001092740710927307009141071091420786
:101E600080913F0790914007080F191F80913D070F
:101E700090913E07080F191F012E000C220B330B07
:101E800040913B0750913C07052E000C660B770BE9
:101E90008CE19CE00E942E0C84E190E00E940526DB
:101EA000BC016F5F7F4F84E190E00E94192660E0E3
:101EB00083E00E94C80960E082E00E94C80960E0F7
:101EC00084E00E94C8094CED55E060E070E080EBD2
:101ED00094E01F910F910C945F146F927F928F92F8
:101EE0009F92AF92BF92CF92DF92EF92FF920F93A9
:101EF0001F93CF93DF93CDB7DEB762970FB6F894F9
:101F0000DEBF0FBECDBF81E080934B0761E087E06D
:101F10000E94C80988E0A82E99E0B92E23E9C22EB4
:101F200023E0D22E0CE310E036E9E32E33E0F32E6B
:101F300080914C0790914D07181619060CF072C04D
:101F40000E94CF19609352077093530780935407F0
:101F5000909355070E94F71780915207909153076D
:101F6000A0915407B091550740914E0750914F07EB
:101F700060915007709151073C014D01641A750A38
:101F8000860A970A28EE621623E0720681049104FD
:101F900078F220914B07222309F444C080934E0726
:101FA00090934F07A0935007B093510780914C072F
:101FB00090914D07019790934D0780934C07A9820C
:101FC000BA82DC82CB821E821D821A8619861C860A
:101FD0001B8618861F82B8010E94CA27AC01990F80
:101FE000660B770BCE0101960E94A91880914C07D1
:101FF00090914D07B8010E94CA27AB01770F660B7D
:10200000770BA982BA82FC82EB821E821D821A861D
:1020100019861C861B8618861F82CE0101960E9497
:10202000A91886CF8E010F5F1F4F8AE0F801119229
:102030008A95E9F76CE672E0CE010D960E94F008F1
:102040004AE0B80183E290E00E949F2462ED73E0D1
:10205000CE010D960E94BF0865ED73E0CE010D968E
:102060000E94BF08B801CE010D960E94BF088D8561
:102070009E850E946E1B0E943A17CE010D960E940B
:10208000D11660E087E00E94C8094CED55E060E0A1
:1020900070E080EB94E00E945F140E94F717629654
:1020A0000FB6F894DEBF0FBECDBFDF91CF911F9169
:1020B0000F91FF90EF90DF90CF90BF90AF909F90E7
:1020C0008F907F906F9008951F93CF93DF93CDB73C
:1020D000DEB72C970FB6F894DEBF0FBECDBF8CEDE8
:1020E00093E00E94D6160E941A0C0E94DB0B90937C
:1020F0004807809347074AE063E477E00E9494240E
:1021000019E019838EE08A8382EF93E09C838B83AE
:102110001E821D821A8619861C861B8618861F82BF
:1021200063E477E0CE0101960E9400190E94DB0B68
:102130009C01198382E08A838FEF93E09C838B83D9
:10214000C901330FAA0BBB0B9C01AD0128513C4FB9
:102150004F4F5F4FA8EDB0E00E943D2620EA3FE0E0
:1021600040E050E00E941E26BA01A901CE0101966E
:102170000E949E1B2C960FB6F894DEBF0FBECDBFFB
:10218000DF91CF911F9108951F93CF93DF93CDB728
:10219000DEB72C970FB6F894DEBF0FBECDBF8BE035
:1021A00094E00E94D6160E941A0C0E94DB0B9093BA
:1021B0004807809347074AE063E477E00E9494244D
:1021C00012E019838BE18A838AED91E09C838B83F3
:1021D0001E821D821A8619861C861B8618861F82FF
:1021E00063E477E0CE0101960E9400190E94DB0BA8
:1021F0009C0119831A838EEC91E09C838B83C90127
:10220000330FAA0BBB0B9C01AD0128513C4F4F4F24
:102210005F4FA8EDB0E00E943D2620EA3FE040E09D
:1022200050E00E941E26BA01A901CE0101960E942B
:102230009E1B2C960FB6F894DEBF0FBECDBFDF916C
:10224000CF911F9108957F928F929F92AF92BF92EC
:10225000CF92DF92EF92FF920F931F93CF93DF9372
:10226000CDB7DEB72C970FB6F894DEBF0FBECDBF4B
:1022700082E294E00E94D61619E0198386E08A83F0
:1022800086E993E09C838B831E821D821A861986C1
:102290001C861B8618861F8240E050E0BA01CE01E2
:1022A00001960E94A918198387E08A8383EB93E043
:1022B0009C838B831E821D821A8619861C861B8630
:1022C00018861F8240E050E0BA01CE0101960E94BC
:1022D000A9181092560710927407109273078EE097
:1022E000782E92EFC92E93E0D92E02E02FEFE22E46
:1022F00023E0F22E30EA832E3FE0932EA12CB12C66
:1023000080915607811144C0809102019091030190
:102310000E94281C809356070E94DB0B909348076D
:10232000809347074AE063E477E00E94942419838E
:102330007A82DC82CB821E821D821A8619861C86D6
:102340001B8618861F8263E477E0CE0101960E9407
:1023500000190E94DB0B19830A83FC82EB82092E91
:10236000000CAA0BBB0B9C01AD0128513C4F4F4FF9
:102370005F4FA8EDB0E00E943D26A50194010E94A8
:102380001E26BA01A901CE0101960E949E1BB8CF5C
:1023900089E089838EE08A8382EF93E09C838B833C
:1023A0001E821D821A8619861C861B8618861F822D
:1023B00063E477E0CE0101960E9400192C960FB6D7
:1023C000F894DEBF0FBECDBFDF91CF911F910F916B
:1023D000FF90EF90DF90CF90BF90AF909F908F9045
:1023E0007F9008956F927F928F929F92AF92BF924B
:1023F000CF92DF92EF92FF920F931F93CF93DF93D1
:10240000CDB7DEB72C970FB6F894DEBF0FBECDBFA9
:1024100088E394E00E94D61619E0198386E08A8347
:1024200086E993E09C838B831E821D821A8619861F
:102430001C861B8618861F8240E050E0BA01CE0140
:1024400001960E94A918198387E08A8383EB93E0A1
:102450009C838B831E821D821A8619861C861B868E
:1024600018861F8240E050E0BA01CE0101960E941A
:10247000A91810927407109273078EE0682E92EFDD
:10248000C92E93E0D92E22E0722E3FEFE32E33E0E7
:10249000F32E40EA842E4FE0942EA12CB12C809193
:1024A0000001909101010E94281C082F0E94DB0B63
:1024B00090934807809347074AE063E477E00E94DF
:1024C000942419836A82DC82CB821E821D821A8642
:1024D00019861C861B8618861F8263E477E0CE016E
:1024E00001960E9400190E94DB0B19837A82FC82FC
:1024F000EB82092E000CAA0BBB0B9C01AD012851ED
:102500003C4F4F4F5F4FA8EDB0E00E943D26A50124
:1025100094010E941E26BA01A901CE0101960E94D3
:102520009E1B002309F4BBCF89E089838EE08A8358
:1025300082EF93E09C838B831E821D821A8619860C
:102540001C861B8618861F8263E477E0CE01019605
:102550000E9400192C960FB6F894DEBF0FBECDBFB7
:10256000DF91CF911F910F91FF90EF90DF90CF906F
:10257000BF90AF909F908F907F906F9008951F9322
:10258000CF93DF93CDB7DEB72C970FB6F894DEBFAD
:102590000FBECDBF80E594E00E94D6160E940702D0
:1025A0000E94DB0B90934807809347074AE063E45F
:1025B00077E00E94942419E019838EE08A8382EFE9
:1025C00093E09C838B831E821D821A8619861C864B
:1025D0001B8618861F8263E477E0CE0101960E9475
:1025E00000190E94DB0B9C01198382E08A838FEF24
:1025F00093E09C838B83C901330FAA0BBB0B9C0117
:10260000AD0128513C4F4F4F5F4FA8EDB0E00E9405
:102610003D2620EA3FE040E050E00E941E26BA013D
:10262000A901CE0101960E949E1B80EE9CEF909323
:102630000301809302018CE19CE09093010180935F
:1026400000012C960FB6F894DEBF0FBECDBFDF9110
:10265000CF911F9108956F927F928F929F92AF9228
:10266000BF92CF92DF92EF92FF920F931F93CF937F
:10267000DF93CDB7DEB72C970FB6F894DEBF0FBE51
:10268000CDBF85E694E00E94D6160E94070284EB37
:1026900090E0909342078093410790934007809386
:1026A0003F0788E790E090933E0780933D0780EFD7
:1026B00090E090933C0780933B0780ED92E09093ED
:1026C0004A078093490712E0198382E1682E6A82E3
:1026D0009EEA892E91E0992E9C828B821E821D8219
:1026E0001A8619861C861B8618861F8240E050E0D9
:1026F000BA01CE0101960E94A918809149079091D4
:102700004A072CE3E22EF12CB7010E94CA27AB0145
:10271000770F660B770B198331E1732E7A82E1EB29
:10272000AE2EE1E0BE2EBC82AB821E821D821A86D6
:1027300019861C861B8618861F82CE0101960E9470
:10274000A918198385E08A8384EB91E09C838B83AD
:1027500040E050E0BA01CE0101960E949E1B198311
:1027600086E08A8382EC91E09C838B8340E050E09A
:10277000BA01CE0101960E949E1B0E94DB0B909332
:102780004807809347074AE063E477E00E94942477
:1027900019830BE10A83FAEDCF2EF1E0DF2EDC8204
:1027A000CB821E821D821A8619861C861B8618867D
:1027B0001F8263E477E0CE0101960E9400190E9417
:1027C000DB0B9C0119831A838EEC91E09C838B8335
:1027D000C901330FAA0BBB0B9C01AD0128513C4F23
:1027E0004F4F5F4FA8EDB0E00E943D2620EA3FE04A
:1027F00040E050E00E941E26BA01A901CE010196D8
:102800000E949E1B8091490790914A07B7010E9440
:10281000CA27AC01990F660B770B19836A829C82D9
:102820008B821E821D821A8619861C861B8618863C
:102830001F82CE0101960E94A918809149079091AC
:102840004A07B7010E94CA27AB01770F660B770BC7
:1028500019837A82BC82AB821E821D821A861986F7
:102860001C861B8618861F82CE0101960E94A9181D
:1028700019830A83DC82CB821E821D821A86198606
:102880001C861B8618861F8263E477E0CE010196C2
:102890000E9400192C960FB6F894DEBF0FBECDBF74
:1028A000DF91CF911F910F91FF90EF90DF90CF902C
:1028B000BF90AF909F908F907F906F9008954F92B0
:1028C0005F926F927F928F929F92AF92BF92CF92C0
:1028D000DF92EF92FF920F931F93CF93DF9300D07D
:1028E00000D01F92CDB7DEB78C012A013B01809149
:1028F0003C01853021F08F3F09F03DC205C0EEE577
:10290000F1E024912D8372C085E080933C01EEE5D7
:10291000F1E084918D838F3F09F42DC2813009F459
:1029200041C038F1823009F061C01092B0001092BD
:10293000B1008091B00082608093B0008091B100BE
:1029400081608093B100E1E8F0E0E491F0E0EE0F07
:10295000FF1FEE58FF4F85919491909359078093F4
:102960005807E5E9F0E0E491E093570722E02D8372
:10297000FDC114BC15BC84B5826084BD85B5816081
:1029800085BDE1E8F0E0E491F0E0EE0FFF1FEE58C6
:10299000FF4F85919491E5E9F0E0E491E0936907B8
:1029A0001D82E4C11092800010928100809181000C
:1029B0008860809381008091810081608093810094
:1029C000E1E8F0E0E491F0E0EE0FFF1FEE58FF4F7A
:1029D00085919491E5E9F0E0E491E093680761E086
:1029E00085E00E94790A91E09D838AC08D8187FDF0
:1029F000C2C161E085E00E94790A8D818D7F09F076
:102A00007FC04801A12CB12C60E072E18AE790E020
:102A1000A50194010E941E2629833A834B835C837F
:102A200069017A0191E0C91AD108E108F1082FEF94
:102A3000C216D104E104F10409F008F44EC060E4C8
:102A400072E48FE090E0A50194010E941E266901C6
:102A50007A0181E0C81AD108E108F1089D8192301D
:102A600009F52FEFC216D104E104F10409F008F4CE
:102A700044C160E970ED83E090E0A50194010E94FB
:102A80001E2669017A0181E0C81AD108E108F1081F
:102A90009FEFC916D104E104F10411F008F0BAC0A7
:102AA00083E027C02FEFC216D104E104F104B9F08E
:102AB000B0F068E478EE81E090E0A50194010E9416
:102AC0001E2669017A0181E0C81AD108E108F108DF
:102AD0009D81992309F413C1DCC081E001C082E02B
:102AE0009D81911106C095B5987F892B85BD44C005
:102AF00085E09091B100987F892B8093B1003CC014
:102B00004801A12CB12C60E072E18AE790E0A501B8
:102B100094010E941E2669017A0181E0C81AD10839
:102B2000E108F108C114D10491E0E906F10488F04C
:102B300068E478EE81E090E0A50194010E941E26F1
:102B400069017A0181E0C81AD108E108F10883E03F
:102B500001C081E09D81913079F490918100987F4E
:102B6000892B80938100411451046104710449F45C
:102B70002FEF3FEFA9012CC04114510461047104EF
:102B800071F0D801AA0FBB1FA30192010E943D263C
:102B900028EE33E040E050E00E947F2603C02FEF94
:102BA0003FEFA9018D81813099F0823019F18111B7
:102BB000E2C0C7BC20936E0730936F074093700745
:102BC0005093710780916E00826080936E00D3C035
:102BD000D0928900C092880020936A0730936B07D7
:102BE00040936C0750936D0780916F0082608093D3
:102BF0006F00C1C0C092B30020935A0730935B07A7
:102C000040935C0750935D078091700082608093D1
:102C10007000B1C068E478EE81E090E0A501940115
:102C20000E941E2669017A0191E0C91AD108E108C3
:102C3000F1082FEFC216D104E104F10441F138F19B
:102C400064E274EF80E090E0A50194010E941E26EA
:102C500069017A0181E0C81AD108E108F1089FEF03
:102C6000C916D104E104F10409F008F441CF62E18E
:102C70007AE780E090E0A50194010E941E26690198
:102C80007A0181E0C81AD108E108F10819C084E08E
:102C900030CF2FEFC216D104E104F10409F008F49B
:102CA00063C062E17AE780E090E0A50194010E94B0
:102CB0001E2669017A0191E0C91AD108E108F108DC
:102CC0008FEFC816D104E104F104A9F0A0F08981C6
:102CD0009A81AB81BC812AE0B595A7959795879598
:102CE0002A95D1F76C017D0121E0C21AD108E108D3
:102CF000F10887E0FECE86E0FCCE82E0FACE8FEFD0
:102D0000C816D104E104F10469F160F162E17AE7E7
:102D100080E090E0A50194010E941E2669017A01DD
:102D200091E0C91AD108E108F1082FEFC216D104C9
:102D3000E104F104A9F0A0F089819A81AB81BC8102
:102D40003AE0B595A795979587953A95D1F76C0197
:102D50007D0121E0C21AD108E108F10885E0C3CE67
:102D600084E0C1CE83E0BFCE84E0BACE61E085E0EE
:102D70000E94790A46CE0F900F900F900F900F90FF
:102D8000DF91CF911F910F91FF90EF90DF90CF9047
:102D9000BF90AF909F908F907F906F905F904F907B
:102DA0000895FC01808191810C949728CF93DF9343
:102DB000BC0185ED94E00E943009EC016AE672E006
:102DC00085ED94E00E9430098C0F9D1FDF91CF911B
:102DD00008958F929F92AF92BF92EF92FF920F93BE
:102DE0001F93CF93DF938B017C01C0E0D0E0C0172D
:102DF000D107A1F10E94CF1960937C0570937D05E6
:102E000080937E0590937F0584E795E00E94851965
:102E100097FF1FC00E94CF1980907C0590907D0580
:102E2000A0907E05B0907F05DC01CB01881999093F
:102E3000AA09BB098090780590907905A0907A0541
:102E4000B0907B0588159905AA05BB05E8F28E01AF
:102E500005C0F70181937F012196C9CFC801DF9199
:102E6000CF911F910F91FF90EF90BF90AF909F90E7
:102E70008F900895CF93DF9300D000D0CDB7DEB709
:102E800019821A821B821C8284E690E0A0E0B0E0E6
:102E90008093780590937905A0937A05B0937B058C
:102EA00064E070E0CE0101960E94E91689818130CC
:102EB00079F48A818F3F61F48B818F3F49F48C8153
:102EC0008F3F31F489E794E00E94D61681E005C077
:102ED00083E994E00E94D61680E00F900F900F9047
:102EE0000F90DF91CF910895DC015196ED91FC9107
:102EF0005297908150968C91809589238083089574
:102F00008F929F92AF92BF920F931F93CF93DF93B5
:102F1000CDB7DEB7A1970FB6F894DEBF0FBECDBF19
:102F200019A2423008F44AE08E010F5D1F4F842E33
:102F3000912CA12CB12CA50194010E947F26E62F93
:102F4000B901CA0101501109EA3014F4E05D01C071
:102F5000E95CD801EC93232B242B252B61F7B801D6
:102F600085ED94E00E943009A1960FB6F894DEBF7B
:102F70000FBECDBFDF91CF911F910F91BF90AF904A
:102F80009F908F900895CF92DF92EF92FF92CF9310
:102F9000DF936C01990FEE08FF08F7FE13C06DE296
:102FA00085ED94E00E941D08EC0166277727CB0190
:102FB0006C197D098E099F094AE00E948017C80F8D
:102FC000D91F06C04AE0C701B6010E948017EC0174
:102FD0006AE672E085ED94E00E9430098C0F9D1F37
:102FE000DF91CF91FF90EF90DF90CF900895CF9237
:102FF000DF92EF92FF92CF93DF9384E795E00E94F8
:103000006D19181619060CF09DC06AE070E080E09A
:1030100090E00E94CC0A84E795E00E948519C82FB1
:10302000853659F784E795E00E946D1906972CF3D1
:10303000C0935E07CFE5D7E084E795E00E9485194D
:10304000899387E0C536D807B9F710926507809154
:1030500062078F3F91F6809163078F3F71F68091F1
:1030600064078F3F51F6C0906107D12CE12CF12C01
:103070009091600720915F07E4E0F1E0C191D19168
:10308000209709F4BACF88812813F8CF8981981343
:10309000F5CF67EB74E085ED94E00E9445094AE0C6
:1030A000BE010D2E000C880B990B0E94801768E65C
:1030B00072E085ED94E00E944509688170E080E04F
:1030C00090E04AE00E94801769EB74E085ED94E09F
:1030D0000E944509698170E080E090E04AE00E942A
:1030E000801769EB74E085ED94E00E9445096A81E0
:1030F0007B816115710511F46EEA74E085ED94E051
:103100000E94450985EB94E00E94D61681E0C8161E
:10311000D104E104F10441F4EC81FD81309709F41C
:103120006CCF8E819F810CC0CD28CE28CF2809F08E
:1031300064CFE885F985309709F45FCF8A859B8550
:1031400009955BCFDF91CF91FF90EF90DF90CF900B
:1031500008958F929F92AF92BF92EF92FF920F933A
:103160001F93CF93DF93CDB7DEB760970FB6F89478
:10317000DEBF0FBECDBF7C014A015B018E010F5F38
:103180001F4F8AE0F80111928A95E9F76CE672E028
:10319000CE010B960E94F0084AE0B801C4010E94DB
:1031A0009F24F70162817381CE010B960E94BF08B4
:1031B0006BEB74E0CE010B960E94BF08B801CE0104
:1031C0000B960E94BF088B859C850E946E1B0E94F7
:1031D0003A17182FCE010B960E94D116812F6096B8
:1031E0000FB6F894DEBF0FBECDBFDF91CF911F9118
:1031F0000F91FF90EF90BF90AF909F908F900895A8
:10320000EF92FF920F931F93CF93DF9300D000D0E4
:1032100000D0CDB7DEB77C018B016CE672E0CE0149
:1032200001960E94F008F70162817381CE01019638
:103230000E94BF0861EC74E0CE0101960E94BF08B5
:10324000B801CE0101960E94BF0866EC74E0CE0181
:1032500001960E94BF0889819A810E946E1B0E947C
:103260003A17182FCE0101960E94D116812F26966B
:103270000FB6F894DEBF0FBECDBFDF91CF911F9187
:103280000F91FF90EF900895209136073091370706
:103290002817390781F490913407809135079817E2
:1032A00051F0E0913407F0E0EB58F84F8081082EA0
:1032B000000C990B08958FEF9FEF0895209136072A
:1032C000309137072817390739F48FB7F8941092DF
:1032D0003507109234078FBF08952091360730913B
:1032E00037072817390771F4809135072091340783
:1032F00090E0805C9F4F821B910960E470E00E9427
:10330000CA27089580E090E0089520913607309113
:10331000370728173907B9F490913407809135079A
:10332000981789F0E0913407F0E0EB58F84F80816E
:103330002091340730E02F5F3F4F2F7333272093C6
:10334000340790E008958FEF9FEF0895089580E08F
:1033500090E008953FB7F8948091BA079091BB0729
:10336000A091BC07B091BD0726B5A89B05C02F3F13
:1033700019F00196A11DB11D3FBFBA2FA92F982F9B
:103380008827820F911DA11DB11DBC01CD0142E016
:10339000660F771F881F991F4A95D1F708952FB799
:1033A000F8946091B6077091B7078091B807909133
:1033B000B9072FBF08951F920F920FB60F921124D5
:1033C0002F933F938F939F93AF93BF938091B607B3
:1033D0009091B707A091B807B091B9073091B507A0
:1033E00023E0230F2D3720F40196A11DB11D05C048
:1033F00026E8230F0296A11DB11D2093B5078093E7
:10340000B6079093B707A093B807B093B907809118
:10341000BA079091BB07A091BC07B091BD07019678
:10342000A11DB11D8093BA079093BB07A093BC0761
:10343000B093BD07BF91AF919F918F913F912F9115
:103440000F900FBE0F901F90189520E001972FEF5F
:103450008F3F9207D9F70895DF92EF92FF920F9373
:103460001F93CF93DF93EC01298D3A8D2115310500
:1034700029F481E090E09B838A835AC0162FDFB63F
:10348000F8948B8D81FD4DC0CE010E947417898DFB
:103490009A8D05960E94251A8B8D98E0E92EF12CC5
:1034A00001E081FF1AC0812F802321F0CE010E940C
:1034B000741706C0E989FA8990818889892B8083ED
:1034C000898D9A8D0E94251A000F81E0E81AF10873
:1034D00051F7CE010E9474171CC0812F802339F050
:1034E000E989FA8990818889892B808303C0CE017C
:1034F0000E947417898D9A8D0E94251A000F81E011
:10350000E81AF10851F7E989FA8990818889892BAD
:103510008083DFBE898D9A8D0E94251A21E030E0DC
:1035200007C0E989FA8990818889892B8083AFCF88
:10353000C901DF91CF911F910F91FF90EF90DF9024
:1035400008951F920F920FB60F921124EF92FF92DF
:103550000F931F932F933F934F935F936F937F939B
:103560008F939F93AF93BF93CF93DF93EF93FF938B
:10357000C0913607D0913707209709F450C09B8D32
:10358000EE85FF858D8591FF04C09081892329F404
:1035900046C09081892309F042C08B899C890E9492
:1035A000251A88E0E82EF12C10E001E08D899E8933
:1035B0000E94251AEE85FF8590818D85892311F063
:1035C000102B03C0802F80951823000F81E0E81A8C
:1035D000F10861F78F89988D0E94251A8B8D81FDE6
:1035E0001095809135072091340790E001968F73F4
:1035F000992730E08217930779F0E0913507F0E0E2
:10360000EB58F84F10838091350790E001968F7347
:1036100099278093350703C08B8D81608B8FFF9135
:10362000EF91DF91CF91BF91AF919F918F917F915A
:103630006F915F914F913F912F911F910F91FF904B
:10364000EF900F900FBE0F901F9018951F920F9242
:103650000FB60F9211242F933F934F935F936F9365
:103660007F938F939F93AF93BF93EF93FF930E94AA
:10367000A11AFF91EF91BF91AF919F918F917F918F
:103680006F915F914F913F912F910F900FBE0F90CF
:103690001F9018951F920F920FB60F9211242F931F
:1036A0003F934F935F936F937F938F939F93AF93CA
:1036B000BF93EF93FF930E94A11AFF91EF91BF91E7
:1036C000AF919F918F917F916F915F914F913F91BA
:1036D0002F910F900FBE0F901F901895CF93DF93EF
:1036E000EC0184E795E00E946D19892B29F084E7AD
:1036F00095E00E948519F5CFBE0184E795E00E9410
:1037000045096FEF84E795E00E942C1A6FEF84E77C
:1037100095E00E942C1A6FEF84E795E0DF91CF913E
:103720000C942C1A60E083E00E94C80960E082E0FB
:103730000E94C80960E084E00C94C8098F929F92AF
:10374000AF92BF92EF92FF920F931F93CF93DF93AD
:10375000CDB7DEB760970FB6F894DEBF0FBECDBF12
:103760007C014A015B018E010F5F1F4F8AE0F80167
:1037700011928A95E9F76CE672E0CE010B960E94F1
:10378000F0084AE0B801C4010E949F24F701628159
:103790007381CE010B960E94BF086BEB74E0CE01E3
:1037A0000B960E94BF08B801CE010B960E94BF087D
:1037B0008B859C850E946E1B0E943A17182FCE01A4
:1037C0000B960E94D116812F60960FB6F894DEBF3B
:1037D0000FBECDBFDF91CF911F910F91FF90EF9062
:1037E000BF90AF909F908F9008950F931F93CF93AA
:1037F000DF9300D000D000D0CDB7DEB7FC0102814E
:10380000138101151105B9F068EC74E0CE01019641
:103810000E94F008B801CE0101960E94BF0889817C
:103820009A810E946E1B0E943A17182FCE010196B2
:103830000E94D11601C010E0812F26960FB6F89491
:10384000DEBF0FBECDBFDF91CF911F910F910895C5
:10385000CF92DF92EF92FF920F931F93CF93DF935C
:103860006C010E94DB0B0D2C000CEE08FF0808EE2B
:10387000C00E03E0D01EE11CF11C092E000CAA0BA7
:10388000BB0B88519C4FAF4FBF4FEC010E94CF192B
:103890006093940570939505809396059093970592
:1038A000960122533109C217D3070CF040C0009192
:1038B00073071091740706301105CCF561E084E0C0
:1038C0000E94C80961E083E00E94C80960E082E0CC
:1038D0000E94C8098091940590919505A091960544
:1038E000B091970540919005509191056091920596
:1038F000709193056C017D01C41AD50AE60AF70A96
:1039000028EEC21623E0D206E104F10408F456C002
:103910008093900590939105A0939205B0939305A1
:103920000F5F1F4F109374070093730747C082E324
:10393000C80ED11CCC16DD060CF042C0E090730717
:10394000F090740706E0E016F104D4F561E084E03D
:103950000E94C80960E083E00E94C80961E082E03B
:103960000E94C8098091940590919505A0919605B3
:10397000B091970540919005509191056091920505
:10398000709193058C019D01041B150B260B370BC1
:10399000B901A801483E53406105710578F0809354
:1039A000900590939105A0939205B09393052FEF06
:1039B000E21AF20AF0927407E092730780E03DC0C9
:1039C00081E090E02C173D0714F080E090E08C152A
:1039D0009D0534F0809173079091740706972CF140
:1039E00060E084E00E94C80960E082E00E94C809AB
:1039F00060E083E00E94C80980917307909174078A
:103A00000697D4F010927407109273071092720701
:103A100084EA95E00E94F51B4CED55E060E070E013
:103A200080EB94E00E945F1407C061E070E080E0EA
:103A300090E00E94CC0A01C081E0DF91CF911F91FC
:103A40000F91FF90EF90DF90CF9008950F931F9309
:103A5000CF93DF931092D8041092D70488EE93E0AE
:103A6000A0E0B0E08093D9049093DA04A093DB0443
:103A7000B093DC0427E431E03093D6042093D504DE
:103A800025EC30E03093E2042093E10424EC30E0B4
:103A90003093E4042093E30420EC30E03093E60418
:103AA0002093E50421EC30E03093E8042093E70410
:103AB00022EC30E03093EA042093E90426EC30E075
:103AC0003093EC042093EB041092EE041092EF0478
:103AD0001092F0041092F10424E630E03093730564
:103AE00020937205109277051092760580937805E1
:103AF00090937905A0937A05B0937B0589E591E0D1
:103B0000909375058093740510928805109287052F
:103B100010928A051092890510928C0510928B05DF
:103B200010928E0510928D0580918F058E7F8D7F6E
:103B300080938F0561E08AE00E94790A61E08AE063
:103B40000E94C809EAE9F0E0E491E0938405E6E820
:103B5000F0E0E491F0E0EE0FFF1FEE58FF4F85918B
:103B60009491909386058093850560E089E00E949A
:103B7000790A80918F0581FD04C061E089E00E948F
:103B8000C80949E040938005E9E9F0E0E491E09359
:103B90008105E5E8F0E0E491F0E0EE0FFF1FE85961
:103BA000FF4F85919491909383058093820591E0D6
:103BB0009093EC0683E08093ED062FE732E030939C
:103BC000EF062093EE061092F1061092F006109286
:103BD000F5061092F4061092F7061092F60610926F
:103BE000F3061092F2069093E006E4E0E093E1061B
:103BF00024E832E03093E3062093E2061092E506D3
:103C00001092E4061092E9061092E8061092EB0674
:103C10001092EA061092E7061092E6069093D406F8
:103C200055E05093D50629E832E03093D70620932B
:103C3000D6061092D9061092D8061092DD06109280
:103C4000DC061092DF061092DE061092DB06109260
:103C5000DA069093C80666E06093C90622E932E06E
:103C60003093CB062093CA061092CD061092CC0654
:103C70001092D1061092D0061092D3061092D2065E
:103C80001092CF061092CE069093BC0677E0709308
:103C9000BD062EE932E03093BF062093BE06109297
:103CA000C1061092C0061092C5061092C40610926A
:103CB000C7061092C6061092C3061092C2069093D1
:103CC000B00638E03093B106A5EAB2E0B093B3068F
:103CD000A093B2061092B5061092B4061092B906DF
:103CE0001092B8061092BB061092BA061092B70650
:103CF0001092B6069093A4064093A506AEEAB2E0F1
:103D0000B093A706A093A6061092A9061092A80643
:103D10001092AD061092AC061092AF061092AE064D
:103D20001092AB061092AA069093280722E02093E7
:103D30002907B0932B07A0932A0710922D07109202
:103D40002C0710923107109230071092330710920F
:103D5000320710922F0710922E0720939806F2E157
:103D6000F0939906C0E3D3E0D0939B06C0939A06E4
:103D700010929D0610929C061092A1061092A00629
:103D80001092A3061092A20610929F0610929E0611
:103D900020938C06F3E1F0938D06C4EBD2E0D09330
:103DA0008F06C0938E061092910610929006109284
:103DB000950610929406109297061092960610920D
:103DC0009306109292062093800680938106CFE39B
:103DD000D3E0D0938306C09382061092850610929A
:103DE0008406109289061092880610928B06109213
:103DF0008A06109287061092860620931C07F9E126
:103E0000F0931D0709EB12E010931F0700931E07A4
:103E10001092210710922007109225071092240774
:103E2000109227071092260710922307109222075C
:103E300020937406FBE1F09375060CEB12E01093EF
:103E40007706009376061092790610927806109203
:103E50007D0610927C0610927F0610927E061092CC
:103E60007B0610927A064093680680936906D09389
:103E70006B06C0936A0610926D0610926C06109243
:103E800071061092700610927306109272061092CC
:103E90006F0610926E0640935C0630935D06C9EC87
:103EA000D2E0D0935F06C0935E0610926106109236
:103EB00060061092650610926406109267061092D2
:103EC0006606109263061092620640935006409375
:103ED0005106C0EDD2E0D0935306C0935206109223
:103EE00055061092540610925906109258061092D8
:103EF0005B0610925A06109257061092560640938F
:103F000044064DE040934506C9EDD2E0D093470604
:103F1000C0934606109249061092480610924D062C
:103F200010924C0610924F0610924E0610924B06BD
:103F300010924A065093400690934106C3EED2E099
:103F4000D0934306C0934206509310078093110705
:103F5000CFEED2E0D0931307C0931207109215074B
:103F600010921407109219071092180710921B074D
:103F700010921A07109217071092160780933406B2
:103F800020933506CEEFD2E0D0933706C0933606A5
:103F9000109239061092380610923D0610923C0697
:103FA00010923F0610923E0610923B0610923A067F
:103FB0008093280680932906C8E0D3E0D0932B068F
:103FC000C0932A0610922D0610922C0610923106EC
:103FD00010923006109233061092320610922F067D
:103FE00010922E0680931C06E0931D06C1E1D3E0DB
:103FF000D0931F06C0931E06109221061092200631
:10400000109225061092240610922706109226067A
:1040100010922306109222068093100650931106E8
:10402000CDE1D3E0D0931306C0931206109215068B
:1040300010921406109219061092180610921B0680
:1040400010921A0610921706109216068093040713
:1040500060930507B0930707A0930607109209071E
:104060001092080710920D0710920C0710920F077C
:1040700010920E0710920B0710920A077093F80621
:10408000FBE0F093F906A3E2B3E0B093FB06A09344
:10409000FA061092FD061092FC061092010710928B
:1040A000000710920307109202071092FF06109269
:1040B000FE067093040680930506A7E2B3E0B09372
:1040C0000706A093060610920906109208061092A1
:1040D0000D0610920C0610920F0610920E0610920A
:1040E0000B0610920A067093F8052093F905A6E3D3
:1040F000B3E0B093FB05A093FA051092FD05109272
:10410000FC05109201061092000610920306109210
:1041100002061092FF051092FE053093EC056093A5
:10412000ED05A4E4B3E0B093EF05A093EE05109283
:10413000F1051092F0051092F5051092F405109219
:10414000F7051092F6051092F3051092F2053093E0
:10415000E0055093E105ABE4B3E0B093E305A09331
:10416000E2051092E5051092E4051092E90510921F
:10417000E8051092EB051092EA051092E7051092FF
:10418000E6053093D4058093D505A3E5B3E0B0935D
:10419000D705A093D6051092D9051092D805109294
:1041A000DD051092DC051092DF051092DE051092FD
:1041B000DB051092DA053093C805E093C905EBE5FD
:1041C000F3E0F093CB05E093CA051092CD05109271
:1041D000CC051092D1051092D0051092D305109203
:1041E000D2051092CF051092CE053093BC052093D6
:1041F000BD0522E633E03093BF052093BE05109243
:10420000C1051092C0051092C5051092C405109208
:10421000C7051092C6051092C3051092C20560939F
:10422000B0059093B10529E633E03093B3052093B0
:10423000B2051092B5051092B4051092B90510920E
:10424000B8051092BB051092BA051092B7051092EE
:10425000B6054093A4051092A5052CE633E03093F3
:10426000A7052093A6051092A9051092A805109203
:10427000AD051092AC051092AF051092AE051092EC
:10428000AB051092AA054093980590939905309339
:104290009B0520939A0510929D0510929C05109203
:1042A000A1051092A0051092A3051092A2051092EC
:1042B0009F0510929E050E94CF19609394057093FC
:1042C000950580939605909397050E94CF1960936A
:1042D0009005709391058093920590939305DF91DB
:1042E000CF911F910F910895789484B5826084BD19
:1042F00084B5816084BD85B5826085BD85B58160EA
:1043000085BD80916E00816080936E001092810067
:104310008091810082608093810080918100816022
:1043200080938100809180008160809380008091E3
:10433000B10084608093B1008091B000816080936F
:10434000B00080917A00846080937A0080917A0036
:10435000826080937A0080917A00816080937A00F5
:1043600080917A00806880937A001092C10044EFB7
:1043700051E060E070E080EB94E00E945F140E94E6
:10438000790161E083E00E94790A61E082E00E94A5
:10439000790A61E086E00E94790A61E084E00E9487
:1043A000790A61E087E00E94790A61E085E00E9475
:1043B000790A60E08EE00E94790A60E08FE00E9456
:1043C000790A60E081E10E94790A60E082E10E945E
:1043D000790A60E083E00E94C80960E082E00E9400
:1043E000C80960E086E00E94C80960E084E00E949D
:1043F000C80960E087E00E94C809E091E504F091F7
:10440000E60482E08083E091E104F091E20410820E
:10441000E091E304F091E4048FEC80831092ED04CA
:10442000E091E904F091EA0486E08083E091E704FA
:10443000F091E804808180618083E091E704F0914D
:10444000E804808188608083E091E704F091E804CB
:10445000808180688083E091E704F091E8048081A6
:104460008F7D808310928E0510928D0510928C05A1
:1044700010928B0510928A0510928905109288057A
:104480001092870582EC90E020E030E0FC0145913D
:10449000559165917491403855426105710559F502
:1044A0004CE0429FC001439F900D1124FC01EA5350
:1044B000FF4F259134913093880520938705FC01A7
:1044C000E853FF4F2591349130938A052093890555
:1044D000FC01E653FF4F2591349130938C052093D6
:1044E0008B05FC01E453FF4F8591949190938E05C9
:1044F00080938D0507C02F5F3F4F0C962D303105FF
:1045000009F0C4CF80918B0590918C05892B09F41B
:1045100048C0209180052631F0F540916800283090
:1045200058F031E02E3008F430E091E0892F01C0DE
:10453000880F3A95EAF701C084E0842B80936800E5
:10454000283038F02E3040F0263148F4ECE6F0E028
:1045500008C0EDE6F0E005C0EBE6F0E002C0E0E008
:10456000F0E03081283030F491E001C0990F2A95B5
:10457000EAF70EC0422F50E02E3018F4485051098F
:1045800002C04E50510991E001C0990F4A95EAF7D7
:10459000892F832B808380918D0590918E050E94B9
:1045A000251A80913607909137078457954091F0EE
:1045B00080918F058E7F80938F058FB7F89410922E
:1045C00035071092340724E735E0309337072093FE
:1045D00036078FBF8CE692E00E946E1B89E793E05E
:1045E0000E946E1B0E943A1781E893E00E946E1BA6
:1045F0000E943A1787E692E0909331068093300646
:1046000010923306109232068AE397E09093B90530
:104610008093B8051092BB051092BA0581EC95E025
:1046200090930D0680930C0610920F0610920E06C2
:104630008CEA94E09093F5068093F4061092F706C6
:104640001092F60682ED9EE09093A1068093A0065C
:104650001092A3061092A2068CED90E0909395061E
:104660008093940610929706109296068EE793E038
:104670009093E9068093E8061092EB061092EA0602
:1046800089E692E09093DD068093DC061092DF06C7
:104690001092DE068BE293E19093D1068093D006D0
:1046A0001092D3061092D2068FEB92E19093C5063A
:1046B0008093C4061092C7061092C60680ED9BE058
:1046C0009093B9068093B8061092BB061092BA0672
:1046D00082EF91E1909359068093580610925B0601
:1046E00010925A0683E291E19093650680936406E6
:1046F000109267061092660684EC90E190937D0616
:1047000080937C0610927F0610927E0684E690E1EC
:1047100090934D0680934C0610924F0610924E06D1
:1047200089E69BE09093F5058093F4051092F705D8
:104730001092F60586E09BE09093E9058093E805EA
:104740001092EB051092EA058DE69FE09093DD054F
:104750008093DC051092DF051092DE0588EC9BE06B
:104760009093D1058093D0051092D3051092D20575
:104770008EEC9BE09093C5058093C4051092C7050D
:104780001092C60589E091E090931906809318066F
:1047900010921B0610921A0687EE90E09093F10695
:1047A0008093F0061092F3061092F20687E091E0F3
:1047B0009093E5068093E4061092E7061092E606D1
:1047C00085E091E09093D9068093D8061092DB069D
:1047D0001092DA0683E091E09093CD068093CC06A8
:1047E0001092CF061092CE0681E091E09093C10620
:1047F0008093C0061092C3061092C2068FEF90E01D
:104800009093B5068093B4061092B7061092B60640
:104810008DEF90E09093A9068093A8061092AB06C6
:104820001092AA068BEF90E0909339068093380699
:1048300010923B0610923A0689EF90E090932D0675
:1048400080932C0610922F0610922E0687EF90E090
:104850009093210680932006109223061092220640
:1048600085EF90E09093150680931406109217063A
:104870001092160683EF90E090939D0680939C061D
:1048800010929F0610929E0681EF90E09093910601
:104890008093900610929306109292068FEE90E00D
:1048A0009093850680938406109287061092860660
:1048B00088E893E00E94D6160E94F7170E948C08A1
:1048C000FBCF89E591E09093750580937405209165
:1048D0008005263140F5283028F02E3030F0ECE607
:1048E000F0E005C0EDE6F0E002C0EBE6F0E030817C
:1048F000283038F481E090E001C0880F2A95EAF76B
:104900000FC0422F50E02E3018F44850510902C019
:104910004E50510981E090E001C0880F4A95EAF7B6
:104920008095832380830895BB274A3031F49923EF
:1049300022F4BDE2909581959F4F0C94A024BB2753
:10494000FB015527AA27880F991FAA1FA41710F04B
:10495000A41B83955051B9F7A05DAA3308F0A95D57
:10496000A193009779F7B111B1931192CB010C94F7
:10497000B924DC01FC01672F71917723E1F73297AD
:1049800004C07C916D9370836291AE17BF07C8F32A
:1049900008950E940B2508F481E00895E89409C069
:1049A00097FB3EF490958095709561957F4F8F4F62
:1049B0009F4F9923A9F0F92F96E9BB279395F69578
:1049C000879577956795B795F111F8CFFAF4BB0FF6
:1049D00011F460FF1BC06F5F7F4F8F4F9F4F16C05A
:1049E000882311F096E911C0772321F09EE8872FE4
:1049F000762F05C0662371F096E8862F70E060E0A0
:104A00002AF09A95660F771F881FDAF7880F969518
:104A1000879597F90895990F0008550FAA0BE0E8BC
:104A2000FEEF16161706E807F907C0F01216130670
:104A3000E407F50798F0621B730B840B950B39F4B0
:104A40000A2661F0232B242B252B21F408950A2616
:104A500009F4A140A6958FEF811D811D08950E9444
:104A600042250C94B3250E94A52538F00E94AC2560
:104A700020F0952311F00C949C250C94A225112470
:104A80000C94E7250E94C42570F3959FC1F3950F00
:104A900050E0551F629FF001729FBB27F00DB11DC2
:104AA000639FAA27F00DB11DAA1F649F6627B00D52
:104AB000A11D661F829F2227B00DA11D621F739F3B
:104AC000B00DA11D621F839FA00D611D221F749F49
:104AD0003327A00D611D231F849F600D211D822F90
:104AE000762F6A2F11249F5750409AF0F1F08823B7
:104AF0004AF0EE0FFF1FBB1F661F771F881F9150E4
:104B00005040A9F79E3F510580F00C949C250C94D1
:104B1000E7255F3FE4F3983ED4F386957795679554
:104B2000B795F795E7959F5FC1F7FE2B880F911D0D
:104B30009695879597F9089597F99F6780E870E0B3
:104B400060E008959FEF80EC089500240A94161603
:104B5000170618060906089500240A94121613066B
:104B6000140605060895092E0394000C11F48823F9
:104B700052F0BB0F40F4BF2B11F460FF04C06F5F15
:104B80007F4F8F4F9F4F089557FD9058440F551FEB
:104B900059F05F3F71F04795880F97FB991F61F0BF
:104BA0009F3F79F087950895121613061406551F36
:104BB000F2CF4695F1DF08C0161617061806991FA2
:104BC000F1CF86957105610508940895E894BB2797
:104BD00066277727CB0197F90895DC01CB01FC010B
:104BE000F999FECF06C0F2BDE1BDF89A319600B446
:104BF0000D9241505040B8F70895F999FECF92BDFB
:104C000081BDF89A992780B50895A8E1B0E042E007
:104C100050E00C94EF25262FF999FECF1FBA92BDD4
:104C200081BD20BD0FB6F894FA9AF99A0FBE01968D
:104C300008950E940B26272F0C940C26052E97FB17
:104C40001EF400940E94352657FD07D00E947F264F
:104C500007FC03D04EF40C943526509540953095C2
:104C600021953F4F4F4F5F4F0895909580957095D8
:104C700061957F4F8F4F9F4F08950E94A126A59F5A
:104C8000900DB49F900DA49F800D911D1124089547
:104C90002F923F924F925F926F927F928F929F924C
:104CA000AF92BF92CF92DF92EF92FF920F931F933A
:104CB000CF93DF93CDB7DEB7CA1BDB0B0FB6F894EB
:104CC000DEBF0FBECDBF09942A88398848885F842B
:104CD0006E847D848C849B84AA84B984C884DF809C
:104CE000EE80FD800C811B81AA81B981CE0FD11D80
:104CF0000FB6F894DEBF0FBECDBFED010895A1E25F
:104D00001A2EAA1BBB1BFD010DC0AA1FBB1FEE1F45
:104D1000FF1FA217B307E407F50720F0A21BB30B90
:104D2000E40BF50B661F771F881F991F1A9469F70C
:104D300060957095809590959B01AC01BD01CF0168
:104D40000895A29FB001B39FC001A39F700D811D64
:104D50001124911DB29F700D811D1124911D089584
:104D60005058BB27AA270E94C8260C94B3250E943E
:104D7000A52538F00E94AC2520F039F49F3F19F4A6
:104D800026F40C94A2250EF4E095E7FB0C949C25E8
:104D9000E92F0E94C42558F3BA17620773078407E6
:104DA000950720F079F4A6F50C94E6250EF4E0952D
:104DB0000B2EBA2FA02D0B01B90190010C01CA01D5
:104DC000A0011124FF27591B99F0593F50F4503E80
:104DD00068F11A16F040A22F232F342F4427585F72
:104DE000F3CF469537952795A795F0405395C9F78A
:104DF0007EF41F16BA0B620B730B840BBAF0915042
:104E0000A1F0FF0FBB1F661F771F881FC2F70EC0E0
:104E1000BA0F621F731F841F48F4879577956795B3
:104E2000B795F7959E3F08F0B0CF9395880F08F09F
:104E30009927EE0F9795879508950E9431270C9436
:104E4000B3250E94AC2558F00E94A52540F029F416
:104E50005F3F29F00C949C2551110C94E7250C948C
:104E6000A2250E94C42568F39923B1F3552391F339
:104E7000951B550BBB27AA2762177307840738F0C9
:104E80009F5F5F4F220F331F441FAA1FA9F335D026
:104E90000E2E3AF0E0E832D091505040E695001CDA
:104EA000CAF72BD0FE2F29D0660F771F881FBB1F94
:104EB000261737074807AB07B0E809F0BB0B802D72
:104EC000BF01FF2793585F4F3AF09E3F510578F09E
:104ED0000C949C250C94E7255F3FE4F3983ED4F3B3
:104EE000869577956795B795F7959F5FC9F7880F72
:104EF000911D9695879597F90895E1E0660F771FC4
:104F0000881FBB1F621773078407BA0720F0621B54
:104F1000730B840BBA0BEE1F88F7E09508950E947F
:104F200096276894B1110C94E72508950E94CC252A
:104F300088F09F5798F0B92F9927B751B0F0E1F05A
:104F4000660F771F881F991F1AF0BA95C9F714C00A
:104F5000B13091F00E94E625B1E008950C94E62569
:104F6000672F782F8827B85F39F0B93FCCF3869543
:104F700077956795B395D9F73EF4909580957095A0
:104F800061957F4F8F4F9F4F08950E940B2508F426
:104F90008FEF089597FB072E16F4009407D077FD46
:104FA00009D00E94E52707FC05D03EF49095819535
:104FB0009F4F0895709561957F4F08950E94A12697
:104FC000B7FF0895821B930B0895AA1BBB1B51E1E9
:104FD00007C0AA1FBB1FA617B70710F0A61BB70B69
:104FE000881F991F5A95A9F780959095BC01CD010E
:104FF0000895EE0FFF1F0590F491E02D09940F9393
:105000001F93CF93DF938230910510F482E090E0FC
:10501000E091C007F091C10720E030E0A0E0B0E0EF
:10502000309719F140815181028113814817590746
:10503000C8F08417950769F4109731F012960C9315
:10504000129713961C9327C00093C0071093C107B3
:1050500022C02115310519F04217530718F49A019F
:10506000BD01EF01DF01F801DBCF21153105F9F0BA
:10507000281B390B2430310580F48A819B8161150E
:10508000710521F0FB019383828304C09093C107D3
:105090008093C007FE01329644C0FE01E20FF31F69
:1050A0008193919322503109398328833AC020910A
:1050B000BE073091BF07232B41F420913F0130916F
:1050C00040013093BF072093BE0720913D013091EE
:1050D0003E012115310541F42DB73EB74091410104
:1050E00050914201241B350BE091BE07F091BF07A0
:1050F000E217F307A0F42E1B3F0B2817390778F0AF
:10510000AC014E5F5F4F2417350748F04E0F5F1F0D
:105110005093BF074093BE078193919302C0E0E094
:10512000F0E0CF01DF91CF911F910F910895CF93C0
:10513000DF93009709F481C0FC0132971382128239
:10514000A091C007B091C107109781F420813181EF
:10515000820F931F2091BE073091BF072817390790
:1051600051F5F093BF07E093BE0767C0ED0120E063
:1051700030E0CE17DF0740F44A815B819E01411584
:105180005105F1F0EA01F5CFD383C283408151810B
:10519000840F951FC817D90759F488819981840F06
:1051A000951F0296918380838A819B81938382835A
:1051B0002115310529F4F093C107E093C0073DC0E4
:1051C000E901FB83EA8349915991C40FD51FEC177C
:1051D000FD0761F480819181840F951F0296E9019A
:1051E00099838883828193819B838A83E0E0F0E0C6
:1051F00012968D919C911397009719F0FD01DC0197
:10520000F7CF8D919C9111979D012E5F3F4F820F9B
:10521000931F2091BE073091BF072817390769F403
:10522000309729F41092C1071092C00702C0138270
:105230001282B093BF07A093BE07DF91CF9108956C
:10524000A0E0B0E0E6E2F9E20C944C26EC01009715
:1052500021F4CB010E94FF27B4C0FC01E60FF71F29
:105260009C0122503109E217F30708F4A8C0D901C4
:105270000D911C91119706171707B0F00530110515
:1052800008F49BC0C80104978617970708F495C0D7
:1052900002501109061B170B019311936D937C9318
:1052A000CF010E94972889C05B01A01AB10A4C0166
:1052B000800E911EA091C007B091C107612C712C86
:1052C000E12CF12C109709F446C08D919C91119717
:1052D000A815B905B1F56C0142E0C40ED11CCA1481
:1052E000DB0478F14C018A189B08640142E0C40E8B
:1052F000D11C1296BC9012971396AC91B5E0CB16C8
:10530000D10440F0B282A38391828082D9016D934F
:105310007C9309C00E5F1F4F800F911FF90191838D
:105320008083EB2DFA2FE114F10431F0D7011396AD
:10533000FC93EE93129741C0F093C107E093C0072E
:105340003CC06816790608F43C017D0112960D9068
:10535000BC91A02DB7CF8091BE079091BF07881652
:105360009906E1F466167706C8F480913D019091A4
:105370003E01009741F48DB79EB740914101509195
:105380004201841B950BE817F907C8F4F093BF0797
:10539000E093BE07F901718360830FC0CB010E94C7
:1053A000FF277C01009759F0A801BE010E94EB295C
:1053B000CE010E949728C70104C0CE0102C080E040
:1053C00090E0CDB7DEB7EEE00C94682681E090E087
:1053D000F8940C94FB29FB01DC0102C001900D92B2
:1053E00041505040D8F70895FB01DC0101900D9227
:1053F0000020E1F7089510E0C1EBD0E004C0FE0109
:105400000E94F9272196C23BD107C9F7F894FFCF34
:105410001C0CE0FCEC06E006D406C806BC06B00690
:10542000A406680650065C06440698068C068006AC
:105430007406EC05E005D405C805BC05340628064D
:1054400010060406F805B00598050000FF0000C22C
:10545000078000000000001D088A07B4076A08E5FD
:1054600007C307D707000000002C1A8A07A7195E98
:10547000196D198519441961727265744175746FDB
:10548000506F7043616C6C6261636B00736572692D
:10549000616C0072657061697273002020202020A9
:1054A0000070616765300062756C6C734579655298
:1054B0006570506F7043616C6C4261636B006E3855
:1054C000006E370070726F67726573734379636C37
:1054D000650070726F677265737352657000676103
:1054E000756765416E616C6F6700676175676544DC
:1054F00069676952657000737065656452657050C4
:105500006F7043616C6C6261636B0063616C6962B4
:10551000726174696F6E506F7043616C6C4261634D
:105520006B0067617567654469676943616C006317
:10553000616C69627261746547617567650070725C
:105540006F677265737342617243616C0074757248
:105550006E4F6666506F7043616C6C4261636B00A6
:1055600067657420002E76616C0072656376526503
:10557000744E756D626572203A000D0A00726563A3
:10558000765265744E756D62657220657272006642
:1055900061737400737461720062756C6C73657909
:1055A0006500636F6D62696E6174696F6E006D6135
:1055B0006E75616C007576437572696E6700736510
:1055C0007475700053746F7000743400707265737A
:1055D000737572655A65726F0076616375756D00DB
:1055E000707265737375726500705A65726F4D6184
:1055F0006E750070726F67726573734261740062DA
:1056000061744C6576656C416E616C6F67006C61AE
:105610006E677561676573006261744C6576656C71
:105620000063616C6962726174696F6E00696E66B5
:105630006F730061746D0063616C6962726174659F
:1056400053746172740063616C6962726174654560
:1056500078697400706C75735556006D696E75735A
:10566000555600737461727455560073746F70559B
:10567000560065786974555600683000507265733D
:10568000737572654C65616B00626B636D643D316F
:105690000070616765203000736574757020646FF9
:1056A0006E65006E30006E3100637572696E67550D
:1056B00056506F7043616C6C4261636B006E3400D6
:1056C0006E33006E32006E36006E350064657061B8
:1056D00072744175746F506F7043616C6C4261639A
:1056E0006B007132002E706963633D00457868611C
:1056F00075734175746F506F7043616C6C42616378
:105700006B006761756765446967694D616E006725
:1057100061756765416E614D616E006578686175A0
:1057200073744175746F506F7043616C6C42616348
:105730006B0076616375756D4D616E75506F70436A
:10574000616C6C4261636B00707265737375726536
:105750004D616E75506F7043616C6C4261636B009C
:105760006D616E75616C526570506F7043616C6CE9
:105770004261636B00636F6D6269526570506F7058
:1057800043616C6C4261636B007265637652657451
:10579000436F6D6D616E6446696E69736865642000
:1057A0006F6B0072656376526574436F6D6D616EE9
:1057B0006446696E69736865642065727200286E5C
:1057C000756C6C29005D005B002C002E76616C3DD1
:0E57D000002E7478743D220070616765200021
:107E0000112484B714BE81FFF0D085E080938100F7
:107E100082E08093C00088E18093C10086E0809377
:107E2000C20080E18093C4008EE0C9D0259A86E02C
:107E300020E33CEF91E0309385002093840096BBD3
:107E4000B09BFECF1D9AA8958150A9F7CC24DD24C4
:107E500088248394B5E0AB2EA1E19A2EF3E0BF2EE7
:107E6000A2D0813461F49FD0082FAFD0023811F036
:107E7000013811F484E001C083E08DD089C08234E0
:107E800011F484E103C0853419F485E0A6D080C0E4
:107E9000853579F488D0E82EFF2485D0082F10E0AE
:107EA000102F00270E291F29000F111F8ED06801E7
:107EB0006FC0863521F484E090D080E0DECF843638
:107EC00009F040C070D06FD0082F6DD080E0C81688
:107ED00080E7D80618F4F601B7BEE895C0E0D1E017
:107EE00062D089930C17E1F7F0E0CF16F0E7DF06D8
:107EF00018F0F601B7BEE89568D007B600FCFDCFD4
:107F0000A601A0E0B1E02C9130E011968C91119780
:107F100090E0982F8827822B932B1296FA010C0160
:107F200087BEE89511244E5F5F4FF1E0A038BF0790
:107F300051F7F601A7BEE89507B600FCFDCF97BE46
:107F4000E89526C08437B1F42ED02DD0F82E2BD052
:107F50003CD0F601EF2C8F010F5F1F4F84911BD097
:107F6000EA94F801C1F70894C11CD11CFA94CF0C13
:107F7000D11C0EC0853739F428D08EE10CD085E9AC
:107F80000AD08FE07ACF813511F488E018D01DD067
:107F900080E101D065CF982F8091C00085FFFCCF94
:107FA0009093C60008958091C00087FFFCCF809118
:107FB000C00084FD01C0A8958091C6000895E0E648
:107FC000F0E098E1908380830895EDDF803219F02E
:107FD00088E0F5DFFFCF84E1DECF1F93182FE3DFCA
:107FE0001150E9F7F2DF1F91089580E0E8DFEE27F6
:047FF000FF270994CA
:027FFE00040479
:0400000300007E007B
:00000001FF
