:100000000C94B2000C94DA000C94DA000C944B17A8
:100010000C9427170C9403170C94DA000C94BE145C
:100020000C94DA000C94DA000C94DA000C94DA00E8
:100030000C94DA000C94DA000C94DA000C94DA00D8
:100040000C94D9150C94DA000C9433140C940D1400
:100050000C94DA000C94DA000C94DA000C94DA00B8
:100060000C94DA000C94DA0000C2010001001100C7
:1000700011000C0000E100000A002500250021000D
:10008000009600001900390039003600127A00008D
:100090001F004600460044008070000022004D0012
:1000A0004D004A00004B00003600750075007200DC
:1000B000403800004A009C009C0099008025000008
:1000C0007200EC00EC00E900C0120000E900DA0167
:1000D000DA01D70160090000D701B603B603B30304
:1000E000B0040000B3036E076E076B0758020000F0
:1000F0006E07DC0EDC0ED80E2C010000DC0EC11DDC
:10010000C11DBE1D0200000000250028002B0000BC
:100110000000002300260029000404040404040451
:1001200004020202020202030303030303010204A6
:100130000810204080010204081020010204081069
:100140002000000000240027002A00000000080012
:10015000020100000304070000000000000000008E
:10016000E21EFC2211241FBECFEFD8E0DEBFCDBFC0
:1001700014E0A0E0B1E0E6E6F1E502C005900D92E2
:10018000A638B107D9F727E0A6E8B4E001C01D9270
:10019000A836B207E1F710E0C1EBD0E004C0219728
:1001A000FE010E949426C03BD107C9F70E940B1C98
:1001B0000C94A6280C94000083E691E00E9427107E
:1001C0001092A0040E9422098091A00408952F9209
:1001D0003F924F925F926F927F928F929F92AF92D7
:1001E000BF92CF92DF92EF92FF920F931F93CF9324
:1001F000DF93CDB7DEB72E970FB6F894DEBF0FBEF4
:10020000CDBF88E791E00E94271010928F041092D2
:100210008E0410929D0410929C0484E6C82ED12C6A
:10022000E12CF12C17E090EA292E9FE0392E412C89
:10023000512C04E02BEA622E21E0722E3AE0832E4C
:10024000912CA12CB12C8EE00E947C15BC01990F41
:10025000880B990B0E946B232AE038E240EA5BE3AB
:100260000E94CA232DEC3CEC4CE45EE30E944C253A
:100270000E942A2648E55BE1469F9001479F300D8A
:10028000569F300D1124B901330F880B990B0E9432
:100290006B2320E030E040E950E40E94B8250E9442
:1002A0002A26DC01CB0190938C0480938B049093DD
:1002B0009D0480939C044AE068E974E00E942F2327
:1002C000198358E05A838FE891E09C838B831E82C8
:1002D0001D821A8619861C861B8618861F8268E96D
:1002E00074E0CE0101960E94931720918B04309107
:1002F0008C04C901330FAA0BBB0B9C01AD01285123
:100300003C4F4F4F5F4FA8EDB0E00E94D824A201B0
:1003100091010E94B924BA01A901198395E09A8339
:100320008CE991E09C838B83CE0101960E94B818E2
:1003300019830A837C826B82C701B601A5019401EF
:100340000E94B924BA01A901CE0101960E94D717D3
:1003500020918E0430918F0480918B0490918C04B5
:10036000820F931F90938F0480938E0468EE73E046
:1003700080E090E00E94931594E6C90ED11CE11C28
:10038000F11C4CE4C41644E0D406E104F10409F085
:100390005ACF80918E0490918F046AE070E00E94A1
:1003A000652670938F0460938E047E876D878AE044
:1003B00090E00E9498246D85861721F08AE090E0F5
:1003C0000E94A6248BE090E00E9498246E858617F8
:1003D00021F08BE090E00E94A624C0908E04D09083
:1003E0008F040D2C000CEE08FF08F7FE14C0E091FE
:1003F000D304F091D4040190F081E02D6DE283EDFF
:1004000094E0099566277727CB016C197D098E0941
:100410009F094AE003C04AE0C701B6010E94C31029
:100420006AEB71E083ED94E00E94F61320918B0457
:1004300030918C0480918E0490918F04281B390B8D
:10044000C901330FAA0BBB0B9C01AD0128513C4FD6
:100450004F4F5F4FA8EDB0E00E94D82420EA3FE064
:1004600040E050E00E94B924BA01A90117E01983C5
:1004700085E08A838CE991E09C838B83CE01019691
:100480000E94B81880918B0490918C0420918E0466
:1004900030918F04821B930B90939D0480939C0456
:1004A0004AE068E974E00E942F23198388E08A8378
:1004B0008FE891E09C838B831E821D821A861986A9
:1004C0001C861B8618861F8268E974E0CE0101969F
:1004D0000E9493172E960FB6F894DEBF0FBECDBFC5
:1004E000DF91CF911F910F91FF90EF90DF90CF9010
:1004F000BF90AF909F908F907F906F905F904F9044
:100500003F902F9008954AE050E060E070E088EC62
:1005100090E00C94C90D4AE050E060E070E088EC97
:1005200090E00C94C90D4AE050E060E070E088EC87
:1005300090E00C94C90D4AE050E060E070E088EC77
:1005400090E00C94C90D4AE050E060E070E088EC67
:1005500090E00C94C90D4AE050E060E070E088EC57
:1005600090E00C94C90D4AE050E060E070E088EC47
:1005700090E00C94C90D4AE050E060E070E088EC37
:1005800090E00C94C90D4AE050E060E070E088EC27
:1005900090E00C94C90D4AE050E060E070E088EC17
:1005A00090E00C94C90D4AE050E060E070E088EC07
:1005B00090E00C94C90D4AE050E060E070E088ECF7
:1005C00090E00C94C90D4AE050E060E070E088ECE7
:1005D00090E00C94C90D4AE050E060E070E088ECD7
:1005E00090E00C94C90DCF93DF93CDB7DEB72E9773
:1005F0000FB6F894DEBF0FBECDBF8DEB91E00E9429
:10060000271060ED71E0CE0109960E94B61360914B
:10061000B0057091B105CE0109960E94DF1165ED1C
:1006200071E0CE0109960E94DF1189859A850E94AA
:100630006F17FE01319688E0DF011D928A95E9F778
:100640008AEE91E00E942710CE0109960E941412B2
:1006500044EF51E060E070E080EB94E00E94C90D4F
:1006600064EF71E080E090E00E94931561E086E025
:100670000E948E142E960FB6F894DEBF0FBECDBF2B
:10068000DF91CF9108950F931F93CF93DF93CDB751
:10069000DEB762970FB6F894DEBF0FBECDBF86E01F
:1006A000EBE0F2E0DE011D9601900D928A95E1F7F4
:1006B00000E010E041E050E0B8018DE090E08C0FE8
:1006C0009D1F800F911F0E9488240F5F1F4F0530D0
:1006D000110581F71AE0198387E08A838CEF91E096
:1006E0009C838B831E821D821A8619861C861B861C
:1006F00018861F82BE01635F7F4FCE0101960E9464
:10070000931784E190E00E94A024AC01198383E058
:100710008A8383E092E09C838B831E821D821A86EB
:1007200019861C861B8618861F82052E000C660BF8
:10073000770BCE0101960E94611862960FB6F8946D
:10074000DEBF0FBECDBFDF91CF911F910F910895F6
:100750008F929F92AF92BF92CF92DF92EF92FF92D1
:100760008FE00E947C152FE420937C00EFE0F0E006
:100770003197F1F72EE420937C00EBE1F3E0319721
:10078000F1F720917A00206820937A0020917A0076
:10079000206420937A0020917A0026FDFCCFF0900F
:1007A0007800E0907900BC0180E090E00E9469232D
:1007B0002DEC3CEC4CE85FE30E94CA234B015C014A
:1007C0008F2D90E09E29BC0180E090E00E9469237B
:1007D0009B01AC01C501B4010E94B82520E030E0C6
:1007E00040E450E40E94CA236B017C0160938704BB
:1007F000709388048093890490938A0420E030E009
:1008000040E651E40E94602687FF1BC02DEC3CECC3
:100810004CE351E4C701B6010E94642387FD14C074
:100820002DEC3CEC4CE351E4C701B6010E944B2592
:1008300028E539E344EB5CE30E94B8250E943126A9
:1008400005C064E670E002C060E070E06B01E12C7E
:10085000F12CB701A6018AE496E00E94D717B701F0
:10086000A6018EE396E00E94611868EE73E080E0D6
:1008700090E0FF90EF90DF90CF90BF90AF909F906F
:100880008F900C949315CF92DF92EF92FF920F937B
:100890001F93CF93DF93CDB7DEB72C970FB6F894A5
:1008A000DEBF0FBECDBF0E94A803C0908704D090CA
:1008B0008804E0908904F0908A0420E030E040E46D
:1008C00051E4C701B6010E94642387FF1AC0EDE519
:1008D000F1E08491EFE3F1E00491EBE2F1E01491B7
:1008E0001123E9F081110E946514E12FF0E0EE0F71
:1008F000FF1FE15FFE4FA591B491EC91E02379F0E9
:100900002BC020E030E040E451E4C701B6010E9472
:10091000602687FD24C081E080938D0420C081E0A3
:1009200080938604809186048111F5CF10928D0406
:100930008EE089831A8281E192E09C838B831E8200
:100940001D821A8619861C861B8618861F82CE0178
:1009500001960E942E1803C010928604E3CF2C96B5
:100960000FB6F894DEBF0FBECDBFDF91CF911F91C0
:100970000F91FF90EF90DF90CF900895EF92FF924C
:100980001F93CF93DF93CDB7DEB72C970FB6F894B4
:10099000DEBF0FBECDBF87E192E00E9427100E940C
:1009A000430481E080938D0488E790E0909397045E
:1009B0008093960490939504809394049093930469
:1009C00080939204909391048093900412E0198391
:1009D00085E08A838EE292E09C838B8340E050E046
:1009E000BA01CE0101960E94D717198386E08A8347
:1009F0008CE392E09C838B8340E050E0BA01CE010F
:100A000001960E94D71780919E0490919F042CE339
:100A1000E22EF12CB7010E946526AC01990F660BFE
:100A2000770B198382E18A8388E492E09C838B832D
:100A30001E821D821A8619861C861B8618861F82B6
:100A4000CE0101960E94611880919E0490919F04AE
:100A5000B7010E946526AB01770F660B770B1983F0
:100A600081E18A838BE492E09C838B831E821D82CA
:100A70001A8619861C861B8618861F82CE0101964F
:100A80000E9461180E942E099C0119831A838EE42A
:100A900092E09C838B83C901330FAA0BBB0B9C0193
:100AA000AD0128513C4F4F4F5F4FA8EDB0E00E9481
:100AB000D82420EA3FE040E050E00E94B924BA0187
:100AC000A901CE0101960E94B8180E942E099093A8
:100AD0009D0480939C044AE068E974E00E942F23FF
:100AE00019838BE18A838AE592E09C838B831E8243
:100AF0001D821A8619861C861B8618861F8268E945
:100B000074E0CE0101960E9493172C960FB6F894CC
:100B1000DEBF0FBECDBFDF91CF911F91FF90EF9051
:100B20000895CF92DF92EF92FF920F931F93CF938E
:100B3000DF93CDB7DEB72C970FB6F894DEBF0FBEAC
:100B4000CDBF0E94430481E080938D0428E730E00C
:100B5000309397042093960484EB90E0909395044F
:100B6000809394043093930420939204909391047F
:100B70008093900412E0198385E08A838EE292E0EC
:100B80009C838B8340E050E0BA01CE0101960E9425
:100B9000D717198386E08A838CE392E09C838B834A
:100BA00040E050E0BA01CE0101960E94D7170E94A2
:100BB0002E0990939D0480939C044AE068E974E0B8
:100BC0000E942F2319830BE10A838AE5E82E82E035
:100BD000F82EFC82EB821E821D821A8619861C86E4
:100BE0001B8618861F8268E974E0CE0101960E9478
:100BF00093170E942E099C0119831A838EE492E0B8
:100C00009C838B83C901330FAA0BBB0B9C01AD01E5
:100C100028513C4F4F4F5F4FA8EDB0E00E94D824C1
:100C200020EA3FE040E050E00E94B924BA01A90167
:100C3000CE0101960E94B81880919E0490919F0465
:100C40002CE3C22ED12CB6010E946526AC01990F6F
:100C5000660B770B198382E18A8388E492E09C8398
:100C60008B831E821D821A8619861C861B86188617
:100C70001F82CE0101960E94611880919E0490917E
:100C80009F04B6010E946526AB01770F660B770BB8
:100C9000198381E18A838BE492E09C838B831E829B
:100CA0001D821A8619861C861B8618861F82CE0115
:100CB00001960E94611819830A83FC82EB821E82CE
:100CC0001D821A8619861C861B8618861F8268E973
:100CD00074E0CE0101960E9493172C960FB6F894FB
:100CE000DEBF0FBECDBFDF91CF911F910F91FF905F
:100CF000EF90DF90CF900895EF92FF921F93CF93E4
:100D0000DF93CDB7DEB72C970FB6F894DEBF0FBEDA
:100D1000CDBF87E692E00E9427100E94430481E045
:100D200080938D048CE3E82EF12CF0929704E092EE
:100D3000960488E790E09093950480939404F09251
:100D40009304E0929204909391048093900412E0B3
:100D5000198385E08A838EE292E09C838B8340E056
:100D600050E0BA01CE0101960E94D717198386E0A0
:100D70008A838CE392E09C838B8340E050E0BA014D
:100D8000CE0101960E94D7170E942E0990939D04D0
:100D900080939C044AE068E974E00E942F230E943B
:100DA0002E099C0119831A838EE492E09C838B8325
:100DB000C901330FAA0BBB0B9C01AD0128513C4F5D
:100DC0004F4F5F4FA8EDB0E00E94D82420EA3FE0EB
:100DD00040E050E00E94B924BA01A901CE01019679
:100DE0000E94B81880919E0490919F04B7010E94C0
:100DF0006526AC01990F660B770B198382E18A8314
:100E000088E492E09C838B831E821D821A86198659
:100E10001C861B8618861F82CE0101960E946118CF
:100E200080919E0490919F04B7010E946526AB01BA
:100E3000770F660B770B198381E18A838BE492E04D
:100E40009C838B831E821D821A8619861C861B86B4
:100E500018861F82CE0101960E94611819838BE1CA
:100E60008A838AE592E09C838B831E821D821A8688
:100E700019861C861B8618861F8268E974E0CE01DD
:100E800001960E9493172C960FB6F894DEBF0FBE02
:100E9000CDBFDF91CF911F91FF90EF9008950C94FB
:100EA000A8031092A30460E087E00C948E141092C3
:100EB000A30460E087E00C948E14EF92FF920F93EE
:100EC0001F93CF93DF93CDB7DEB72C970FB6F8946F
:100ED000DEBF0FBECDBF8091A4049091A5048E31DA
:100EE00091050CF440C04E979093A5048093A40400
:100EF00008E0098319E01A832BE732E03C832B8357
:100F00001E821D821A8619861C861B8618861F82E1
:100F10002CE3E22EF12CB7010E946526AC01990F5B
:100F2000660B770BCE0101960E9461188091A40494
:100F30009091A504B7010E946526AB01770F660B5F
:100F4000770B09831A838EE792E09C838B831E8242
:100F50001D821A8619861C861B8618861F82CE0162
:100F600001960E9461182C960FB6F894DEBF0FBE52
:100F7000CDBFDF91CF911F910F91FF90EF9008951A
:100F8000EF92FF920F931F93CF93DF93CDB7DEB70E
:100F90002C970FB6F894DEBF0FBECDBF8091A4048E
:100FA0009091A5044E969093A5048093A40408E024
:100FB000098319E01A832BE732E03C832B831E82DE
:100FC0001D821A8619861C861B8618861F822CE3B2
:100FD000E22EF12CB7010E946526AC01990F660B39
:100FE000770BCE0101960E9461188091A404909124
:100FF000A504B7010E946526AB01770F660B770B3E
:1010000009831A838EE792E09C838B831E821D8264
:101010001A8619861C861B8618861F82CE010196A9
:101020000E9461182C960FB6F894DEBF0FBECDBF9C
:10103000DF91CF911F910F91FF90EF90089581E87C
:1010400092E00E9427100E94430481E080938D0467
:101050001092A5041092A40408956F927F928F922B
:101060009F92AF92BF92CF92DF92EF92FF920F9337
:101070001F93CF93DF93CDB7DEB762970FB6F89487
:10108000DEBF0FBECDBF81E08093A30461E087E0A7
:101090000E948E1488E0B82E99E0A92E2BE7E22E4C
:1010A00022E0F22E0CE310E03EE7C32E32E0D32E16
:1010B0008091A4049091A504181619066CF50E945D
:1010C000CD156093AC047093AD048093AE049093FF
:1010D000AF040E9406118091AC049091AD04A091E0
:1010E000AE04B091AF044091A8045091A90460915E
:1010F000AA047091AB043C014D01641A750A860A7A
:10110000970A28EE621623E072068104910480F2A9
:101110002091A304211152C08E010F5F1F4F8AE05E
:10112000F80111928A95E9F76CEB71E0CE010D960A
:101130000E94B6134AE0B80183E290E00E943A238D
:1011400065E972E0CE010D960E94DF1168E972E058
:10115000CE010D960E94DF11B801CE010D960E94BE
:10116000DF118D859E850E946F170E947410CE013D
:101170000D960E94141260E087E00E948E144CEDE0
:1011800055E060E070E080EB94E00E94C90D0E94A1
:10119000061162960FB6F894DEBF0FBECDBFDF9189
:1011A000CF911F910F91FF90EF90DF90CF90BF9064
:1011B000AF909F908F907F906F9008958093A80438
:1011C0009093A904A093AA04B093AB048091A404C3
:1011D0009091A50401979093A5048093A404B982EB
:1011E000AA82FC82EB821E821D821A8619861C86C8
:1011F0001B8618861F82B8010E946526AC01990FD4
:10120000660B770BCE0101960E9461188091A404B1
:101210009091A504B8010E946526AB01770F660B7B
:10122000770BB982AA82DC82CB821E821D821A864B
:1012300019861C861B8618861F82CE0101960E9485
:10124000611836CF60E083E00E948E1460E082E097
:101250000E948E1460E084E00C948E140F931F9310
:10126000CF93DF938AE090E00E94A024EC0190935A
:101270008F0480938E048EE00E947C15BC01990F30
:10128000880B990B0E946B232AE038E240EA5BE36B
:101290000E94CA232DEC3CEC4CE45EE30E944C25FA
:1012A00020E030EC4AED55E40E94CA2320E030E013
:1012B00040E950E40E94B8250E942A268E01DD0FE5
:1012C000220B330BDC01CB01801B910BA20BB30B68
:1012D000DF91CF911F910F910895CF92DF92EF92FE
:1012E000FF920F931F93CF93DF936C010E942E09FF
:1012F0000D2C000CEE08FF0808EEC00E03E0D01E17
:10130000E11CF11C092E000CAA0BBB0B88519C4F51
:10131000AF4FBF4FEC010E94CD15609392057093C3
:101320009305809394059093950596012253310976
:10133000C217D3070CF040C00091A1041091A20481
:1013400006301105CCF561E084E00E948E1461E066
:1013500083E00E948E1460E082E00E948E148091EF
:10136000920590919305A0919405B09195054091B7
:101370008E0550918F0560919005709191056C01DB
:101380007D01C41AD50AE60AF70A28EEC21623E040
:10139000D206E104F10408F456C080938E059093C0
:1013A0008F05A0939005B09391050F5F1F4F109389
:1013B000A2040093A10447C082E3C80ED11CCC163E
:1013C000DD060CF042C0E090A104F090A20406E01B
:1013D000E016F104D4F561E084E00E948E1460E030
:1013E00083E00E948E1461E082E00E948E1480915E
:1013F000920590919305A0919405B0919505409127
:101400008E0550918F0560919005709191058C012A
:101410009D01041B150B260B370BB901A801483E93
:1014200053406105710578F080938E0590938F0588
:10143000A0939005B09391052FEFE21AF20AF09273
:10144000A204E092A10480E03DC081E090E02C176E
:101450003D0714F080E090E08C159D0534F08091FC
:10146000A1049091A20406972CF160E084E00E9410
:101470008E1460E082E00E948E1460E083E00E949F
:101480008E148091A1049091A2040697D4F010923A
:10149000A2041092A1041092A00482EA95E00E9496
:1014A0002E184CED55E060E070E080EB94E00E9477
:1014B000C90D07C061E070E080E090E00E949315E4
:1014C00001C081E0DF91CF911F910F91FF90EF90CC
:1014D000DF90CF9008952F923F924F925F926F923C
:1014E0007F928F929F92AF92BF92CF92DF92EF92B4
:1014F000FF920F931F93CF93DF93CDB7DEB7A297E1
:101500000FB6F894DEBF0FBECDBF9C8F8B8F4B8B79
:101510005C8B6D8B7E8B6801790100919E0410912C
:101520009F04188F0F8B6CEB71E0CE010D960E941B
:10153000B6130E94CD156093AC047093AD048093F4
:10154000AE049093AF040E942E0990939D04809363
:101550009C044AE068E974E00E942F2312E019839A
:101560008BE18A838AE592E09C838B831E821D82B5
:101570001A8619861C861B8618861F8268E974E005
:10158000CE0101960E9493178091A004882309F44C
:1015900026C219838EE08A838FE992E09C838B8335
:1015A0001E821D821A8619861C861B8618861F823B
:1015B0006B897C898D899E892CE330E040E050E086
:1015C0000E94B92449015A01AB01BC01CE01019628
:1015D0000E94611819838DE08A8382EA92E09C83DD
:1015E0008B831E821D821A8619861C861B8618868E
:1015F0001F82B501A401CE0101960E94611880915D
:101600009E0490919F043CE3A32EB12CB5010E944F
:101610006526AC01990F660B770B198382E18A83EB
:1016200088E492E09C838B831E821D821A86198631
:101630001C861B8618861F82CE0101960E946118A7
:1016400080919E0490919F04B5010E946526AB0194
:10165000770F660B770B198381E18A838BE492E025
:101660009C838B831E821D821A8619861C861B868C
:1016700018861F82CE0101960E9461184EE4842EC6
:1016800042E0942E50EA252E5FE0352E412C512C5D
:101690006BE1762E7AE5A72E72E0B72E8B8D9C8DAE
:1016A0000E946D09082F0E942E0990939D0480933B
:1016B0009C044AE068E974E00E942F230E942E09EE
:1016C00019831A839C828B82092E000CAA0BBB0BF8
:1016D0009C01AD0128513C4F4F4F5F4FA8EDB0E04A
:1016E0000E94D824A20191010E94B924BA01A90143
:1016F000CE0101960E94B81819837A82BC82AB820F
:101700001E821D821A8619861C861B8618861F82D9
:1017100068E974E0CE0101960E949317002309F452
:10172000BDCFD60124E630E00E9479266D8F7E8FF2
:101730008F8F98A3812C912C540194E6492E512C23
:10174000612C712C86010F5F1F4F1AA309A32CE394
:10175000222E312C8F89988D092E000CAA0BBB0BE1
:101760008F8B988FA98FBA8F0B891C892D893E8901
:1017700080169106A206B3066CF50E94CD15609303
:10178000AC047093AD048093AE049093AF040E94B8
:1017900006118091AC049091AD04A091AE04B0917B
:1017A000AF044091A8045091A9046091AA047091DB
:1017B000AB048C019D01041B150B260B370BB901E3
:1017C000A801483E53406105710570F22091A004C4
:1017D000211103C00E94061102C18093A8049093B6
:1017E000A904A093AA04B093AB0482E0D82ED982B6
:1017F0008CE08A8325EA32E03C832B831E821D82A3
:101800001A8619861C861B8618861F82C4010196BB
:10181000B1010E9465267B01AC01990F660B770B25
:10182000CE0101960E946118D98280E18A8388EAFC
:1018300092E09C838B831E821D821A8619861C86E9
:101840001B8618861F8289A19AA1880D991DB10156
:101850000E9465268B01AC01990F660B770BCE01B8
:1018600001960E946118D9828BE08A83AEE7B2E0CC
:10187000BC83AB831E821D821A8619861C861B863A
:1018800018861F82A701FF0C660B770BCE0101960D
:101890000E946118D9828FE08A832BEA32E03C8370
:1018A0002B831E821D821A8619861C861B8618862B
:1018B0001F82A801110F660B770BCE0101960E94C3
:1018C0006118D98285E08A838EE292E09C838B83C3
:1018D000C301B2012B893C894D895E890E94B924DC
:1018E000BA01A901CE0101960E94D717D98286E0DC
:1018F0008A83ACE3B2E0BC83AB836D8D7E8D8F8D2C
:1019000098A1640D751D861D971D2F89388D498DF1
:101910005A8D0E94B924BA01A901CE0101960E94F4
:10192000D7170E942E0990939D0480939C044AE04F
:1019300068E974E00E942F2380919C0490919D049B
:101940000B8D1C8D801B910B97FF03C0919581958A
:10195000910985369105C4F10E942E0912E0198380
:101960001A832EE432E03C832B83092E000CAA0B51
:10197000BB0B9C01AD0128513C4F4F4F5F4FA8ED71
:10198000B0E00E94D82420EA3FE040E050E00E940E
:10199000B924BA01A901CE0101960E94B818198391
:1019A0008BE18A838AE592E09C838B831E821D8271
:1019B0001A8619861C861B8618861F8268E974E0C1
:1019C000CE0101960E94931794E6490E511C611CAA
:1019D000711CAFEF8A1A9A0AAA0ABA0AC5CE0E94E7
:1019E0002209CE010D960E941412A2960FB6F89409
:1019F000DEBF0FBECDBFDF91CF911F910F91FF9042
:101A0000EF90DF90CF90BF90AF909F908F907F909E
:101A10006F905F904F903F902F9008950F931F937A
:101A20008EEA92E00E94271081E08093A00440910A
:101A30009604509197048091940490919504840F9A
:101A4000951F2091920430919304820F931F20914F
:101A5000900430919104820F931F90939F04809380
:101A60009E041092A2041092A104052E000C660B95
:101A7000770B00E010E09801809102019091030142
:101A80000E946B0A1092A2041092A1040091960485
:101A900010919704012E000C220B330B40919404FB
:101AA00050919504052E000C660B770B8091000178
:101AB000909101010E946B0A1092A2041092A1045D
:101AC000009196041091970480919404909195044C
:101AD000080F191F012E000C220B330B40919204AA
:101AE00050919304052E000C660B770B80EE9CEF53
:101AF0000E946B0A1092A2041092A1040091960415
:101B0000109197048091940490919504080F191FE7
:101B10008091920490919304080F191F012E000CDC
:101B2000220B330B4091900450919104052E000C30
:101B3000660B770B8CE19CE00E946B0A1092A70465
:101B40001092A60484E190E00E94A024BC016F5F83
:101B50007F4F7093A7046093A60484E190E00E94F5
:101B6000B42460E083E00E948E1460E082E00E9472
:101B70008E1460E084E00E948E144CED55E060E02D
:101B800070E080EB94E01F910F910C94C90D0E94BE
:101B900091283F924F925F926F927F928F929F9285
:101BA000AF92BF92CF92DF92EF92FF920F931F936B
:101BB000CF93DF9300D000D0CDB7DEB720913801AE
:101BC000253021F02F3F09F02CC204C0E4E0F1E001
:101BD000349076C025E020933801E4E0F1E0E49110
:101BE000EF3F09F41EC2E13011F1E23009F443C0C5
:101BF000E11165C014BC15BC24B5226024BD25B517
:101C0000216025BDEEE1F1E0E491F0E0EE0FFF1F71
:101C1000EB5FFE4F259134913093CA042093C904A1
:101C2000E2E3F1E0E491E093C804312C4BC0109260
:101C30008000109281002091810028602093810013
:101C400020918100216020938100EEE1F1E0E49198
:101C5000F0E0EE0FFF1FEB5FFE4F259134913093C4
:101C6000C7042093C604E2E3F1E0E491E093C504E5
:101C70003324339427C01092B0001092B100209109
:101C8000B00022602093B0002091B1002160209329
:101C9000B100EEE1F1E0E491F0E0EE0FFF1FEB5F49
:101CA000FE4F259134913093B6042093B504E2E3BE
:101CB000F1E0E491E093B404B2E03B2E03C03E2E89
:101CC00037FCAFC12A013B018C0161E085E00E9435
:101CD00040154801A12CB12C832D8D7F09F0BBC08C
:101CE00060E072E18AE790E0A50194010E94B924C6
:101CF00029833A834B835C8369017A0121E0C21A0C
:101D0000D108E108F1088FEFC816D104E104F1040D
:101D100009F008F44CC060E472E48FE090E0A501A3
:101D200094010E94B92469017A01E1E0CE1AD10838
:101D3000E108F108F2E03F1220C02FEFC216D104F3
:101D4000E104F10409F008F46AC160E970ED83E090
:101D500090E0A50194010E94B92469017A0181E013
:101D6000C81AD108E108F108EFEFCE16D104E1045A
:101D7000F10409F0D0F583E067C0FFEFCF16D1047E
:101D8000E104F104B1F0A8F068E478EE81E090E0BD
:101D9000A50194010E94B92469017A0181E0C81A61
:101DA000D108E108F108332009F4DFC02FC181E038
:101DB00001C082E03320A1F047C089819A81AB81C4
:101DC000BC812AE0B595A795979587952A95D1F777
:101DD0006C017D0121E0C21AD108E108F10885E01B
:101DE00095B5987F892B85BD6FC068E478EE81E05A
:101DF00090E0A50194010E94B92469017A01F1E003
:101E0000CF1AD108E108F1082FEFC216D104E1047E
:101E1000F10409F008F4A7C064E274EF80E090E0F8
:101E2000A50194010E94B92469017A01E1E0CE1A6A
:101E3000D108E108F108FFEFCF16D104E104F10465
:101E400011F008F0B4C085E09091B100987F892B23
:101E50008093B10039C060E072E18AE790E0A501AB
:101E600094010E94B92469017A0181E0C81AD1085D
:101E7000E108F108C114D104E1E0EE06F10488F0B4
:101E800068E478EE81E090E0A50194010E94B92415
:101E900069017A01F1E0CF1AD108E108F10893E075
:101EA00001C091E021E032120FC080918100887F53
:101EB000892B80938100411451046104710449F419
:101EC0002FEF3FEFA9012DC04114510461047104AB
:101ED00071F0D801AA0FBB1FA30192010E94D82460
:101EE00028EE33E040E050E00E941A2503C02FEFB7
:101EF0003FEFA90181E03816A1F0E2E03E1619F1AA
:101F000031108FC0C7BC2093CF043093D0044093CE
:101F1000D1045093D20480916E00826080936E0051
:101F200080C0D0928900C09288002093CB04309367
:101F3000CC044093CD045093CE0480916F00826016
:101F400080936F006EC0C092B3002093B7043093AB
:101F5000B8044093B9045093BA0480917000826031
:101F6000809370005EC084E06FCFFFEFCF16D10486
:101F7000E104F104D1F0C8F062E17AE780E090E09A
:101F8000A50194010E94B92469017A0181E0C81A6F
:101F9000D108E108F108EFEFCE16D104E104F10415
:101FA00011F008F00ACF84E01BCF83E019CF62E183
:101FB0007AE780E090E0A50194010E94B9246901CC
:101FC0007A0181E0C81AD108E108F108EFEFCE16D6
:101FD000D104E104F104C1F0B8F089819A81AB81A8
:101FE000BC814AE0B595A795979587954A95D1F715
:101FF0006C017D0121E0C21AD108E108F10833200B
:1020000009F4EDCE87E020CF86E0D4CEFFEFCF16E7
:10201000D104E104F10409F050F684E0CBCE82E073
:1020200013CF0F900F900F900F90DF91CF911F91D2
:102030000F91FF90EF90DF90CF90BF90AF909F9067
:102040008F907F906F905F904F903F900895CF93C7
:10205000DF93BC0183ED94E00E94F613EC016AEB80
:1020600071E083ED94E00E94F6138C0F9D1FDF91C9
:10207000CF9108950F931F930E94CD1560937A0519
:1020800070937B0580937C0590937D05E0917205AC
:10209000F09173050284F385E02D82E795E00995C0
:1020A00097FF1FC00E94CD1500917A0510917B0506
:1020B00020917C0530917D05DC01CB01801B910BCB
:1020C000A20BB30B0091760510917705209178054E
:1020D0003091790580179107A207B307B8F28FEF07
:1020E0009FEF1F910F910895EF92FF920F931F930F
:1020F000CF93DF9300D000D0CDB7DEB719821A821C
:102100001B821C8284E690E0A0E0B0E0809376051C
:1021100090937705A0937805B09379058E010F5FB2
:102120001F4F7E0185E0E80EF11C0E943A1097FFD8
:1021300004C089818130B9F407C0F80181938F010F
:10214000EE15FF0591F7F5CF8A818F3F61F48B8102
:102150008F3F49F48C818F3F31F484EC92E00E94F0
:10216000271081E005C08EED92E00E94271080E0EC
:102170000F900F900F900F90DF91CF911F910F91C3
:10218000FF90EF9008958F929F92AF92BF920F931E
:102190001F93CF93DF93CDB7DEB7A1970FB6F89417
:1021A000DEBF0FBECDBF19A2423008F44AE08E0157
:1021B0000F5D1F4F842E912CA12CB12CA5019401F1
:1021C0000E941A25E62FB901CA0101501109EA300F
:1021D00014F4E05D01C0E95CD801EC93232B242BBF
:1021E000252B61F7B80183ED94E00E94F613A196C8
:1021F0000FB6F894DEBF0FBECDBFDF91CF911F9118
:102200000F91BF90AF909F908F900895CF92DF92E3
:10221000EF92FF92CF93DF9382E795E00E947913CC
:10222000181619060CF09DC06AE070E080E090E09E
:102230000E94931582E795E00E949113C82F85367E
:1022400059F782E795E00E94791306972CF3C09323
:10225000BB04CCEBD4E082E795E00E949113899314
:1022600084E0C23CD807B9F71092C2048091BF0441
:102270008F3F91F68091C0048F3F71F68091C10429
:102280008F3F51F6C090BE04D12CE12CF12C8091EF
:10229000BD049091BC04E4E0F1E0C191D19120979C
:1022A00009F4BACF28812913F8CF29812813F5CF53
:1022B00062E073E083ED94E00E940B144AE0BE01FB
:1022C0000D2E000C880B990B0E94C31068EE71E074
:1022D00083ED94E00E940B14688170E080E090E050
:1022E0004AE00E94C31064E073E083ED94E00E9432
:1022F0000B14698170E080E090E04AE00E94C31016
:1023000064E073E083ED94E00E940B146A817B81AA
:102310006115710511F469EF72E083ED94E00E949C
:102320000B1480E093E00E94271081E0C816D104CE
:10233000E104F10441F4EC81FD81309709F46CCFA4
:102340008E819F810CC0CD28CE28CF2809F064CF84
:10235000E885F985309709F45FCF8A859B850995D3
:102360005BCFDF91CF91FF90EF90DF90CF900895FA
:102370000F931F93CF93DF93EC018881998100978E
:1023800029F02A813B812617370788F48B016F5F7C
:102390007F4F0E94C727009761F0998388831B8332
:1023A0000A832C813D81232B11F4FC01108281E0F2
:1023B00001C080E0DF91CF911F910F910895EF92BE
:1023C000FF920F931F93CF93DF936115710511F463
:1023D00080E023C0FB0101900020E9F73197E61B64
:1023E000F70BDC0114960D911C9115973097A1F015
:1023F0007B01EC010E0F1F1FB8010E94B81188234A
:1024000039F3288139818C819D81B701820F931F17
:102410000E949F281D830C8381E0DF91CF911F9143
:102420000F91FF90EF900895FC01808191810C94B1
:102430002F27CF92DF92EF92FF920F931F93CF93AC
:10244000DF936C017A018B01C0E0D0E0CE15DF058F
:1024500089F0D8016D918D01D601ED91FC9101902B
:10246000F081E02DC6010995892B11F47E0102C08F
:102470002196ECCFC701DF91CF911F910F91FF9073
:10248000EF90DF90CF900895FC01538D448D252F60
:1024900030E0842F90E0821B930B541710F0CF96FE
:1024A000089501970895FC01918D828D981761F030
:1024B000828DDF01A80FB11D5D968C91928D9F5F7B
:1024C0009F73928F90E008958FEF9FEF0895FC0126
:1024D000918D828D981731F0828DE80FF11D858DD9
:1024E00090E008958FEF9FEF0895FC01918D228D6C
:1024F000892F90E0805C9F4F821B91098F739927F1
:10250000089583ED94E00E94751221E0892B09F46F
:1025100020E0822F0895FC01848DDF01A80FB11DFA
:10252000A35ABF4F2C91848D90E001968F73992709
:10253000848FA689B7892C93A089B1898C918064F6
:102540008C93938D848D981306C00288F389E02DB7
:1025500080818F7D80830895EF92FF920F931F9368
:10256000CF93DF93EC0181E0888F9B8D8C8D981346
:1025700005C0E889F989808185FD24C0F62E0B8D80
:1025800010E00F5F1F4F0F731127E02E8C8DE812A4
:102590000CC00FB607FCFACFE889F989808185FF66
:1025A000F5CFCE010E948B12F1CF8B8DFE01E80F8B
:1025B000F11DE35AFF4FF0820B8FEA89FB8980817E
:1025C000806207C0EE89FF896083E889F98980818C
:1025D0008064808381E090E0DF91CF911F910F9123
:1025E000FF90EF900895CF93DF93EC01888D8823BF
:1025F000C9F0EA89FB89808185FD05C0A889B98970
:102600008C9186FD0FC00FB607FCF5CF808185FF4A
:10261000F2CFA889B9898C9185FFEDCFCE010E94B8
:102620008B12E7CFDF91CF91089580E090E0892B66
:1026300029F00E94811281110C94000008953FB787
:10264000F89480915F0790916007A0916107B09125
:10265000620726B5A89B05C02F3F19F00196A11D62
:10266000B11D3FBFBA2FA92F982F8827820F911D28
:10267000A11DB11DBC01CD0142E0660F771F881F6F
:10268000991F4A95D1F70895DC015196ED91FC917F
:102690005297908150968C918095892380830895DC
:1026A0002091B2043091B3042817390781F4909136
:1026B000B0048091B104981751F0E091B004F0E0BB
:1026C000E65EF84F8081082E000C990B08958FEF7D
:1026D0009FEF08952091B2043091B3042817390771
:1026E00039F48FB7F8941092B1041092B0048FBFF0
:1026F00008952091B2043091B3042817390771F47A
:102700008091B1042091B00490E0805C9F4F821BC7
:10271000910960E470E00E946526089580E090E0F1
:1027200008952091B2043091B30428173907B9F401
:102730009091B0048091B104981789F0E091B004B1
:10274000F0E0E65EF84F80812091B00430E02F5F2A
:102750003F4F2F7333272093B00490E008958FEFFD
:102760009FEF0895089580E090E00895EF92FF9222
:102770000F931F93CF93DF93EC01198218821B8272
:102780001A821D821C826115710549F18B01FB01C2
:1027900001900020E9F731977F01E61AF70AB701A7
:1027A0000E94B8112881398181110DC02115310590
:1027B00019F0C9010E942F27198218821D821C82DC
:1027C0001B821A820CC0FD82EC82B801C901DF9124
:1027D000CF911F910F91FF90EF900C949F28DF9164
:1027E000CF911F910F91FF90EF90089561157105A2
:1027F00079F0FB0101900020E9F73197AF01461B0A
:10280000570BDC01ED91FC910280F381E02D0994DE
:1028100080E090E008950C94F6131F920F920FB68B
:102820000F9211242F933F934F935F936F937F9356
:102830008F939F93AF93BF93EF93FF9383ED94E0B8
:102840000E948B12FF91EF91BF91AF919F918F9159
:102850007F916F915F914F913F912F910F900FBE9C
:102860000F901F9018951F920F920FB60F92112480
:102870002F938F939F93EF93FF93E091E304F09155
:10288000E4048081E091E904F091EA0482FD12C041
:1028900090818091EC048F5F8F732091ED048217FB
:1028A00051F0E091EC04F0E0ED52FB4F958F8093F6
:1028B000EC0401C08081FF91EF919F918F912F9146
:1028C0000F900FBE0F901F901895833081F028F461
:1028D000813099F08230A1F008958730A9F08830D6
:1028E000B9F08430D1F4809180008F7D03C0809155
:1028F00080008F7780938000089584B58F7702C021
:1029000084B58F7D84BD08958091B0008F7703C01A
:102910008091B0008F7D8093B00008951F93CF9376
:10292000DF93282F30E0F901E55BFE4F8491F90138
:10293000E35DFE4FD491F901E75EFE4FC491CC23D5
:10294000C9F0162F81110E946514EC2FF0E0EE0FF4
:10295000FF1FEB5FFE4FA591B4918FB7F894111153
:1029600005C09C91ED2FE095E92302C0EC91ED2B81
:10297000EC938FBFDF91CF911F9108951F920F921B
:102980000FB60F9211242F933F934F935F936F9342
:102990007F938F939F93AF93BF93EF93FF93809118
:1029A000B7049091B804A091B904B091BA04892BEE
:1029B0008A2B8B2B59F18091B404E091B504F091EE
:1029C000B6049081892780838091B7049091B804E0
:1029D000A091B904B091BA04181619061A061B067C
:1029E0000CF03DC08091B7049091B804A091B90457
:1029F000B091BA040197A109B1098093B7049093EB
:102A0000B804A093B904B093BA0429C080913801E6
:102A1000E4E0F1E0E4919FEF90933801E130B9F008
:102A200098F0E230C9F4909170009D7F909370000F
:102A300091E09093B0009091B100987F9460909352
:102A4000B1001092B30008C010926E0005C09091C2
:102A50006F009D7F90936F0060E00E948E14FF9145
:102A6000EF91BF91AF919F918F917F916F915F9106
:102A70004F913F912F910F900FBE0F901F9018957F
:102A8000CF93DF9390E0FC01E35DFE4F2491FC01C6
:102A9000E75EFE4F8491882361F190E0880F991FD3
:102AA000FC01EF5BFE4FC591D491FC01EB5FFE4F43
:102AB000A591B491611109C09FB7F89488812095C0
:102AC00082238883EC912E230BC0623061F49FB780
:102AD000F8943881822F809583238883EC912E2B64
:102AE0002C939FBF06C08FB7F894E8812E2B2883C4
:102AF0008FBFDF91CF9108958E3008F08E50877090
:102B0000806480937C0080917A00806480937A0056
:102B100080917A0086FDFCCF809178002091790029
:102B200090E0922B08958F929F92AF92BF92CF9296
:102B3000DF92EF92FF926B017C010E941F134B0109
:102B40005C01C114D104E104F104F1F00E941F13EF
:102B5000DC01CB0188199909AA09BB09883E934079
:102B6000A105B10570F321E0C21AD108E108F1080E
:102B700088EE880E83E0981EA11CB11CC114D104FC
:102B8000E104F10419F7DDCFFF90EF90DF90CF90D3
:102B9000BF90AF909F908F9008952FB7F894609159
:102BA0005B0770915C0780915D0790915E072FBF76
:102BB00008951F920F920FB60F9211242F933F93F7
:102BC0008F939F93AF93BF9380915B0790915C0726
:102BD000A0915D07B0915E0730915A0723E0230F63
:102BE0002D3720F40196A11DB11D05C026E8230F45
:102BF0000296A11DB11D20935A0780935B07909305
:102C00005C07A0935D07B0935E0780915F0790918A
:102C10006007A0916107B09162070196A11DB11DE7
:102C200080935F0790936007A0936107B09362075A
:102C3000BF91AF919F918F913F912F910F900FBEB8
:102C40000F901F90189520E001972FEF8F3F92076C
:102C5000D9F70895DF92EF92FF920F931F93CF93CE
:102C6000DF93EC01298D3A8D2115310529F481E09E
:102C700090E09B838A835AC0162FDFB6F8948B8D21
:102C800081FD4DC0CE010E944413898D9A8D059619
:102C90000E9423168B8D98E0E92EF12C01E081FF34
:102CA0001AC0802F812321F0CE010E94441306C058
:102CB000E989FA8990818889892B8083898D9A8D09
:102CC0000E942316000F81E0E81AF10851F7CE01A7
:102CD0000E9444131CC0802F812339F0E989FA89AE
:102CE00090818889892B808303C0CE010E94441380
:102CF000898D9A8D0E942316000F81E0E81AF10851
:102D000051F7E989FA8990818889892B8083DFBE10
:102D1000898D9A8D0E94231621E030E007C0E98951
:102D2000FA8990818889892B8083AFCFC901DF918F
:102D3000CF911F910F91FF90EF90DF900895EF9248
:102D4000FF920F931F93CF93DF93C091B204D09162
:102D5000B304209709F450C09B8DEE85FF858D85C7
:102D600091FF04C09081892329F446C09081892372
:102D700009F042C08B899C890E94231688E0E82EC6
:102D8000F12C10E001E08D899E890E942316EE85CA
:102D9000FF8590818D85892311F0102B03C0802F32
:102DA00080951823000F81E0E81AF10861F78F89F8
:102DB000988D0E9423168B8D81FD10958091B10412
:102DC0002091B00490E001968F73992730E082172C
:102DD000930779F0E091B104F0E0E65EF84F1083DC
:102DE0008091B10490E001968F7399278093B1048C
:102DF00003C08B8D81608B8FDF91CF911F910F91DD
:102E0000FF90EF9008951F920F920FB60F9211242A
:102E10002F933F934F935F936F937F938F939F93E2
:102E2000AF93BF93EF93FF930E949F16FF91EF9193
:102E3000BF91AF919F918F917F916F915F914F91D2
:102E40003F912F910F900FBE0F901F9018951F92DA
:102E50000F920FB60F9211242F933F934F935F93CE
:102E60006F937F938F939F93AF93BF93EF93FF9352
:102E70000E949F16FF91EF91BF91AF919F918F910B
:102E80007F916F915F914F913F912F910F900FBE66
:102E90000F901F9018951F920F920FB60F9211244A
:102EA0002F933F934F935F936F937F938F939F9352
:102EB000AF93BF93EF93FF930E949F16FF91EF9103
:102EC000BF91AF919F918F917F916F915F914F9142
:102ED0003F912F910F900FBE0F901F901895CF9399
:102EE000DF93EC0182E795E00E947913892B29F0AA
:102EF00082E795E00E949113F5CFBE0182E795E04D
:102F00000E940B146FEF82E795E00E942A166FEF84
:102F100082E795E00E942A166FEF82E795E0DF9145
:102F2000CF910C942A16EF92FF920F931F93CF9399
:102F3000DF9300D000D000D0CDB7DEB77C018B018D
:102F40006CEB71E0CE0101960E94B613F70162812D
:102F50007381CE0101960E94DF1163E074E0CE011F
:102F600001960E94DF11B801CE0101960E94DF1187
:102F700068E074E0CE0101960E94DF1189819A8198
:102F80000E946F170E947410182FCE0101960E94A4
:102F90001412812F26960FB6F894DEBF0FBECDBF58
:102FA000DF91CF911F910F91FF90EF9008958F9235
:102FB0009F92AF92BF92EF92FF920F931F93CF9386
:102FC000DF93CDB7DEB760970FB6F894DEBF0FBEC4
:102FD000CDBF7C014A015B018E010F5F1F4F8AE06C
:102FE000F80111928A95E9F76CEB71E0CE010B962E
:102FF0000E94B6134AE0B801C4010E943A23F701C7
:1030000062817381CE010B960E94DF116AE074E049
:10301000CE010B960E94DF11B801CE010B960E94E3
:10302000DF118B859C850E946F170E947410182FEA
:10303000CE010B960E941412812F60960FB6F89461
:10304000DEBF0FBECDBFDF91CF911F910F91FF90DB
:10305000EF90BF90AF909F908F9008950F931F9324
:10306000CF93DF9300D000D000D0CDB7DEB7FC0106
:103070000281138101151105B9F060E174E0CE0100
:1030800001960E94B613B801CE0101960E94DF118D
:1030900089819A810E946F170E947410182FCE01A7
:1030A00001960E94141201C010E0812F26960FB6DF
:1030B000F894DEBF0FBECDBFDF91CF911F910F916E
:1030C00008958F929F92AF92BF92EF92FF920F93CB
:1030D0001F93CF93DF93CDB7DEB760970FB6F89409
:1030E000DEBF0FBECDBF7C014A015B018E010F5FC9
:1030F0001F4F8AE0F80111928A95E9F76CEB71E0B5
:10310000CE010B960E94B6134AE0B801C4010E949A
:103110003A23F70162817381CE010B960E94DF1181
:103120006AE074E0CE010B960E94DF11B801CE0177
:103130000B960E94DF118B859C850E946F170E9461
:103140007410182FCE010B960E941412812F6096D6
:103150000FB6F894DEBF0FBECDBFDF91CF911F91A8
:103160000F91FF90EF90BF90AF909F908F90089538
:103170008F929F92AF92BF92EF92FF920F931F9305
:10318000CF93DF93CDB7DEB760970FB6F894DEBF6D
:103190000FBECDBF7C014A015B018E010F5F1F4F47
:1031A0008AE0F80111928A95E9F76CEB71E0CE01A3
:1031B0000B960E94B6134AE0B801C4010E943A235C
:1031C000F70162817381CE010B960E94DF116AE0E4
:1031D00074E0CE010B960E94DF11B801CE010B9670
:1031E0000E94DF118B859C850E946F170E947410CE
:1031F000182FCE010B960E941412812F60960FB6E5
:10320000F894DEBF0FBECDBFDF91CF911F910F911C
:10321000FF90EF90BF90AF909F908F9008957F9216
:103220008F929F92AF92BF92CF92DF92EF92FF92D6
:103230000F931F93CF93DF93CDB7DEB72C970FB6C5
:10324000F894DEBF0FBECDBF86E194E00E94271048
:1032500019E0198386E08A838EE792E09C838B8352
:103260001E821D821A8619861C861B8618861F825E
:1032700040E050E0BA01CE0101960E946118198326
:1032800087E08A8385EA92E09C838B831E821D827D
:103290001A8619861C861B8618861F8240E050E01D
:1032A000BA01CE0101960E94611810926307109234
:1032B000A2041092A1040EE08CE2E82E84E0F82E25
:1032C00090EA892E9FE0992EA12CB12C22E0722E3B
:1032D00039E3C32E34E0D32E80916307811144C0BB
:1032E00080910201909103010E946D098093630710
:1032F0000E942E0990939D0480939C044AE068E903
:1033000074E00E942F2319830A83FC82EB821E82C1
:103310001D821A8619861C861B8618861F8268E9FC
:1033200074E0CE0101960E9493170E942E09092E87
:10333000000CAA0BBB0B9C01AD0128513C4F4F4F19
:103340005F4FA8EDB0E00E94D824A50194010E942F
:10335000B924BA01A90119837A82DC82CB82CE0119
:1033600001960E94B818B8CF89E089838EE08A83DD
:103370008CE294E09C838B831E821D821A861986C0
:103380001C861B8618861F8268E974E0CE010196B0
:103390000E9493172C960FB6F894DEBF0FBECDBFD8
:1033A000DF91CF911F910F91FF90EF90DF90CF9021
:1033B000BF90AF909F908F907F9008956F927F9273
:1033C0008F929F92AF92BF92CF92DF92EF92FF9235
:1033D0000F931F93CF93DF93CDB7DEB72C970FB624
:1033E000F894DEBF0FBECDBF85E494E00E942710A5
:1033F00019E0198386E08A838EE792E09C838B83B1
:103400001E821D821A8619861C861B8618861F82BC
:1034100040E050E0BA01CE0101960E946118198384
:1034200087E08A8385EA92E09C838B831E821D82DB
:103430001A8619861C861B8618861F8240E050E07B
:10344000BA01CE0101960E9461181092A204109256
:10345000A1048EE0682E9CE2C92E94E0D92E22E0D1
:10346000722E39E3E32E34E0F32E40EA842E4FE04F
:10347000942EA12CB12C80910001909101010E9409
:103480006D09082F0E942E0990939D0480939C043F
:103490004AE068E974E00E942F2319836A82DC8283
:1034A000CB821E821D821A8619861C861B86188670
:1034B0001F8268E974E0CE0101960E9493170E9472
:1034C0002E0919837A82FC82EB82092E000CAA0B4A
:1034D000BB0B9C01AD0128513C4F4F4F5F4FA8EDF6
:1034E000B0E00E94D824A50194010E94B924BA0139
:1034F000A901CE0101960E94B818002309F4BBCFA0
:1035000089E089838EE08A838CE294E09C838B83BC
:103510001E821D821A8619861C861B8618861F82AB
:1035200068E974E0CE0101960E9493172C960FB6BD
:10353000F894DEBF0FBECDBFDF91CF911F910F91E9
:10354000FF90EF90DF90CF90BF90AF909F908F90C3
:103550007F906F9008951F93CF93DF93CDB7DEB721
:103560002C970FB6F894DEBF0FBECDBF8DE594E06B
:103570000E9427100E94430481E080938D040E94E2
:103580002E0990939D0480939C044AE068E974E0BE
:103590000E942F2319E019838EE08A838CE294E045
:1035A0009C838B831E821D821A8619861C861B862D
:1035B00018861F8268E974E0CE0101960E94931775
:1035C0000E942E099C01198382E08A8389E394E09A
:1035D0009C838B83C901330FAA0BBB0B9C01AD01EC
:1035E00028513C4F4F4F5F4FA8EDB0E00E94D824C8
:1035F00020EA3FE040E050E00E94B924BA01A9016E
:10360000CE0101960E94B81880EE9CEF90930301C2
:10361000809302018CE19CE0909301018093000172
:103620002C960FB6F894DEBF0FBECDBFDF91CF91C1
:103630001F910895CF92DF92EF92FF920F931F9305
:10364000CF93DF93CDB7DEB72C970FB6F894DEBFDC
:103650000FBECDBF82E794E00E9427100E94430472
:1036600081E080938D0484EB90E0909397048093A5
:103670009604909395048093940488E790E0909347
:1036800093048093920480EF90E090939104809350
:10369000900412E0198385E08A838EE292E09C8395
:1036A0008B8340E050E0BA01CE0101960E94D7170B
:1036B000198386E08A838CE392E09C838B8340E0CD
:1036C00050E0BA01CE0101960E94D7170E942E0940
:1036D00090939D0480939C044AE068E974E00E9402
:1036E0002F2319830BE10A838AE5E82E82E0F82E66
:1036F000FC82EB821E821D821A8619861C861B861E
:1037000018861F8268E974E0CE0101960E94931723
:103710000E942E099C0119831A838EE492E09C83F7
:103720008B83C901330FAA0BBB0B9C01AD01285140
:103730003C4F4F4F5F4FA8EDB0E00E94D82420EAE5
:103740003FE040E050E00E94B924BA01A901CE0157
:1037500001960E94B81880919E0490919F042CE3DA
:10376000C22ED12CB6010E946526AC01990F660BC2
:10377000770B198382E18A8388E492E09C838B83B0
:103780001E821D821A8619861C861B8618861F8239
:10379000CE0101960E94611880919E0490919F0431
:1037A000B6010E946526AB01770F660B770B198374
:1037B00081E18A838BE492E09C838B831E821D824D
:1037C0001A8619861C861B8618861F82CE010196D2
:1037D0000E94611819830A83FC82EB821E821D827B
:1037E0001A8619861C861B8618861F8268E974E073
:1037F000CE0101960E9493172C960FB6F894DEBF67
:103800000FBECDBFDF91CF911F910F91FF90EF9031
:10381000DF90CF900895789484B5826084BD84B59C
:10382000816084BD85B5826085BD85B5816085BDBB
:1038300080916E00816080936E0010928100809173
:1038400081008260809381008091810081608093FB
:103850008100809180008160809380008091B10020
:1038600084608093B1008091B00081608093B0004B
:1038700080917A00846080937A0080917A008260DF
:1038800080937A0080917A00816080937A008091A1
:103890007A00806880937A001092C10044EF51E072
:1038A00060E070E080EB94E00E94C90D0E94A803E4
:1038B00061E083E00E94401561E082E00E944015D3
:1038C00061E086E00E94401561E084E00E944015BE
:1038D00061E087E00E94401561E085E00E944015AC
:1038E00060E08EE00E94401560E08FE00E9440158D
:1038F00060E081E10E94401560E082E10E94401595
:1039000060E083E00E948E1460E082E00E948E14EA
:1039100060E086E00E948E1460E084E00E948E14D5
:1039200060E087E00E948E14E091E304F091E404EB
:1039300082E08083E091DF04F091E0041082E09166
:10394000E104F091E2048FEC80831092EB04E091AB
:10395000E704F091E80486E08083E091E504F091CB
:10396000E604808180618083E091E504F091E604C3
:10397000808188608083E091E504F091E604808195
:1039800080688083E091E504F091E60480818F7D7A
:10399000808310928C0510928B0510928A051092EC
:1039A000890510928805109287051092860510925D
:1039B000850588E690E020E030E0FC0145915591D6
:1039C00065917491403855426105710559F54CE097
:1039D000429FC001439F900D1124FC01E459FF4F09
:1039E000259134913093860520938505FC01E25999
:1039F000FF4F259134913093880520938705FC0172
:103A0000E059FF4F2591349130938A052093890521
:103A1000FC01EE58FF4F8591949190938C05809313
:103A20008B0507C02F5F3F4F0C962D30310509F0F5
:103A3000C4CF8091890590918A05892B09F446C0ED
:103A400090917E059631E0F520916800983050F015
:103A500031E09E3008F430E081E001C0880F3A95F3
:103A6000EAF701C084E0822B80936800983038F038
:103A70009E3040F0963148F4ECE6F0E008C0EDE608
:103A8000F0E005C0EBE6F0E002C0E0E0F0E04081ED
:103A9000983030F481E001C0880F9A95EAF70EC0A3
:103AA000292F30E09E3018F42850310902C02E50E2
:103AB000310981E001C0880F2A95EAF7842B8083C1
:103AC00080918B0590918C050E9423168091B20401
:103AD0009091B3048257954091F080918D058E7F2F
:103AE00080938D058FB7F8941092B1041092B004B2
:103AF00022E735E03093B3042093B2048FBF8CEB00
:103B000091E00E946F1786E093E00E946F170E9479
:103B100074108EE093E00E946F170E9474108FE47F
:103B200097E090932F0680932E0610923106109204
:103B3000300683EF92E09093B7058093B60510921C
:103B4000B9051092B80587EE90E090930B0680932C
:103B50000A0610920D0610920C068CE796E09093E0
:103B6000E7068093E6061092E9061092E8068EE0DA
:103B70009DE0909393068093920610929506109282
:103B800094068CED90E090938706809386061092C1
:103B900089061092880681E995E09093DB06809370
:103BA000DA061092DD061092DC068EEB94E090931C
:103BB000CF068093CE061092D1061092D0068AE1ED
:103BC0009BE19093C3068093C2061092C5061092A3
:103BD000C4068BEA9AE19093B7068093B6061092DA
:103BE000B9061092B8068FE198E09093AB068093E7
:103BF000AA061092AD061092AC068EED99E1909354
:103C000057068093560610925906109258068FE078
:103C100099E1909363068093620610926506109274
:103C2000640680EC97E09093F3058093F205109280
:103C3000F5051092F4058DE597E09093E7058093E4
:103C4000E6051092E9051092E8058DE298E0909360
:103C5000DB058093DA051092DD051092DC0587E51F
:103C600097E09093CF058093CE051092D1051092E6
:103C7000D00581E597E09093C3058093C20510922B
:103C8000C5051092C40583E493E0909317068093D2
:103C9000160610921906109218068BEE92E0909379
:103CA000E3068093E2061092E5061092E40683EEA6
:103CB00092E09093D7068093D6061092D906109280
:103CC000D8068BED92E09093CB068093CA061092B3
:103CD000CD061092CC0683ED92E09093BF068093C0
:103CE000BE061092C1061092C0068BEC92E0909333
:103CF000B3068093B2061092B5061092B40683EC18
:103D000092E09093A7068093A6061092A9061092BF
:103D1000A8068BEB92E090939B0680939A061092F4
:103D20009D0610929C0683EB92E090933706809359
:103D3000360610923906109238068BEA92E090937C
:103D40002B0680932A0610922D0610922C0683EAE9
:103D500092E090931F0680931E0610922106109207
:103D600020068BE992E0909313068093120610923E
:103D700015061092140683E992E090938F068093C3
:103D80008E0610929106109290068BE892E0909326
:103D9000830680938206109285061092840683E83B
:103DA00092E09093770680937606109279061092AF
:103DB000780685E193E00E9427100E9406110E9478
:103DC0001513FBCF0F931F93CF93DF931092D6045D
:103DD0001092D50488EE93E0A0E0B0E08093D70481
:103DE0009093D804A093D904B093DA0423E431E08B
:103DF0003093D4042093D30425EC30E03093E004D6
:103E00002093DF0424EC30E03093E2042093E104BB
:103E100020EC30E03093E4042093E30421EC30E024
:103E20003093E6042093E50422EC30E03093E8047C
:103E30002093E70426EC30E03093EA042093E90471
:103E40001092EC041092ED041092EE041092EF0424
:103E500024E630E0309371052093700510927505CB
:103E6000109274058093760590937705A09378055A
:103E7000B093790585E591E0909373058093720581
:103E8000109286051092850510928805109287057C
:103E900010928A051092890510928C0510928B055C
:103EA00080918D058E7F8D7F80938D0561E089E007
:103EB0000E94401561E089E00E948E14E6E3F1E083
:103EC000E491E0938205E2E2F1E0E491F0E0EE0FAC
:103ED000FF1FEB5FFE4F8591949190938405809333
:103EE000830560E08AE00E94401580918D0581FD88
:103EF00004C061E08AE00E948E148AE080937E050F
:103F0000E7E3F1E0E491E0937F05E3E2F1E0E4919F
:103F1000F0E0EE0FFF1FE15FFE4F859194919093CB
:103F200081058093800591E09093DE0683E0809385
:103F3000DF0620E233E03093E1062093E0061092A2
:103F4000E3061092E2061092E7061092E60610923F
:103F5000E9061092E8061092E5061092E4069093A6
:103F6000D206E4E0E093D30625E233E03093D506B1
:103F70002093D4061092D7061092D6061092DB0634
:103F80001092DA061092DD061092DC061092D90625
:103F90001092D8069093C60645E04093C7062AE2E1
:103FA00033E03093C9062093C8061092CB061092D6
:103FB000CA061092CF061092CE061092D106109229
:103FC000D0061092CD061092CC069093BA0666E009
:103FD0006093BB0623E333E03093BD062093BC0619
:103FE0001092BF061092BE061092C3061092C2062F
:103FF0001092C5061092C4061092C1061092C00617
:104000009093AE0677E07093AF062FE333E03093E2
:10401000B1062093B0061092B3061092B206109229
:10402000B7061092B6061092B9061092B806109212
:10403000B5061092B4069093A20638E03093A3061A
:10404000A6E4B3E0B093A506A093A4061092A70639
:104050001092A6061092AB061092AA061092AD0618
:104060001092AC061092A9061092A806909396069C
:1040700059E050939706AFE4B3E0B0939906A0934C
:10408000980610929B0610929A0610929F06109224
:104090009E061092A1061092A00610929D06109204
:1040A0009C0690930E0722E020930F07B093110710
:1040B000A09310071092130710921207109217077F
:1040C00010921607109219071092180710921507F0
:1040D0001092140720938A06F2E1F0938B06CAEB44
:1040E000D3E0D0938D06C0938C0610928F06109269
:1040F0008E061092930610929206109295061092D8
:104100009406109291061092900620937E06F3E199
:10411000F0937F06C5E5D3E0D0938106C093800677
:1041200010928306109282061092870610928606DD
:1041300010928906109288061092850610928406C5
:104140002093720680937306C9ECD3E0D093750672
:10415000C0937406109277061092760610927B0632
:1041600010927A0610927D0610927C0610927906C3
:104170001092780620930207F9E1F09303070AE50D
:1041800013E010930507009304071092070710929D
:10419000060710920B0710920A0710920D07109253
:1041A0000C07109209071092080750936606809337
:1041B0006706D0936906C093680610926B0610924A
:1041C0006A0610926F0610926E0610927106109297
:1041D000700610926D0610926C0650935A0630933A
:1041E0005B06CDE5D3E0D0935D06C0935C061092EC
:1041F0005F0610925E06109263061092620610929D
:104200006506109264061092610610926006509343
:104210004E0650934F06C4E6D3E0D0935106C093A8
:1042200050061092530610925206109257061092A2
:104230005606109259061092580610925506109282
:10424000540640934A0690934B06CDE6D3E0D093B4
:104250004D06C0934C0640933E0680933F06C9E747
:10426000D3E0D0934106C0934006109243061092CB
:104270004206109247061092460610924906109286
:104280004806109245061092440680933206209309
:104290003306C8E8D3E0D0933506C09334061092B5
:1042A00037061092360610923B0610923A0610928C
:1042B0003D0610923C061092390610923806809303
:1042C000260680932706C2E9D3E0D0932906C0933F
:1042D000280610922B0610922A0610922F06109292
:1042E0002E06109231061092300610922D06109272
:1042F0002C0680931A06E0931B06CBE9D3E0D093FB
:104300001D06C0931C0610921F0610921E061092E6
:10431000230610922206109225061092240610926F
:1043200021061092200680930E0640930F06C7EADE
:10433000D3E0D0931106C09310061092130610928A
:104340001206109217061092160610921906109275
:10435000180610921506109214068093F6066093C4
:10436000F706B093F906A093F8061092FB06109298
:10437000FA061092FF061092FE06109201071092A4
:1043800000071092FD061092FC067093EA065BE0AF
:104390005093EB06ADEAB3E0B093ED06A093EC06C4
:1043A0001092EF061092EE061092F3061092F206AB
:1043B0001092F5061092F4061092F1061092F00693
:1043C0007093020680930306A1EBB3E0B093050659
:1043D000A0930406109207061092060610920B0690
:1043E00010920A0610920D0610920C061092090601
:1043F000109208067093F6052093F705A0ECB3E041
:10440000B093F905A093F8051092FB051092FA05F8
:104410001092FF051092FE05109201061092000600
:104420001092FD051092FC053093EA056093EB05B0
:10443000AEECB3E0B093ED05A093EC051092EF0560
:104440001092EE051092F3051092F2051092F50508
:104450001092F4051092F1051092F0053093DE05EC
:104460004093DF0545ED53E05093E1054093E005AF
:104470001092E3051092E2051092E7051092E6050E
:104480001092E9051092E8051092E5051092E405F6
:104490003093D2058093D3054DED53E05093D5056D
:1044A0004093D4051092D7051092D6051092DB05E3
:1044B0001092DA051092DD051092DC051092D905F4
:1044C0001092D8053093C605E093C70545EE53E03A
:1044D0005093C9054093C8051092CB051092CA05A8
:1044E0001092CF051092CE051092D1051092D005F2
:1044F0001092CD051092CC053093BA052093BB05E0
:104500002CEE33E03093BD052093BC051092BF051F
:104510001092BE051092C3051092C2051092C505F7
:104520001092C4051092C1051092C0056093AE05AB
:104530009093AF0523EF33E03093B1052093B0059E
:104540001092B3051092B2051092B7051092B605FD
:104550001092B9051092B8051092B5051092B405E5
:104560008DE08093A2051092A30526EF33E03093EF
:10457000A5052093A4051092A7051092A6051092F8
:10458000AB051092AA051092AD051092AC051092E1
:10459000A9051092A80580939605909397053093EE
:1045A00099052093980510929B0510929A051092F8
:1045B0009F0510929E051092A1051092A0051092E1
:1045C0009D0510929C050E94CD15609392057093F5
:1045D000930580939405909395050E94CD15609363
:1045E0008E0570938F058093900590939105DF91D0
:1045F000CF911F910F91089585E591E090937305F8
:104600008093720520917E05263140F5283028F0F0
:104610002E3030F0ECE6F0E005C0EDE6F0E002C050
:10462000EBE6F0E03081283038F481E090E001C022
:10463000880F2A95EAF70FC0422F50E02E3018F469
:104640004850510902C04E50510981E090E001C02C
:10465000880F4A95EAF78095832380830895BB27C6
:104660004A3031F4992322F4BDE2909581959F4F11
:104670000C943B23BB27FB015527AA27880F991FC2
:10468000AA1FA41710F0A41B83955051B9F7A05D81
:10469000AA3308F0A95DA193009779F7B111B193FE
:1046A0001192CB010C945423DC01FC01672F719112
:1046B0007723E1F7329704C07C916D937083629108
:1046C000AE17BF07C8F308950E94A62308F481E03F
:1046D0000895E89409C097FB3EF4909580957095F5
:1046E00061957F4F8F4F9F4F9923A9F0F92F96E93E
:1046F000BB279395F695879577956795B795F111B3
:10470000F8CFFAF4BB0F11F460FF1BC06F5F7F4F4F
:104710008F4F9F4F16C0882311F096E911C0772361
:1047200021F09EE8872F762F05C0662371F096E86A
:10473000862F70E060E02AF09A95660F771F881F39
:10474000DAF7880F9695879597F90895990F0008DD
:10475000550FAA0BE0E8FEEF16161706E807F90753
:10476000C0F012161306E407F50798F0621B730BEE
:10477000840B950B39F40A2661F0232B242B252B6F
:1047800021F408950A2609F4A140A6958FEF811D12
:10479000811D08950E94DD230C944E240E94402424
:1047A00038F00E94472420F0952311F00C94372410
:1047B0000C943D2411240C9482240E945F2470F3F5
:1047C000959FC1F3950F50E0551F629FF001729FB6
:1047D000BB27F00DB11D639FAA27F00DB11DAA1FC5
:1047E000649F6627B00DA11D661F829F2227B00D12
:1047F000A11D621F739FB00DA11D621F839FA00D9D
:10480000611D221F749F3327A00D611D231F849FEC
:10481000600D211D822F762F6A2F11249F57504043
:104820009AF0F1F088234AF0EE0FFF1FBB1F661FBE
:10483000771F881F91505040A9F79E3F510580F087
:104840000C9437240C9482245F3FE4F3983ED4F315
:10485000869577956795B795F795E7959F5FC1F72B
:10486000FE2B880F911D9695879597F9089597F9D6
:104870009F6780E870E060E008959FEF80EC089506
:1048800000240A941616170618060906089500242F
:104890000A9412161306140605060895092E0394A9
:1048A000000C11F4882352F0BB0F40F4BF2B11F41D
:1048B00060FF04C06F5F7F4F8F4F9F4F089557FD7C
:1048C0009058440F551F59F05F3F71F04795880F7E
:1048D00097FB991F61F09F3F79F087950895121615
:1048E00013061406551FF2CF4695F1DF08C01616C1
:1048F00017061806991FF1CF869571056105089472
:104900000895E894BB2766277727CB0197F9089588
:10491000DC01CB01FC01F999FECF06C0F2BDE1BD7F
:10492000F89A319600B40D9241505040B8F708956E
:10493000F999FECF92BD81BDF89A992780B5089567
:10494000A8E1B0E042E050E00C948A24262FF999C7
:10495000FECF1FBA92BD81BD20BD0FB6F894FA9A62
:10496000F99A0FBE019608950E94A624272F0C9451
:10497000A724052E97FB1EF400940E94D02457FD17
:1049800007D00E941A2507FC03D04EF40C94D024C3
:1049900050954095309521953F4F4F4F5F4F08956B
:1049A00090958095709561957F4F8F4F9F4F08959B
:1049B0000E943C25A59F900DB49F900DA49F800D53
:1049C000911D112408952F923F924F925F926F9202
:1049D0007F928F929F92AF92BF92CF92DF92EF928F
:1049E000FF920F931F93CF93DF93CDB7DEB7CA1B10
:1049F000DB0B0FB6F894DEBF0FBECDBF09942A883B
:104A0000398848885F846E847D848C849B84AA84E2
:104A1000B984C884DF80EE80FD800C811B81AA816F
:104A2000B981CE0FD11D0FB6F894DEBF0FBECDBF3A
:104A3000ED010895A1E21A2EAA1BBB1BFD010DC0BA
:104A4000AA1FBB1FEE1FFF1FA217B307E407F5073E
:104A500020F0A21BB30BE40BF50B661F771F881F1A
:104A6000991F1A9469F760957095809590959B01B0
:104A7000AC01BD01CF010895A29FB001B39FC00159
:104A8000A39F700D811D1124911DB29F700D811D7A
:104A90001124911D08955058BB27AA270E94632511
:104AA0000C944E240E94402438F00E94472420F0A9
:104AB00039F49F3F19F426F40C943D240EF4E0954C
:104AC000E7FB0C943724E92F0E945F2458F3BA17B0
:104AD000620773078407950720F079F4A6F50C9414
:104AE00081240EF4E0950B2EBA2FA02D0B01B901F5
:104AF00090010C01CA01A0011124FF27591B99F054
:104B0000593F50F4503E68F11A16F040A22F232F5F
:104B1000342F4427585FF3CF469537952795A795AF
:104B2000F0405395C9F77EF41F16BA0B620B730B56
:104B3000840BBAF09150A1F0FF0FBB1F661F771FC7
:104B4000881FC2F70EC0BA0F621F731F841F48F47C
:104B5000879577956795B795F7959E3F08F0B0CF05
:104B60009395880F08F09927EE0F979587950895EC
:104B70000E94CC250C944E240E94472458F00E9499
:104B8000402440F029F45F3F29F00C943724511160
:104B90000C9482240C943D240E945F2468F3992392
:104BA000B1F3552391F3951B550BBB27AA27621729
:104BB0007307840738F09F5F5F4F220F331F441F36
:104BC000AA1FA9F335D00E2E3AF0E0E832D091506A
:104BD0005040E695001CCAF72BD0FE2F29D0660F57
:104BE000771F881FBB1F261737074807AB07B0E89A
:104BF00009F0BB0B802DBF01FF2793585F4F3AF0A0
:104C00009E3F510578F00C9437240C9482245F3F2A
:104C1000E4F3983ED4F3869577956795B795F79525
:104C20009F5FC9F7880F911D9695879597F908950D
:104C3000E1E0660F771F881FBB1F621773078407A9
:104C4000BA0720F0621B730B840BBA0BEE1F88F7B8
:104C5000E09508950E9431266894B1110C94822445
:104C600008950E94672488F09F5798F0B92F9927DC
:104C7000B751B0F0E1F0660F771F881F991F1AF047
:104C8000BA95C9F714C0B13091F00E948124B1E007
:104C900008950C948124672F782F8827B85F39F006
:104CA000B93FCCF3869577956795B395D9F73EF4E0
:104CB00090958095709561957F4F8F4F9F4F089588
:104CC0000E94A62308F48FEF089597FB072E16F491
:104CD000009407D077FD09D00E94802607FC05D0FC
:104CE0003EF4909581959F4F0895709561957F4F03
:104CF00008950E943C25B7FF0895821B930B0895E9
:104D0000AA1BBB1B51E107C0AA1FBB1FA617B707F1
:104D100010F0A61BB70B881F991F5A95A9F780950D
:104D20009095BC01CD010895EE0FFF1F0590F49101
:104D3000E02D0994CF93DF938230910510F482E047
:104D400090E0E0916607F091670720E030E0C0E076
:104D5000D0E0309711F14081518148175907C0F0D8
:104D60004817590761F482819381209719F09B833A
:104D70008A832BC0909367078093660726C021150E
:104D8000310519F04217530718F49A01BE01DF01EB
:104D9000EF010280F381E02DDCCF2115310509F10F
:104DA000281B390B2430310590F412968D919C917B
:104DB00013976115710521F0FB019383828304C071
:104DC0009093670780936607FD01329644C0FD010A
:104DD000E20FF31F81939193225031092D933C935D
:104DE0003AC02091640730916507232B41F420914C
:104DF0003B0130913C01309365072093640720917B
:104E0000390130913A012115310541F42DB73EB7F2
:104E100040913D0150913E01241B350BE091640708
:104E2000F0916507E217F307A0F42E1B3F0B28173C
:104E3000390778F0AC014E5F5F4F2417350748F013
:104E40004E0F5F1F509365074093640781939193C2
:104E500002C0E0E0F0E0CF01DF91CF9108950F9321
:104E60001F93CF93DF93009709F48CC0FC01329716
:104E700013821282009166071091670701151105D0
:104E800081F420813181820F931F2091640730913A
:104E900065072817390779F5F0936507E0936407EC
:104EA00071C0D80140E050E0AE17BF0750F4129631
:104EB0002D913C911397AD012115310509F1D901CF
:104EC000F3CF9D01DA013383228360817181860FE4
:104ED000971F8217930769F4EC0128813981260F07
:104EE000371F2E5F3F4F318320838A819B819383BD
:104EF0008283452B29F4F0936707E093660742C04D
:104F00001396FC93EE931297ED01499159919E01EE
:104F1000240F351FE217F30771F480819181840F0C
:104F2000951F029611969C938E938281938113967E
:104F30009C938E931297E0E0F0E0D80112968D9149
:104F40009C911397009719F0F8018C01F6CF8D9181
:104F50009C9198012E5F3F4F820F931F2091640711
:104F6000309165072817390769F4309729F41092B2
:104F700067071092660702C01382128210936507BA
:104F800000936407DF91CF911F910F910895A0E0E6
:104F9000B0E0EDECF7E20C94E724EC01009721F48B
:104FA000CB010E949A26B8C0FC01E60FF71F9C01B6
:104FB00022503109E217F30708F4ACC0D9010D9172
:104FC0001C91119706171707B0F00530110508F46A
:104FD0009FC0C80104978617970708F499C002502C
:104FE0001109061B170B019311936D937C93CF014D
:104FF0000E942F278DC05B01A01AB10A4C01800EC0
:10500000911EA0916607B091670740E050E0E12C47
:10501000F12C109709F44AC0A815B905D1F56D9087
:105020007C901197630182E0C80ED11CCA14DB0486
:1050300080F1A3014A195B096A0182E0C80ED11C04
:105040001296BC9012971396AC91B5E0CB16D10492
:1050500040F0B282A38351834083D9016D937C9346
:105060000AC00E5F1F4FC301800F911FF90191838A
:105070008083EB2DFA2FE114F10431F0D701139660
:10508000FC93EE93129744C0F0936707E093660792
:105090003FC08D919C9111974817590708F4AC01B6
:1050A0007D0112960D90BC91A02DB3CF8091640725
:1050B0009091650788159905E1F446175707C8F4DC
:1050C0008091390190913A01009741F48DB79EB7D4
:1050D00040913D0150913E01841B950BE817F90763
:1050E000C8F4F0936507E0936407F9017183608366
:1050F0000FC0CB010E949A267C01009759F0A801AD
:10510000BE010E949628CE010E942F27C70104C02D
:10511000CE0102C080E090E0CDB7DEB7EEE00C94A7
:10512000032581E090E0F8940C94A628FB01DC01B3
:1051300002C001900D9241505040D8F70895FB01F4
:10514000DC0101900D920020E1F7089510E0C1EB21
:10515000D0E004C0FE010E9494262196C23BD107F4
:06516000C9F7F894FFCF2F
:105166001C0CE0FCDE06D206C606BA06AE06A20691
:10517600960666064E065A068A067E067206EA05F2
:10518600DE05D205C605BA05320626060E06020655
:10519600F605AE0596050000FF00006807800000D2
:1051A600000000AC1219124412F312751253126762
:1051B60012000000002A161912B3136A137913910C
:1051C60013501361727265744175746F506F70433A
:1051D600616C6C6261636B0063616C6962726174BD
:1051E600696F6E506F7043616C6C4261636B0067F0
:1051F600617567654469676943616C0063616C69E1
:10520600627261746547617567650070726F677277
:1052160065737342617243616C000D0A00747572A6
:105226006E4F6666506F7043616C6C4261636B00D3
:1052360067657420002E76616C0072656376526530
:10524600744E756D626572203A00726563765265BA
:10525600744E756D6265722065727200736572694F
:10526600616C0072657061697273002020202020D5
:105276000070616765300062756C6C7345796552C4
:105286006570506F7043616C6C4261636B00707245
:105296006F67726573734379636C650070726F67CD
:1052A60072657373526570006E38006E3700676101
:1052B600756765416E616C6F670067617567654408
:1052C60069676952657000737065656452657050F0
:1052D6006F7043616C6C6261636B006E30006E319F
:1052E60000637572696E675556506F7043616C6CDA
:1052F6004261636B007132002E706963633D006E1C
:1053060034006E33006E32006E36006E3500646512
:10531600706172744175746F506F7043616C6C424A
:1053260061636B0072656376526574436F6D6D6180
:105336006E6446696E6973686564206F6B0072659A
:105346006376526574436F6D6D616E6446696E690E
:10535600736865642065727200286E756C6C29002E
:105366005D005B002C00626B636D643D3100706113
:105376006765203000736574757020646F6E650014
:105386006661737400737461720062756C6C736528
:10539600796500636F6D62696E6174696F6E006D29
:1053A600616E75616C007576437572696E67007320
:1053B600657475700053746F7000743400766163A1
:1053C60075756D0070726573737572650070726FB6
:1053D6006772657373426174006261744C657665C9
:1053E6006C416E616C6F67006C616E6775616765B5
:1053F60073006261744C6576656C0063616C69620A
:10540600726174696F6E00696E666F730061746DA8
:105416000063616C696272617465537461727400D1
:1054260063616C6962726174654578697400706C59
:1054360075735556006D696E7573555600737461B4
:10544600727455560073746F70555600657869749A
:1054560055560068300050726573737572654C65F9
:10546600616B002E7478743D22002E76616C3D00CF
:1054760070616765200076616375756D4D616E7547
:10548600506F7043616C6C4261636B006761756756
:1054960065446967694D616E006761756765416E50
:1054A600614D616E0070726573737572654D616EE4
:1054B60075506F7043616C6C4261636B006D616E19
:1054C60075616C526570506F7043616C6C426163BC
:1054D6006B00636F6D6269526570506F7043616CEB
:0654E6006C4261636B00E3
:107800000C94343C0C94513C0C94513C0C94513CE1
:107810000C94513C0C94513C0C94513C0C94513CB4
:107820000C94513C0C94513C0C94513C0C94513CA4
:107830000C94513C0C94513C0C94513C0C94513C94
:107840000C94513C0C94513C0C94513C0C94513C84
:107850000C94513C0C94513C0C94513C0C94513C74
:107860000C94513C0C94513C11241FBECFEFD8E036
:10787000DEBFCDBF11E0A0E0B1E0ECE9FFE702C060
:1078800005900D92A230B107D9F712E0A2E0B1E065
:1078900001C01D92AD30B107E1F70E942D3D0C945F
:1078A000CC3F0C94003C982F959595959595959582
:1078B000905D8F708A307CF0282F295A8091C0000B
:1078C00085FFFCCF9093C6008091C00085FFFCCF60
:1078D0002093C6000895282F205DF0CF982F809127
:1078E000C00085FFFCCF9093C6000895EF92FF92F1
:1078F0000F931F93EE24FF2487018091C00087FD22
:1079000017C00894E11CF11C011D111D81E4E8164B
:1079100082E4F8068FE0080780E0180770F3E09132
:107920000401F091050109958091C00087FFE9CF1E
:107930008091C6001F910F91FF90EF9008950E94D3
:10794000763C982F8091C00085FFFCCF9093C600B5
:1079500091362CF490330CF09053892F089597555D
:10796000892F08951F930E949F3C182F0E949F3CCF
:107970001295107F810F1F9108951F93182F882350
:1079800021F00E94763C1150E1F71F9108951F935A
:10799000182F0E94763C803249F0809103018F5F5E
:1079A000809303018530C1F01F9108958091C0003C
:1079B00085FFFCCF84E18093C6008091C00085FFE5
:1079C000FCCF1093C6008091C00085FFFCCF80E102
:1079D0008093C6001F910895E0910401F091050184
:1079E00009951F9108950E94763C803241F0809164
:1079F00003018F5F80930301853081F008958091AA
:107A0000C00085FFFCCF84E18093C6008091C00058
:107A100085FFFCCF80E18093C6000895E0910401CA
:107A2000F09105010995089540E951E08823A1F0FE
:107A30002D9A28EE33E0FA013197F1F721503040CA
:107A4000D1F72D9828EE33E0FA013197F1F7215064
:107A50003040D1F7815061F708953F924F925F9285
:107A60006F927F928F929F92AF92BF92CF92DF924E
:107A7000EF92FF920F931F93CF93DF93000080E16B
:107A80008093C4001092C50088E18093C10086E015
:107A90008093C2005098589A259A81E00E94143D24
:107AA00024E1F22E9EE1E92E85E9D82E0FE0C02ECA
:107AB00010E1B12EAA24A394B1E49B2EA6E58A2E50
:107AC000F2E57F2EE0E26E2E79E4572E63E5462E36
:107AD00050E5352E0E94763C8033B1F18133B9F107
:107AE000803409F46FC0813409F476C0823409F41B
:107AF00085C0853409F488C0803531F1823521F1A3
:107B0000813511F1853509F485C0863509F48DC0BC
:107B1000843609F496C0843709F403C1853709F423
:107B200072C1863709F466C0809103018F5F80932C
:107B30000301853079F6E0910401F0910501099582
:107B40000E94763C803351F60E94F33CC3CF0E94E2
:107B5000763C803249F78091C00085FFFCCFF092DF
:107B6000C6008091C00085FFFCCF9092C600809136
:107B7000C00085FFFCCF8092C6008091C00085FFC9
:107B8000FCCF7092C6008091C00085FFFCCF609250
:107B9000C6008091C00085FFFCCF5092C600809146
:107BA000C00085FFFCCF4092C6008091C00085FFD9
:107BB000FCCF3092C6008091C00085FFFCCFB09210
:107BC000C60088CF0E94763C863808F4BDCF0E945C
:107BD000763C0E94F33C7ECF0E94763C803809F4CC
:107BE0009CC0813809F40BC1823809F43CC1883942
:107BF00009F48FC080E00E94C73C6CCF84E10E94F2
:107C0000BD3C0E94F33C66CF85E00E94BD3C0E94D3
:107C1000F33C60CF0E94763C809306010E94763C44
:107C2000809307010E94F33C55CF0E94763C80333D
:107C300009F41DC183E00E94BD3C80E00E94C73C66
:107C400049CF0E94763C809309020E94763C809343
:107C5000080280910C028E7F80930C020E94763C79
:107C6000853409F415C18091080290910902892B8D
:107C700089F000E010E00E94763CF801E85FFE4FDA
:107C800080830F5F1F4F80910802909109020817AF
:107C9000190788F30E94763C803209F045CF809125
:107CA0000C0280FF01C16091060170910701660F0F
:107CB000771F7093070160930601A0910802B091AD
:107CC00009021097C9F0E8E0F1E09B01AD014E0F09
:107CD0005F1FF999FECF32BD21BD819180BDFA9A17
:107CE000F99A2F5F3F4FE417F50799F76A0F7B1F4B
:107CF00070930701609306018091C00085FFFCCF5F
:107D0000F092C6008091C00085FFFCCFB092C60003
:107D1000E1CE83E00E94C73CDDCE82E00E94C73CFA
:107D2000D9CE0E94763C809309020E94763C8093D3
:107D300008028091060190910701880F991F909386
:107D40000701809306010E94763C853409F4A6C0A1
:107D500080910C028E7F80930C020E94763C8032D0
:107D600009F0B8CE8091C00085FFFCCFF092C6002C
:107D7000609108027091090261157105B9F140E046
:107D800050E080910C02A82FA170B82FB27011C0E2
:107D9000BB2309F45CC0E0910601F0910701319624
:107DA000F0930701E09306014F5F5F4F46175707B7
:107DB000E8F4AA2369F3F999FECF209106013091E6
:107DC000070132BD21BDF89A90B58091C00085FFB2
:107DD000FCCF9093C6002F5F3F4F30930701209355
:107DE00006014F5F5F4F4617570718F38091C00099
